:020000040800F2
:1000000000500020490500082503000827030008C8
:10001000290300082B0300082D030008000000003E
:100020000000000000000000000000002F03000896
:100030003103000800000000330300083503000806
:100040009105000891050008910500089105000838
:100050009105000891050008910500089105000828
:100060009105000891050008910500089105000818
:100070009105000891050008910500089105000808
:1000800091050008910500089105000891050008F8
:1000900091050008910500089105000891050008E8
:1000A0009105000891050008910500083D0300082E
:1000B00091050008910500089105000891050008C8
:1000C00091050008910500089105000891050008B8
:1000D0009105000891050008910500084D030008EE
:1000E0009105000891050008910500080000000036
:1000F0000000000000000000000000000000000000
:0C01000000000000000000005FF808F1A3
:10010C000348044B834202D0034B03B1184770479A
:10011C004400002044000020000000000548064B6D
:10012C001B1AD90F01EBA301491002D0034B03B1E9
:10013C0018477047440000204400002000000000D5
:10014C0010B5064C237843B9FFF7DAFF044B13B113
:10015C000448AFF300800123237010BD440000203D
:10016C0000000000D81E000808B5054B1BB105495E
:10017C000548AFF30080BDE80840FFF7CFBF00BFD4
:10018C000000000048000020D81E000870B588B0A0
:10019C0004AD00240494059406940794184B9A69B2
:1001AC0042F020029A619A6902F020020192019AAF
:1001BC009A6942F008029A619A6902F00802029266
:1001CC00029A9A6942F004029A619B6903F0040353
:1001DC000393039B0B4E22464FF40061304600F014
:1001EC000DFC4FF400630493012305930694022342
:1001FC0007932946304600F0F7FA08B070BD00BFEF
:10020C00001002400008014038B50A4B834200D070
:10021C0038BD094D284601F0C7FD064C82B229466F
:10022C00204601F011FB32220449204601F00FFD5B
:10023C00EEE700BFDC000020000000206000002082
:10024C0072B6FEE710B590B006AC2822002120460D
:10025C0001F030FD00230193029303930493059363
:10026C00012206924FF4803307930A9202220D92D8
:10027C000E934FF4E0130F93204600F0DBFB78B99C
:10028C000F23019302210291002303934FF4806208
:10029C000492059301A800F0FFFD18B910B010BD31
:1002AC00FFF7CEFFFFF7CCFF08B500F093F9FFF78F
:1002BC00C9FFFFF76BFF00F04DF800F0DFF83222BA
:1002CC000249034801F0C3FCFEE700BF60000020B8
:1002DC00DC00002082B00E4B9A6942F001029A6158
:1002EC009A6902F001020092009ADA6942F0805297
:1002FC00DA61DB6903F080530193019B054A536873
:10030C0023F0E06343F00073536002B0704700BF0A
:10031C000010024000000140FEE7FEE7FEE7FEE7AA
:10032C00FEE770477047704708B500F065F908BDE7
:10033C0008B5024800F010FF08BD00BF9400002073
:10034C0008B5024801F026FB08BD00BFDC00002008
:10035C007047000000B58BB00023069307930893F9
:10036C0009930493059300930193029303932648F6
:10037C00264A02604722426083604FF6FF72C260D9
:10038C0003614361836100F0D9FF58BB4FF4805384
:10039C00069306A91C4801F0C7F830BB1A4800F0B8
:1003AC00F9FF28BB00230493059304A9164801F018
:1003BC003BF900BB002300930122019202930393AB
:1003CC0008226946104801F03DF8B8B902230093A1
:1003DC0001930C2269460C4801F034F888B90BB033
:1003EC005DF804FBFFF72CFFD0E7FFF729FFD5E7FB
:1003FC00FFF726FFD6E7FFF723FFDBE7FFF720FF2A
:10040C00E4E7FFF71DFFEAE794000020002C014011
:10041C0000B587B0002302930393049305930268FD
:10042C00144B9A4202D007B05DF804FB03F5644309
:10043C009A6942F400629A619A6902F4006200922D
:10044C00009A9A6942F004029A619B6903F00403D2
:10045C000193019B4FF48063029302A9064800F0BC
:10046C00C3F9002211461B2000F01EF91B2000F0DE
:10047C002BF9D8E7002C01400008014008B50A48C8
:10048C000A4B03604FF41653436000238360C36030
:10049C0003610C2242618361C36101F0A5F900B9CB
:1004AC0008BDFFF7CDFEFBE7DC0000200048004054
:1004BC0070B586B0002302930393049305930268EE
:1004CC001C4B9A4201D006B070BD03F5E433DA69D7
:1004DC0042F48022DA61DA6902F480220092009AF6
:1004EC009A6942F008029A619B6903F00803019330
:1004FC00019B4FF480630293022303930323059320
:10050C0002AE0D4D3146284600F06EF94FF40063F3
:10051C0002930024039404943146284600F064F9B5
:10052C0022462146272000F0BFF8272000F0CCF807
:10053C00C9E700BF00480040000C0140FFF708FF6E
:10054C000B480C490C4A002302E0D458C450043325
:10055C00C4188C42F9D3094A094C002301E01360FA
:10056C000432A242FBD301F0F3FBFFF79DFE704770
:10057C000000002044000020281F00084400002038
:10058C00C0020020FEE7000010B504460E4B1A789E
:10059C004FF47A73B3FBF2F30C4A1068B0FBF3F030
:1005AC0000F0A0F868B90F2C01D901200AE0002254
:1005BC0021464FF0FF3000F077F8054B1C6000200F
:1005CC0000E0012010BD00BF3800002034000020E6
:1005DC003C00002008B5074A136843F01003136071
:1005EC00032000F04FF80F20FFF7CEFFFFF772FE4D
:1005FC00002008BD00200240034A1168034B1B7801
:10060C000B441360704700BF240100203800002009
:10061C00014B1868704700BF24010020002808DB3C
:10062C000901C9B200F1604000F5614080F8001387
:10063C00704700F00F000901C9B2014B1954704703
:10064C0014ED00E000B500F00700C0F1070CBCF1A0
:10065C00040F28BF4FF0040C031D062B0FD9C31E2B
:10066C004FF0FF3E0EFA0CF021EA000199400EFA11
:10067C0003FE22EA0E0241EA02005DF804FB0023AD
:10068C00EEE70000074AD36823F4E0631B041B0C5D
:10069C00000200F4E060034343F0BF6343F4003313
:1006AC00D360704700ED00E010B50446054BD868E8
:1006BC00C0F30220FFF7C6FF01462046FFF7AEFF4E
:1006CC0010BD00BF00ED00E0002807DB00F01F02AA
:1006DC00400901239340024A42F82030704700BF82
:1006EC0000E100E00138B0F1807F0BD24FF0E02345
:1006FC005861054AF02182F82310002098610722E6
:10070C001A6170470120704700ED00E0034690F835
:10071C002120022A06D004228263002280F82020A5
:10072C000120704701680A6822F00E020A60016815
:10073C000A6822F001020A60026CC06B012101FA06
:10074C0002F2426083F82110002083F820007047E9
:10075C0008B590F82130022B03D0042383630120C9
:10076C0008BD0268136823F00E0313600268136857
:10077C0023F0010313600368194A934214D0143216
:10078C0093421FD0143293421ED0143293421ED087
:10079C00143293421ED01432934202D04FF0807226
:1007AC0003E04FF4801200E001220E4B5A6001234B
:1007BC0080F82130002380F82030436B6BB19847D0
:1007CC000020CDE71022F0E74FF48072EDE74FF4F4
:1007DC008052EAE74FF48032E7E70020C0E700BF21
:1007EC00080002400000024070B582B00024A4460C
:1007FC009EE07C4DAB4214D00CD8A5F58015AB42D5
:10080C000FD005F57025AB420BD0A5F58015AB428A
:10081C001FD106E0744DAB4203D005F58035AB42D9
:10082C0017D18B68A3B1012B0DD04261082410E0C5
:10083C00CC680EE0CC6804340BE0CC68083408E0DB
:10084C00CC680C3405E00261082402E0002400E0CE
:10085C000424BEF1FF0F37D806464FEA8C023368EA
:10086C000F25954023EA050304FA02F21343336083
:10087C004B6813F0805F59D05C4B9A6942F00102CF
:10088C009A619B6903F001030193019B4FEA9C025F
:10089C00951C574B53F825600CF00305AD000F2346
:1008AC00AB4026EA0306534B984214D003F5806301
:1008BC00984279D003F58063984277D003F5806332
:1008CC00984206D0042307E0061DACF10802920002
:1008DC00C5E7032300E00023AB4033430232444D11
:1008EC0045F822304B6813F4801F61D0424A93685C
:1008FC0043EA0E0393604B6813F4001F5ED03E4A2C
:10090C00D36843EA0E03D3604B6813F4003F5BD00B
:10091C00394A536843EA0E0353604B6813F4803F23
:10092C0058D0354A136843EA0E0313600CF1010CDE
:10093C000B6833FA0CF253D0012202FA0CF203EAE0
:10094C00020E32EA0303F1D14B68122B3FF651AF82
:10095C00122B3FF67EAF01A555F823F02F080008A7
:10096C003D08000847080008590800085F080008FF
:10097C005F0800085F0800085F0800085F080008AF
:10098C005F0800085F0800085F0800085F0800089F
:10099C005F0800085F0800085F0800085F0800088F
:1009AC00410800084D080008012395E7022393E74E
:1009BC00114A936823EA0E0393609CE70E4AD368AE
:1009CC0023EA0E03D3609FE70B4A536823EA0E0316
:1009DC005360A2E7084A136823EA0E031360A5E7E5
:1009EC0002B070BD00002210000031100010024057
:1009FC000000014000080140000401400AB10161FF
:100A0C00704709040161704782B0084B1B68084AA3
:100A1C00A2FB03235B0A00FB03F3019300BF019BC2
:100A2C005A1E0192002BF9D102B0704734000020FD
:100A3C00D34D6210002800F0F18170B582B00446ED
:100A4C00036813F0010F2CD0994B5B6803F00C0377
:100A5C00042B1DD0964B5B6803F00C03082B12D0B3
:100A6C006368B3F5803F41D0002B55D103F180432F
:100A7C0003F504331A6822F480321A601A6822F4DF
:100A8C0080221A6037E08A4B5B6813F4803FE7D012
:100A9C00874B1B6813F4003F03D06368002B00F0F6
:100AAC00BF81236813F0020F75D0814B5B6813F084
:100ABC000C0F5FD07E4B5B6803F00C03082B54D0FB
:100ACC002369002B00F08A807A4B01221A60FFF711
:100ADC009FFD0546764B1B6813F0020F75D1FFF78F
:100AEC0097FD401B0228F5D903209EE1704A13683C
:100AFC0043F480331360636843B3FFF789FD054605
:100B0C006B4B1B6813F4003FCBD1FFF781FD401BEF
:100B1C006428F5D9032088E1B3F5A02F09D0644BE4
:100B2C001A6822F480321A601A6822F480221A6041
:100B3C00E1E703F18043A3F53C331A6842F48022C9
:100B4C001A601A6842F480321A60D4E7FFF760FD2D
:100B5C000546574B1B6813F4003FA2D0FFF758FD16
:100B6C00401B6428F5D903205FE1514B5B6813F4FB
:100B7C00803FA5D14E4B1B6813F0020F03D02369A5
:100B8C00012B40F04F814A4A136823F0F803616946
:100B9C0043EAC1031360236813F0080F33D0A36931
:100BAC00002B5CD0434B0122C3F88024FFF730FDAF
:100BBC0005463F4B5B6A13F0020F21D1FFF728FD6E
:100BCC00401B0228F5D903202FE1394A136823F082
:100BDC00F803616943EAC1031360DCE7354B00227B
:100BEC001A60FFF715FD0546314B1B6813F0020F19
:100BFC00D1D0FFF70DFD401B0228F5D9032014E1DD
:100C0C000120FFF701FF236813F0040F00F096801A
:100C1C00274BDB6913F0805F34D1254BDA6942F046
:100C2C008052DA61DB6903F080530193019B01254B
:100C3C00214B1B6813F4807F26D0E368012B3DD039
:100C4C00002B53D103F1804303F504331A6A22F0CD
:100C5C0001021A621A6A22F004021A6233E0154B7E
:100C6C000022C3F88024FFF7D3FC0546104B5B6AC7
:100C7C0013F0020FC7D0FFF7CBFC401B0228F5D9AD
:100C8C000320D2E00025D3E70B4A136843F48073AA
:100C9C001360FFF7BDFC0646074B1B6813F4807FFF
:100CAC00CBD1FFF7B5FC801B6428F5D90320BCE041
:100CBC000010024000004242007000405F4A136A7C
:100CCC0043F001031362E36833B3FFF7A1FC06465C
:100CDC005A4B1B6A13F0020F2FD1FFF799FC801BA4
:100CEC0041F288339842F3D903209EE0052B09D0BA
:100CFC00524B1A6A22F001021A621A6A22F004029A
:100D0C001A62E0E74D4B1A6A42F004021A621A6A40
:100D1C0042F001021A62D6E7FFF77AFC0646474B0F
:100D2C001B6A13F0020F08D0FFF772FC801B41F214
:100D3C0088339842F3D9032077E0E5B9E369002BB7
:100D4C0072D03E4A526802F00C02082A56D0022B8E
:100D5C0017D03B4B00221A66FFF75AFC0446374B60
:100D6C001B6813F0007F47D0FFF752FC001B0228D2
:100D7C00F5D9032059E0314AD36923F08053D3616C
:100D8C00DCE72F4B00221A66FFF742FC05462B4B83
:100D9C001B6813F0007F06D0FFF73AFC401B0228BB
:100DAC00F5D9032041E0236AB3F5803F1AD02349DB
:100DBC004B6823F47413226A606A024313434B603A
:100DCC001F4B01221A66FFF723FC04461B4B1B68C2
:100DDC0013F0007F0ED1FFF71BFC001B0228F5D986
:100DEC00032022E0154A536823F40033A1680B4317
:100DFC005360DCE7002018E0002016E0012B16D031
:100E0C000E4B5B6803F48031226A914211D103F4DA
:100E1C007013626A93420ED1002006E001207047E5
:100E2C00012002E0012000E0002002B070BD012092
:100E3C00FBE70120F9E70120F7E700BF00100240B3
:100E4C00000042420F4B5B6803F00C02082A01D0F1
:100E5C000D487047C3F383420C49885C13F4803F00
:100E6C000BD0084B5B68C3F34043094AD35C064A7A
:100E7C0002FB00F0B0FBF3F07047064B03FB00F0F5
:100E8C00704700BF0010024000127A000C1F0008CF
:100E9C00081F000800093D00002800F0A08070B574
:100EAC000D460446524B1B6803F007038B420BD2D2
:100EBC004F4A136823F007030B431360136803F0C6
:100ECC0007038B4240F08D80236813F0020F17D07C
:100EDC0013F0040F04D0474A536843F4E0635360A3
:100EEC00236813F0080F04D0424A536843F460534C
:100EFC005360404A536823F0F003A1680B435360DE
:100F0C00236813F0010F31D06368012B20D0022B22
:100F1C0025D0384A126812F0020F64D035494A685D
:100F2C0022F0030213434B60FFF772FB0646314B72
:100F3C005B6803F00C036268B3EB820F16D0FFF70B
:100F4C0067FB801B41F288339842F0D9032045E0BF
:100F5C00284A126812F4003FE0D101203EE0254AF5
:100F6C00126812F0007FD9D1012037E0204B1B68AA
:100F7C0003F00703AB420AD91D4A136823F0070399
:100F8C002B431360136803F00703AB422DD1236886
:100F9C0013F0040F06D0174A536823F4E063E1689A
:100FAC000B435360236813F0080F07D0114A5368A2
:100FBC0023F46053216943EAC1035360FFF742FFF6
:100FCC000C4B5B68C3F303130B4AD35CD8400B4B3D
:100FDC0018600B4B1868FFF7D7FA002070BD012082
:100FEC0070470120FAE70120F8E70120F6E700BF7F
:100FFC000020024000100240F81E000834000020BF
:10100C003C000020014B1868704700BF34000020E2
:10101C0008B5FFF7F7FF044B5B68C3F30223034AE1
:10102C00D35CD84008BD00BF00100240F01E000881
:10103C0008B5FFF7E7FF044B5B68C3F3C223034A11
:10104C00D35CD84008BD00BF00100240F01E000861
:10105C0010B4036A046A24F001040462846924F065
:10106C00F00C4CEA021223F00A030B438261036278
:10107C0010BC704730B4056A046A24F01004046292
:10108C00846924F4407C4CEA022C2CF4704C1B0335
:10109C009BB243EA0C0325F0A005090101F0A00165
:1010AC0029438361016230BC704710B4036A046A3F
:1010BC0024F010040462846924F4704C4CEA02326B
:1010CC0023F0A00343EA01138261036210BC704752
:1010DC0030B4056A046A24F480740462C46924F090
:1010EC00030C4CEA020C2CF0F00C1B01DBB243EAB3
:1010FC000C0325F40075090201F400712943C36146
:10110C00016230BC704730B4056A046A24F4805420
:10111C000462C46924F4407C4CEA022C2CF4704C1C
:10112C001B039BB243EA0C0325F40055090301F49D
:10113C0000512943C361016230BC7047836823F0BE
:10114C0070030B4343F0070383607047704770478D
:10115C00704770477047704770B504460368DE6887
:10116C001D6915F0020F10D016F0020F0DD06FF0A4
:10117C0002021A610123037703689B6913F0030FC2
:10118C005ED0FFF7E6FF0023237715F0040F12D093
:10119C0016F0040F0FD023686FF004021A610223BB
:1011AC00237723689B6913F4407F4FD02046FFF7C9
:1011BC00D0FF0023237715F0080F12D016F0080F7C
:1011CC000FD023686FF008021A6104232377236879
:1011DC00DB6913F0030F40D02046FFF7BAFF002362
:1011EC00237715F0100F12D016F0100F0FD02368C4
:1011FC006FF010021A61082323772368DB6913F45C
:10120C00407F31D02046FFF7A4FF0023237715F051
:10121C00010F02D016F0010F2DD115F0800F02D066
:10122C0016F0800F2FD115F0400F02D016F0400FA2
:10123C0031D115F0200F02D016F0200F33D170BD34
:10124C00FFF786FF2046FFF785FF9CE72046FFF758
:10125C007FFF2046FFF77EFFABE72046FFF778FFC6
:10126C002046FFF777FFBAE72046FFF771FF2046CD
:10127C00FFF770FFC9E723686FF001021A6120467F
:10128C00FFF765FFC9E723686FF080021A612046FB
:10129C0000F001FAC7E723686FF040021A6120469C
:1012AC00FFF759FFC5E723686FF020021A6120464B
:1012BC0000F0F0F9C3E7000003681F4A90420AD01F
:1012CC00B0F1804F07D0A2F59432904203D002F5D2
:1012DC008062904203D123F070034A681343164A8C
:1012EC0090420AD0B0F1804F07D0A2F594329042D0
:1012FC0003D002F58062904203D123F44073CA6894
:10130C00134323F080034A69134303608B68C36261
:10131C000B688362084B98420AD00123436103692E
:10132C0013F0010F03D0036923F00103036170472D
:10133C000B690363F1E700BF002C014040B310B50B
:10134C00044690F83D30F3B1022384F83D30214639
:10135C0051F8040BFFF7B0FF012384F8463084F8F2
:10136C003E3084F83F3084F8403084F8413084F8C3
:10137C00423084F8433084F8443084F8453084F8A3
:10138C003D30002010BD80F83C30FFF741F8DBE722
:10139C000120704740B310B5044690F83D30F3B1CE
:1013AC00022384F83D30214651F8040BFFF784FFEB
:1013BC00012384F8463084F83E3084F83F3084F8BA
:1013CC00403084F8413084F8423084F8433084F85B
:1013DC00443084F8453084F83D30002010BD80F84E
:1013EC003C30FFF7B3FEDBE70120704770B4056AB1
:1013FC00046A24F0010404628469114EB0420DD0D9
:10140C00B0F1804F0AD0A6F59436B04206D006F55E
:10141C008066B04202D044F0010202E024F00304E2
:10142C00224322F0F0021B01DBB2134325F00A0227
:10143C0001F00A0111438361016270BC704700BF67
:10144C00002C014038B590F83C30012B5ED004469E
:10145C000D46012380F83C300C2A52D8DFE802F00C
:10146C0007515151195151512C5151513E00CB68DA
:10147C004A6809680068FFF7B9FF2268936923F08E
:10148C000C03936122689369A9680B439361002054
:10149C0038E0CB684A6809680068FFF7EBFD226802
:1014AC00936923F44063936122689369A96843EAC2
:1014BC0001239361002025E0CB684A680968006825
:1014CC00FFF706FE2268D36923F00C03D361226870
:1014DC00D369A9680B43D361002013E0CB684A6839
:1014EC0009680068FFF70FFE2268D36923F4406394
:1014FC00D3612268D369A96843EA0123D361002030
:10150C0000E00120002384F83C3038BD0220FCE7C9
:10151C0010B4846824F47F4C42EA03220A4342EA62
:10152C000C02826010BC704790F83C30012B78D0D4
:10153C0010B50446012380F83C30022380F83D307E
:10154C000268936823F47F4323F0770393600B685E
:10155C00602B4CD023D8402B54D011D8202B03D047
:10156C000AD80BB1102B05D119462068FFF7E6FD00
:10157C00002028E0012026E0302BF5D0012022E0CD
:10158C00502B0AD1CA6849680068FFF761FD5021E9
:10159C002068FFF7D3FD002015E0012013E0B3F520
:1015AC00805F3AD0B3F5005F14D0702B37D1CB6885
:1015BC004A6889680068FFF7ABFF2268936843F0BC
:1015CC00770393600020012384F83D30002384F8D6
:1015DC003C3010BDCB684A6889680068FFF798FFFB
:1015EC002268936843F4804393600020EBE7CA6859
:1015FC0049680068FFF759FD60212068FFF79EFDE0
:10160C000020E0E7CA6849680068FFF721FD402127
:10161C002068FFF793FD0020D5E70020D3E70120D9
:10162C00D1E702207047000090F83C20012A2CD012
:10163C0010B40346012280F83C20022280F83D20A1
:10164C0002685068946820F0700C086840EA0C003E
:10165C0050601A680E4882420AD0B2F1804F07D00F
:10166C00A0F59430824203D000F58060824204D110
:10167C0024F08004496821439160012283F83D20C5
:10168C00002083F83C0010BC70470220704700BF5C
:10169C00002C014070477047026802F10C0353E8BC
:1016AC00003F23F490730C3242E800310029F3D14F
:1016BC00026802F1140353E8003F23F001031432D3
:1016CC0042E800310029F3D1036B012B05D0202314
:1016DC0080F84230002303637047026802F10C0368
:1016EC0053E8003F23F010030C3242E8003100298C
:1016FC00F3D1ECE790F84130212B01D00220704758
:10170C008368B3F5805F17D0036A5A1C02621A789B
:10171C0003685A60C38C9BB2013B9BB2C3844BB928
:10172C000268D36823F08003D3600268D36843F067
:10173C004003D360002070470369002BE4D1036A97
:10174C001B880268C3F308035360036A0233036205
:10175C00E0E7000010B504460268136923F4405317
:10176C00C1680B43136183680269134342691A43CE
:10177C000168CB6823F4B05323F00C031343CB6004
:10178C000268536923F4407381690B435361026807
:10179C00134B9A4220D0FFF73BFC024602EB82022D
:1017AC0002EB820263689B00B2FBF3F20D48A0FBD4
:1017BC0002314909642303FB11231B013233A0FBC3
:1017CC0003035B0903F0F00202EB011203F00F03B9
:1017DC00216813448B6010BDFFF72AFC0246DDE73D
:1017EC00003801401F85EB5160B310B5044690F8EA
:1017FC00413013B3242384F841302268D36823F496
:10180C000053D3602046FFF7A5FF2268136923F429
:10181C00904313612268536923F02A0353612268B1
:10182C00D36843F40053D36000206064202384F811
:10183C00413084F84230606310BD80F84030FEF7D0
:10184C0037FED7E70120704790F84130202B10D19C
:10185C0089B192B101628284C28400234364212243
:10186C0080F841200168CA6842F08002CA601846BC
:10187C007047022070470120704701207047704765
:10188C0008B50168CA6822F04002CA60202280F8BC
:10189C004120FFF7F4FF002008BD7047704708B5E2
:1018AC00406A0023C385C384FFF7F8FF08BD90F896
:1018BC004230222B69D18368B3F5805F4FD0826AA6
:1018CC00B3F5805F04D0002B56D10369002B53D1A4
:1018DC0003685B681370836A01338362C38D9BB2A8
:1018EC00013B9BB2C385002B51D100B583B002687C
:1018FC00D36823F02003D3600268D36823F4807389
:10190C00D3600268536923F001035361202380F8EC
:10191C00423000234363036B012B33D10023036359
:10192C00026802F10C0353E8003F23F010030C3261
:10193C0042E800310029F3D103681A6812F0100F45
:10194C0006D0002201921A6801925B680193019BF8
:10195C00818DFEF759FC002003B05DF804FB026991
:10196C00002AACD1826A03685B68C3F30803138056
:10197C00836A02338362B1E703685B6803F07F0319
:10198C001370A8E7FFF789FFE5E7022070470020F6
:10199C007047000010B582B0044602681368D06826
:1019AC00516913F00F0F09D113F0200F0CD010F068
:1019BC00200F09D02046FFF77AFF16E011F0010145
:1019CC0015D110F4907F12D1216B012979D013F02D
:1019DC00800F03D010F0800F40F0138113F0400FF4
:1019EC0003D010F0400F40F0108102B010BD13F086
:1019FC00010F06D010F4807F03D0626C42F001021C
:101A0C00626413F0040F04D019B1626C42F002024C
:101A1C00626413F0020F04D019B1626C42F004023C
:101A2C00626413F0080F07D010F0200F00D119B129
:101A3C00626C42F008026264626C002AD5D013F02A
:101A4C00200F02D010F0200F29D123685B6903F01E
:101A5C004003626C12F0080F00D163B32046FFF70D
:101A6C001BFE23685B6913F0400F20D0226802F143
:101A7C00140353E8003F23F04003143242E80031D2
:101A8C000029F3D1E36B73B1624A5A63E06BFEF742
:101A9C005FFE0028A9D0E06B436B9847A5E7204672
:101AAC00FFF705FFD1E72046FFF7F8FE9DE720463C
:101ABC00FFF7F4FE99E72046FFF7F0FE002363647E
:101ACC0093E713F0100F82D010F0100F3FF47FAF9C
:101ADC00002301931368019353680193019B53698D
:101AEC0013F0400F51D0E26B13685B689BB2002B74
:101AFC003FF47BAFA18D99427FF677AFE385936975
:101B0C00202B37D0226802F10C0353E8003F23F45A
:101B1C0080730C3242E800310029F3D1226802F1C3
:101B2C00140353E8003F23F00103143242E8003160
:101B3C000029F3D1226802F1140353E8003F23F08B
:101B4C004003143242E800310029F3D1202384F8F9
:101B5C00423000232363226802F10C0353E8003F58
:101B6C0023F010030C3242E800310029F3D1E06B72
:101B7C00FEF7CCFD02236363A18DE38D9BB2C91AE2
:101B8C0089B22046FEF740FB2FE7A18DE38D9BB277
:101B9C00C91A89B2E38D9BB2002B3FF426AF002902
:101BAC003FF423AF226802F10C0353E8003F23F407
:101BBC0090730C3242E800300028F3D1226802F115
:101BCC00140353E8003F23F00103143242E80030C1
:101BDC000028F3D1202384F84230002323632268A9
:101BEC0002F10C0353E8003F23F010030C3242E8DF
:101BFC0000300028F3D1022363632046FEF704FB78
:101C0C00F3E62046FFF776FDEFE62046FFF738FEB9
:101C1C00EBE600BFAB18000881628285C285002309
:101C2C004364222380F84230036923B10268D368ED
:101C3C0043F48073D3600268536943F0010353612A
:101C4C000268D36843F02003D3600020704790F8FB
:101C5C004230202B29D110B582B0044639B312B9C9
:101C6C00012002B010BD0123036300234363FFF77F
:101C7C00D3FF0028F5D1236B012B01D00120F0E715
:101C8C000023019323681A6801925B680193019BFE
:101C9C00226802F10C0353E8003F43F010030C32AE
:101CAC0042E800310029F3D1DBE702207047012024
:101CBC00D7E70000830730B546D08446841805E08A
:101CCC00634603F8011B9D0703D09C46A445F7D13E
:101CDC0030BD013A0244A2EB0C02032A29D9CCB242
:101CEC0004EB04240F2A04EB04442FD9A2F1100CAA
:101CFC002CF00F0C03F11005AC44C3E90044C3E90C
:101D0C00024410336345F8D112F00C0F02F00F0EA1
:101D1C0018D01A462EF0030C9C44AEF1040542F880
:101D2C00044B6245FBD125F0030404330EF003028F
:101D3C002344002ACCD0C9B21A4403F8011B9342A5
:101D4C00FBD130BD7246F4E70346C6E79646E0E7A2
:101D5C0070B50F4B0F4DAB42A3EB050607D000241B
:101D6C00B61055F8043B01349847A642F9D800F058
:101D7C00ADF8094D094B5E1BAB424FEAA60606D0E7
:101D8C00002455F8043B01349847A642F9D870BD9D
:101D9C001C1F00081C1F00081C1F0008241F000823
:101DAC00704700BF704700BF20F0030110F0030024
:101DBC00C0F1000051F8043B00F1040C4FEACC0CCC
:101DCC006FF000021CBF22FA0CF213434FF0010C0F
:101DDC004CEA0C2C4CEA0C4CA3EB0C0222EA03024E
:101DEC0012EACC1204BF51F8043B0430F4D0C2F117
:101DFC00000102EA0102B2FA82F2C2F11F0200EB08
:101E0C00D2007047024B13B1024800F005B870477E
:101E1C0000000000311E0008002301461A46184637
:101E2C0000F014B838B5074D074C2C1BA41005D086
:101E3C00013C55F8043D9847002CF9D1BDE83840D9
:101E4C0000F04AB8281F0008241F00082DE9F843A9
:101E5C001B4D0646286898460F469146FFF7A0FF93
:101E6C00184B1C681CB3286865681F2D22DC4EB902
:101E7C006B1C0235636044F82570FFF793FF00205C
:101E8C00BDE8F883012304EB8501C1F88890D4F8F0
:101E9C008821AB401A43022EC4F88821C1F808816E
:101EAC00E6D1D4F88C211A43C4F88C21E0E7064C17
:101EBC001C60D8E7FFF776FF4FF0FF30E0E700BF7C
:101ECC00400000202C01002030010020F8B500BF9C
:101EDC00F8BC08BC9E467047F8B500BFF8BC08BCFF
:041EEC009E46704757
:101EF00000000000010203040000000000000000D8
:101F00000102030406070809010200000203040598
:0C1F1000060708090A0B0C0D0E0F10103C
:081F1C00111E00087501000808
:041F24004D01000863
:101F2800496E69742053756363657373000000001C
:101F38000000000000000000000000000000000099
:101F48000000000000000000000000000000000089
:101F58000000000000127A000100000010000000DC
:041F6800280100202C
:0400000508000549A1
:00000001FF
