:020000040800F2
:1000000000500020792500081D2100081F2100084C
:1000100021210008232100082521000800000000FC
:100020000000000000000000000000002721000880
:1000300029210008000000002B2100082D210008C4
:10004000C1250008C1250008C1250008C1250008F8
:10005000C1250008C1250008C1250008C1250008E8
:10006000C1250008C1250008C1250008C1250008D8
:10007000C1250008C1250008C1250008C1250008C8
:100080003521000845210008C1250008C1250008C8
:10009000C1250008C1250008C1250008C1250008A8
:1000A000C125000855210008C12500088521000848
:1000B000C1250008C1250008B5210008C125000898
:1000C000C1250008C1250008C1250008C125000878
:1000D000C1250008C1250008C5210008C125000868
:1000E000C1250008C1250008C12500080000000046
:1000F0000000000000000000000000000000000000
:0C01000000000000000000005FF808F1A3
:1001100081F0004102E000BF83F0004330B54FEAB8
:1001200041044FEA430594EA050F08BF90EA020F25
:100130001FBF54EA000C55EA020C7FEA645C7FEAB8
:10014000655C00F0E2804FEA5454D4EB5555B8BFDB
:100150006D420CDD2C4480EA020281EA030382EA4C
:10016000000083EA010180EA020281EA0303362DDE
:1001700088BF30BD11F0004F4FEA01314FF4801CB1
:100180004CEA113102D0404261EB410113F0004FC3
:100190004FEA03334CEA133302D0524263EB43037A
:1001A00094EA050F00F0A780A4F10104D5F1200E18
:1001B0000DDB02FA0EFC22FA05F2801841F1000173
:1001C00003FA0EF2801843FA05F359410EE0A5F147
:1001D00020050EF1200E012A03FA0EFC28BF4CF078
:1001E000020C43FA05F3C01851EBE37101F000452E
:1001F00007D54FF0000EDCF1000C7EEB00006EEB3B
:100200000101B1F5801F1BD3B1F5001F0CD34908C4
:100210005FEA30004FEA3C0C04F101044FEA44521B
:1002200012F5800F80F09A80BCF1004F08BF5FEAA2
:10023000500C50F1000041EB045141EA050130BD82
:100240005FEA4C0C404141EB0101013C28BFB1F594
:10025000801FE9D291F0000F04BF01460020B1FADF
:1002600081F308BF2033A3F10B03B3F120020CDAB2
:100270000C3208DD02F1140CC2F10C0201FA0CF090
:1002800021FA02F10CE002F11402D8BFC2F1200CF5
:1002900001FA02F120FA0CFCDCBF41EA0C019040AB
:1002A000E41AA2BF01EB0451294330BD6FEA0404F4
:1002B0001F3C1CDA0C340EDC04F11404C4F12002DF
:1002C00020FA04F001FA02F340EA030021FA04F3F1
:1002D00045EA030130BDC4F10C04C4F1200220FA48
:1002E00002F001FA04F340EA0300294630BD21FA86
:1002F00004F0294630BD94F0000F83F4801306BF4C
:1003000081F480110134013D4EE77FEA645C18BF3F
:100310007FEA655C29D094EA050F08BF90EA020FD6
:1003200005D054EA000C04BF1946104630BD91EACE
:10033000030F1EBF0021002030BD5FEA545C05D1D1
:100340004000494128BF41F0004130BD14F5800410
:100350003CBF01F5801130BD01F0004545F0FE4184
:1003600041F470014FF0000030BD7FEA645C1ABFB9
:10037000194610467FEA655C1CBF0B46024650EAF0
:10038000013406BF52EA033591EA030F41F400211C
:1003900030BD00BF90F0000F04BF0021704730B5A2
:1003A0004FF4806404F132044FF000054FF0000177
:1003B00050E700BF90F0000F04BF0021704730B538
:1003C0004FF4806404F1320410F0004548BF40420D
:1003D0004FF000013EE700BF42004FEAE2014FEA62
:1003E00031014FEA02701FBF12F07F4393F07F4F3D
:1003F00081F06051704732F07F4208BF704793F040
:100400007F4F04BF41F40021704730B54FF4607452
:1004100001F0004521F000411CE700BF50EA010255
:1004200008BF704730B54FF000050AE050EA0102FE
:1004300008BF704730B511F0004502D5404261EB6E
:1004400041014FF4806404F132045FEA915C3FF4AF
:10045000D8AE4FF003025FEADC0C18BF03325FEA4C
:10046000DC0C18BF033202EBDC02C2F1200300FAFD
:1004700003FC20FA02F001FA03FE40EA0E0021FA22
:1004800002F11444BDE600BF70B54FF0FF0C4CF410
:10049000E06C1CEA11541DBF1CEA135594EA0C0FC2
:1004A00095EA0C0F00F0DEF82C4481EA030621EAFD
:1004B0004C5123EA4C5350EA013518BF52EA033538
:1004C00041F4801143F4801338D0A0FB02CE4FF0EA
:1004D0000005E1FB02E506F00042E0FB03E54FF01A
:1004E0000006E1FB03569CF0000F18BF4EF0010E12
:1004F000A4F1FF04B6F5007F64F5407404D25FEA0E
:100500004E0E6D4146EB060642EAC62141EA5551C0
:100510004FEAC52040EA5E504FEACE2EB4F1FD0C02
:1005200088BFBCF5E06F1ED8BEF1004F08BF5FEA80
:10053000500E50F1000041EB045170BD06F0004632
:1005400046EA010140EA020081EA0301B4EB5C04DF
:10055000C2BFD4EB0C0541EA045170BD41F48011D7
:100560004FF0000E013C00F3AB8014F1360FDEBFFC
:10057000002001F0004170BDC4F10004203C35DAD8
:100580000C341BDC04F11404C4F1200500FA05F35B
:1005900020FA04F001FA05F240EA020001F00042FC
:1005A00021F0004110EBD37021FA04F642EB060172
:1005B0005EEA430E08BF20EAD37070BDC4F10C049C
:1005C000C4F1200500FA04F320FA05F001FA04F260
:1005D00040EA020001F0004110EBD37041F100014C
:1005E0005EEA430E08BF20EAD37070BDC4F1200557
:1005F00000FA05F24EEA020E20FA04F301FA05F2BF
:1006000043EA020321FA04F001F0004121FA04F266
:1006100020EA020000EBD3705EEA430E08BF20EA36
:10062000D37070BD94F0000F0FD101F00046400070
:1006300041EB010111F4801F08BF013CF7D041EAF2
:10064000060195F0000F18BF704703F000465200F6
:1006500043EB030313F4801F08BF013DF7D043EAC7
:100660000603704794EA0C0F0CEA135518BF95EA7D
:100670000C0F0CD050EA410618BF52EA4306D1D104
:1006800081EA030101F000414FF0000070BD50EA23
:10069000410606BF1046194652EA430619D094EAAD
:1006A0000C0F02D150EA013613D195EA0C0F05D197
:1006B00052EA03361CBF104619460AD181EA0301EB
:1006C00001F0004141F0FE4141F470014FF00000A3
:1006D00070BD41F0FE4141F4780170BD70B54FF03E
:1006E000FF0C4CF4E06C1CEA11541DBF1CEA1355BE
:1006F00094EA0C0F95EA0C0F00F0A7F8A4EB0504A0
:1007000081EA030E52EA03354FEA013100F0888096
:100710004FEA03334FF0805545EA131343EA12635F
:100720004FEA022245EA111545EA10654FEA002614
:100730000EF000419D4208BF964244F1FD0404F5CD
:10074000407402D25B084FEA3202B61A65EB030529
:100750005B084FEA32024FF480104FF4002CB6EBE6
:10076000020E75EB030E22BFB61A754640EA0C0066
:100770005B084FEA3202B6EB020E75EB030E22BFA6
:10078000B61A754640EA5C005B084FEA3202B6EBE7
:10079000020E75EB030E22BFB61A754640EA9C00A6
:1007A0005B084FEA3202B6EB020E75EB030E22BF76
:1007B000B61A754640EADC0055EA060E18D04FEA34
:1007C000051545EA16754FEA06164FEAC30343EAD4
:1007D00052734FEAC2025FEA1C1CC0D111F4801FA1
:1007E0000BD141EA00014FF000004FF0004CB6E79A
:1007F00011F4801F04BF01430020B4F1FD0C88BF39
:10080000BCF5E06F3FF6AFAEB5EB030C04BFB6EB43
:10081000020C5FEA500C50F1000041EB045170BD36
:100820000EF0004E4EEA113114EB5C04C2BFD4EB63
:100830000C0541EA045170BD41F480114FF0000EE7
:10084000013C90E645EA060E8DE60CEA135594EA63
:100850000C0F08BF95EA0C0F3FF43BAF94EA0C0F66
:100860000AD150EA01347FF434AF95EA0C0F7FF4DB
:1008700025AF104619462CE795EA0C0F06D152EA2F
:1008800003353FF4FDAE1046194622E750EA410613
:1008900018BF52EA43067FF4C5AE50EA41047FF424
:1008A0000DAF52EA43057FF4EBAE12E74FF0FF3C89
:1008B00006E000BF4FF0010C02E000BF4FF0010C5A
:1008C0004DF804CD4FEA410C7FEA6C5C4FEA430CD3
:1008D00018BF7FEA6C5C1BD001B050EA410C0CBF22
:1008E00052EA430C91EA030F02BF90EA020F002084
:1008F000704710F1000F91EA030F58BF994208BFEB
:1009000090422CBFD8176FEAE37040F001007047A7
:100910004FEA410C7FEA6C5C02D150EA013C07D1FE
:100920004FEA430C7FEA6C5CD6D152EA033CD3D049
:100930005DF8040B704700BF8446104662468C4643
:100940001946634600E000BF01B5FFF7B7FF002876
:1009500048BF10F1000F01BD4DF808EDFFF7F4FF9F
:100960000CBF012000205DF808FB00BF4DF808ED2A
:10097000FFF7EAFF34BF012000205DF808FB00BF4D
:100980004DF808EDFFF7E0FF94BF012000205DF86F
:1009900008FB00BF4DF808EDFFF7CEFF94BF012024
:1009A00000205DF808FB00BF4DF808EDFFF7C4FF1D
:1009B00034BF012000205DF808FB00BF4FEA410270
:1009C00012F5001215D211D56FF47873B3EB6252A1
:1009D00012D94FEAC12343F0004343EA505311F0C8
:1009E000004F23FA02F018BF404270474FF000005A
:1009F000704750EA013005D111F0004008BF6FF098
:100A0000004070474FF00000704700BF80F000408A
:100A100002E000BF81F0004142001FBF5FEA4103D6
:100A200092EA030F7FEA226C7FEA236C6AD04FEAD6
:100A30001262D2EB1363C1BFD2184140484041401B
:100A4000B8BF5B42192B88BF704710F0004F40F4CD
:100A5000000020F07F4018BF404211F0004F41F4E9
:100A6000000121F07F4118BF494292EA030F3FD0B5
:100A7000A2F1010241FA03FC10EB0C00C3F12003C8
:100A800001FA03F100F0004302D5494260EB400057
:100A9000B0F5000F13D3B0F1807F06D340084FEAC2
:100AA000310102F10102FE2A51D2B1F1004F40EBB7
:100AB000C25008BF20F0010040EA0300704749001F
:100AC00040EB0000013A28BFB0F5000FEDD2B0FABC
:100AD00080FCACF1080CB2EB0C0200FA0CF0AABFDF
:100AE00000EBC25052421843BCBFD040184370477D
:100AF00092F0000F81F4000106BF80F40000013283
:100B0000013BB5E74FEA41037FEA226C18BF7FEA59
:100B1000236C21D092EA030F04D092F0000F08BF9B
:100B20000846704790EA010F1CBF0020704712F082
:100B30007F4F04D1400028BF40F00040704712F1C1
:100B400000723CBF00F50000704700F0004343F026
:100B5000FE4040F4000070477FEA226216BF08465C
:100B60007FEA23630146420206BF5FEA412390EA1F
:100B7000010F40F4800070474FF0000304E000BF15
:100B800010F0004348BF40425FEA000C08BF7047C6
:100B900043F0964301464FF000001CE050EA01028A
:100BA00008BF70474FF000030AE000BF50EA01029F
:100BB00008BF704711F0004302D5404261EB41018C
:100BC0005FEA010C02BF84460146002043F0B643B1
:100BD00008BFA3F18053A3F50003BCFA8CF2083AD6
:100BE000A3EBC25310DB01FA02FC634400FA02FCDF
:100BF000C2F12002BCF1004F20FA02F243EB0200E6
:100C000008BF20F00100704702F1200201FA02FC47
:100C1000C2F1200250EA4C0021FA02F243EB02003A
:100C200008BF20EADC7070474FF0FF0C1CEAD0527E
:100C30001EBF1CEAD15392EA0C0F93EA0C0F6FD03F
:100C40001A4480EA010C400218BF5FEA41211ED01D
:100C50004FF0006343EA501043EA5111A0FB013109
:100C60000CF00040B1F5000F3EBF490041EAD371DE
:100C70005B0040EA010062F17F02FD2A1DD8B3F15A
:100C8000004F40EBC25008BF20F00100704790F0C9
:100C9000000F0CF0004C08BF49024CEA502040EA1B
:100CA00051207F3AC2BFD2F1FF0340EAC2507047E1
:100CB00040F400004FF00003013A5DDC12F1190F1F
:100CC000DCBF00F000407047C2F10002410021FA91
:100CD00002F1C2F1200200FA02FC5FEA310040F1A9
:100CE000000053EA4C0308BF20EADC70704792F022
:100CF000000F00F0004C02BF400010F4000F013A5A
:100D0000F9D040EA0C0093F0000F01F0004C02BF54
:100D1000490011F4000F013BF9D041EA0C018FE7C3
:100D20000CEAD15392EA0C0F18BF93EA0C0F0AD0C9
:100D300030F0004C18BF31F0004CD8D180EA0100EF
:100D400000F00040704790F0000F17BF90F0004F88
:100D5000084691F0000F91F0004F14D092EA0C0F6A
:100D600001D142020FD193EA0C0F03D14B0218BFFD
:100D7000084608D180EA010000F0004040F0FE4043
:100D800040F40000704740F0FE4040F440007047DF
:100D90004FF0FF0C1CEAD0521EBF1CEAD15392EA5E
:100DA0000C0F93EA0C0F69D0A2EB030280EA010C4E
:100DB00049024FEA402037D04FF0805343EA1111E7
:100DC00043EA10130CF000408B4238BF5B0042F145
:100DD0007D024FF4000C8B4224BF5B1A40EA0C00EA
:100DE000B3EB510F24BFA3EB510340EA5C00B3EB1C
:100DF000910F24BFA3EB910340EA9C00B3EBD10F0A
:100E000024BFA3EBD10340EADC001B0118BF5FEA5B
:100E10001C1CE0D1FD2A3FF650AF8B4240EBC25084
:100E200008BF20F0010070470CF0004C4CEA502045
:100E30007F32C2BFD2F1FF0340EAC250704740F494
:100E400000004FF00003013A37E792F0000F00F086
:100E5000004C02BF400010F4000F013AF9D040EA04
:100E60000C0093F0000F01F0004C02BF490011F498
:100E7000000F013BF9D041EA0C0195E70CEAD15390
:100E800092EA0C0F08D142027FF47DAF93EA0C0F77
:100E90007FF470AF084676E793EA0C0F04D14B025B
:100EA0003FF44CAF08466EE730F0004C18BF31F00D
:100EB000004CCAD130F000427FF45CAF31F0004307
:100EC0007FF43CAF5FE700BF844641EA000313F0C4
:100ED000030349D1403A23D30B6803604B68436056
:100EE0008B688360CB68C3600B6903614B694361A6
:100EF0008B698361CB69C3610B6A03624B6A43628E
:100F00008B6A8362CB6AC3620B6B03634B6B436375
:100F10008B6B8363CB6BC36340304031403ADBD291
:100F200030320BD30B6803604B6843608B6883607F
:100F3000CB68C36010301031103AF3D20C3205D3B5
:100F400051F8043B40F8043B043AF9D2043208D08B
:100F5000D2071CBF11F8013B00F8013B01D30B88FD
:100F600003806046704700BF082A13D38B07B1D0B7
:100F700010F00303AED0C3F10403D21ADB071CBF89
:100F800011F8013B00F8013BA4D331F8023B20F8F3
:100F9000023B9FE7043AD9D3013A11F8013B00F82C
:100FA000013BF9D20B7803704B7843708B788370D8
:100FB000604670474FEA410C7FEA6C5C02D150EA10
:100FC000013C0AD14FEA430C7FEA6C5C02D152EA41
:100FD000033C02D14FF0000070474FF00100704712
:100FE0000348044B834202D0034B03B118477047B8
:100FF0009C0700209C070020000000000548064BCD
:101000001B1AD90F01EBA301491002D0034B03B106
:10101000184770479C0700209C0700200000000034
:1010200010B5064C237843B9FFF7DAFF044B13B130
:101030000448AFF300800123237010BDA0070020F7
:10104000000000000CD4000808B5054B1BB1054991
:101050000548AFF30080BDE80840FFF7CFBF00BFF1
:1010600000000000A40700200CD4000810B50446BE
:1010700000228188006801F005FEA389ABB9A3684E
:101080001A68136A23F00A031362A38933BBA368A7
:101090001B681A6A1A620023A373A189A06803F06F
:1010A0001DFBA06803F06EF810BD042B08D0082BC0
:1010B0000DD0A3681A68136A23F400531362E4E79F
:1010C000A3681A68136A23F0A0031362DDE7A3681C
:1010D0001A68136A23F400731362D6E7042B06D050
:1010E000082B09D0A3681B681A6A1A62D3E7A368A1
:1010F0001B681A6A1A62CEE7A3681B681A6A1A622A
:10110000C9E70000837B13B1012B47D07047836888
:101110001A68526A02610122827300220284828963
:101120006AB91A68136A23F00A0313628389E3B960
:1011300083681A68136A43F0020313627047042A33
:1011400007D0082A0BD01A68136A23F400531362DD
:10115000ECE71A68136A23F0A0031362E6E71A6843
:10116000136A23F400731362E0E7042B08D0082B02
:101170000DD083681A68136A43F4005313627047F2
:1011800083681A68136A43F0200313627047836808
:101190001A68136A43F400731362704710B48168CD
:1011A0000B685B6A028CCC6804FB0233436100224B
:1011B000827302699B1A4FF4AA7202FB03F3284A56
:1011C0001268284CA4FB0242920CB3FBF2F35B08BA
:1011D0004C684FF47A72B2FBF4F2B3FBF2F3836122
:1011E00041F28832934201D9C36983618369C36143
:1011F000838963B90A68136A23F00A031362838937
:10120000DBB983681B681A6A1A6210BC7047042B2A
:1012100007D0082B0BD00A68136A23F4005313621B
:10122000EDE70A68136A23F0A0031362E7E70A6890
:10123000136A23F400731362E1E7042B06D0082B32
:1012400009D083681B681A6A1A62DEE783681B6824
:101250001A6A1A62D9E783681B681A6A1A62D4E7A5
:10126000B800002083DE1B4300B583B00E4B5A69E3
:1012700042F001025A615B6903F001030193019B93
:1012800000221146102001F02DFA102001F03AFA48
:1012900000221146112001F025FA112001F032FA46
:1012A00003B05DF804FB00BF001002402DE9F043DD
:1012B00089B004AD00240494059406940794224B4D
:1012C0009A6942F020029A619A6902F02002019222
:1012D000019A9A6942F004029A619A6902F0040242
:1012E0000292029A9A6942F008029A619B6903F09D
:1012F00008030393039BDFF8549022464FF40071D8
:10130000484601F0BFFC124E01220821304601F090
:10131000B9FC4FF4007304934FF00108CDF814802A
:101320000694022707972946484601F0A1FB0823A7
:101330000493CDF81480069407972946304601F0AF
:1013400097FB09B0BDE8F08300100240000801409F
:10135000000C014008B50B480B4B03600B4B43607E
:1013600000238360C3604FF4804202614361836164
:10137000C361036201F072FF00B908BD00F0BEF85E
:10138000FBE700BF1008002000540040801A060050
:1013900008B50B480B4B03600B4B43600023836085
:1013A000C3604FF48042026143618361C3610362A1
:1013B00001F054FF00B908BD00F0A0F8FBE700BF42
:1013C000BC07002000580040801A060010B588B005
:1013D000002304930593069307930368264A9342D8
:1013E00004D0264A934227D008B010BD244CA369EC
:1013F00043F00803A361A36903F008030093009B73
:101400004FF440730493122305930323079304A915
:101410001C4801F02DFB1C4A536843F0E06343F085
:1014200002035360E36943F40013E361E36903F4E7
:1014300000130193019BD7E7114CA36943F0080304
:10144000A361A36903F008030293029B4FF4406376
:101450000493122305930323079304A9094801F079
:1014600007FBE36943F48003E361E36903F480036A
:101470000393039BB8E700BF0054004000580040AE
:1014800000100240000C0140000001400F4B83425D
:1014900000D0704710B50E4B1B78322B0BD0322288
:1014A0000B490A4803F020FE0A4B1A68136823F020
:1014B0000403136010BD084C204604F0A5F882B266
:1014C0002146024803F0E2FAE9E700BF100F0020CE
:1014D00024090020CC0E00200000002008B5044B99
:1014E000834200D008BD0349034800F041FAF9E700
:1014F000F80D0020A0080020BC07002072B6FEE70F
:1015000010B590B006AC28220021204603F0A4FFBD
:1015100000230193029303930493059301220692FF
:101520004FF4803307930A9202220D920E934FF4E8
:10153000E0130F93204602F099FA78B90F23019334
:1015400002210291002303934FF4806204920593D9
:1015500001A802F0BDFC18B910B010BDFFF7CEFF16
:10156000FFF7CCFF80B582B001F052F8FFF7C8FF5B
:10157000FFF79CFEFFF778FE00F08CFEFFF7EAFE17
:1015800000F06AFFFFF704FF00F0D6FE00F0BCFB9E
:10159000354D284604F038F8344C82B229462046AE
:1015A00003F074FA32223249204603F09DFD314B9C
:1015B0001A68136823F0040313602F482F4B03604D
:1015C0004FF4007383802E4B836000238381FFF7E9
:1015D0004DFD2C4800F06CF80128FAD02A4802F0A2
:1015E000D1FD2A4EDFF8A890D6E9122329494846B2
:1015F00003F09AFE284DD6E914232849284603F023
:1016000093FEDFF89C80D6E916232649404603F076
:101610008BFE00F047FB244F002400943B464A46D3
:101620002146204600F0DFFC00943B462A4611216B
:10163000204600F0D8FC00943B464246212120463B
:1016400000F0D1FC00F038FBD6E9142317492846F6
:1016500003F06AFE284603F0D7FF82B2294603480A
:1016600003F030FABDE700BF14000020100F002087
:1016700024090020CC0E00200009002000080140B1
:10168000400E0020BC070020F80D0020A00800201C
:101690008C080020C0DA000878080020CCDA0008A6
:1016A00064080020D8DA000828D40008E4DA00082A
:1016B0002DE9F04186B0054664230293012301938E
:1016C0000DF1170200927522D02102F00FF89DF85B
:1016D0001730682B03D0012006B0BDE8F08100244C
:1016E0008DF816404FF06408CDF808800126019669
:1016F0000DF11607009733466B22D021284601F0E2
:1017000045FF07238DF81630CDF808800196009725
:1017100033461922D021284601F038FF8DF81640B3
:10172000CDF808800196009733461C22D021284628
:1017300001F02CFF8DF81660CDF808800196009717
:1017400033463822D021284601F020FF8DF816407C
:10175000CDF808800196009733461B22D0212846F9
:1017600001F014FF2046B7E72DE9F04792B082461A
:10177000CDE90C23D0E90834CDE904341A462346D8
:10178000DDE91A01FEF7C8FCDAE90645DDE91C23AC
:10179000FEF77AFE02460B4620462946FEF7BEFCBF
:1017A00006460F46CDE90667CAE90667DAE90A89FF
:1017B000DAE910120C461546DDE91C23CDE9004597
:1017C00020462946FEF760FE02460B46CDE902237D
:1017D000DAE90C6732463B46FEF79EFCDAE90E4535
:1017E00022462B46FEF798FCDAE90023FEF796FC2A
:1017F000DDE91C23FEF748FE02460B4640464946FB
:10180000FEF78CFC80468946CAE90A89DDE9022395
:1018100030463946FEF780FC0A460146CDE90812FB
:10182000CAE90C12DDE9022320462946FEF774FCC2
:1018300003460C46CDE90234CAE90E34DDE91C2327
:10184000DAE90201FEF720FE02460B46DDE900015F
:10185000FEF764FC05460E46CDE90A56CAE9105665
:10186000DAE9042340464946FEF758FC06460F468F
:1018700002460B4640464946FEF730FF04460D46F9
:10188000CDE90E4532463B46DDE90201FEF726FF73
:1018900006460F46CDE90067CDE91067DDE906672A
:1018A00032463B46DDE90C01FEF736FC02460B46AC
:1018B000CDE9062320462946FEF7E6FD02460B4603
:1018C00030463946FEF72AFC06460F46CAE9066747
:1018D000DDE90623DDE90001FEF7D6FD02460B46F1
:1018E000DDE90401FEF71AFCCAE9080122462B468D
:1018F00040464946FEF7C8FD02460B46404649466B
:10190000FEF70AFCCAE90A0122462B46DDE9084532
:1019100020462946FEF7B8FD02460B4620462946DA
:10192000FEF7FAFBCAE90C01DDE90023404649460F
:10193000FEF7AAFD02460B46DDE90201FEF7ECFBCD
:10194000CAE90E01DDE9002320462946FEF79CFD89
:1019500002460B46DDE90A01FEF7DEFBCAE910018B
:101960003046394612B0BDE8F087000000000000A4
:101970002DE9F04F8BB00C46642302930E230193A4
:1019800006AB009301233B22D02101F0AFFE9DF86E
:1019900018309DF8190040EA032000B220809DF81D
:1019A0001A309DF81B8048EA03280FFA88F8A4F83B
:1019B00002809DF81C309DF81D7047EA03273FB256
:1019C000A7809DF81E502D022DB29DF81F301D439B
:1019D0009DF820309DF821A04AEA032A0FFA8AFADE
:1019E000A4F820A09DF822309DF8239049EA03290D
:1019F0000FFA89F9A4F822909DF824309DF825600B
:101A000046EA032636B2A684FEF7D4FC00228E4BAB
:101A1000FEF73AFDC4E902014046FEF7CBFC002286
:101A2000894BFEF731FDC4E904013846FEF7C2FCDC
:101A30007FA3D3E90023FEF751FEC4E9060128463F
:101A4000FFF79EF88149FFF7A3F98149FEF7E4FF0C
:101A500020645046FEF7AEFC77A3D3E90023FEF7DF
:101A60003DFEC4E90A014846FEF7A4FC72A3D3E98F
:101A70000023FEF733FEC4E90C013046FEF79AFC62
:101A80006DA3D3E90023FEF729FE724BD3E90023AF
:101A9000FEF742FBC4E90E0100F0D8FD6E4D2B6845
:101AA000C01AFEF777FC00226C4BFEF717FE0646C5
:101AB0000F4600F0CBFD2860B4F900504FF000084D
:101AC0004FF080492846FEF775FC42464B460AF027
:101AD00013FA82468B46B4F90400FEF76BFC02460B
:101AE0000B46CDE9042342464B460AF005FA02466E
:101AF0000B4650465946FEF711FB0AF06BFA80463A
:101B0000894600220023FEF727FF00287AD1B4F986
:101B10000200FEF74FFC42464B46FEF7DFFD0AF09F
:101B200083FA47A3D3E90023FEF7AEFC82468B4637
:101B30006842FEF73FFCDDE904230AF0DBF940A32D
:101B4000D3E90023FEF7A0FC804689460022444BDF
:101B5000FEF70CFF30B10022424BD4E91401FEF72E
:101B600023FF78B900223F4B40464946FEF71CFF51
:101B700000284CD000223A4BD4E91401FEF7F6FEBF
:101B8000002844D0384BC3E90689C4E91489D4E954
:101B90001423104623F000410022324BFEF704FFCD
:101BA00030B1D4E90A23104603F10041C4E90A0127
:101BB000CDE90267D4E90A23CDE9002352465B460A
:101BC0002A48FFF7D1FDC4E9120132463B46D4E969
:101BD0000E01FEF759FC06460F46FEF7EFFE002801
:101BE000B8BF4042B0F57A7F01DD002600273246BB
:101BF0003B46D4E91601FEF791FAC4E916010BB091
:101C0000BDE8F08F4FF0000A4FF0000B90E7CDE9F0
:101C10000267D4E90C23CDE9002342464B46124823
:101C2000FFF7A2FDC4E91401B1E700BFAFF30080E4
:101C3000000000000029CC4000000000006060406F
:101C4000F8C1631ADCA54C400000103F0000AA4315
:101C5000B81E1242600900205809002000408F4041
:101C6000008056C0008056402800002070000020F0
:101C700000B583B002460B464FF0FF31009178214A
:101C8000024801F0C9FB03B05DF804FB1008002016
:101C900008B5034B587002211846FFF7E9FF08BD4D
:101CA000F009002008B54FF480620021014803F0DC
:101CB000D3FB08BDF409002038B5104B40221A7040
:101CC000002418E0A4F15000C0B2FFF7E1FF0020AB
:101CD000FFF7DEFF1020FFF7DBFF094D80220949E7
:101CE00001EBC4112846FFF7EFF88121681EFFF7CA
:101CF000BFFF0134E4B2072CE4D938BD6C090020E1
:101D00006D090020F409002008B5AE20FFF7C0FFE0
:101D10002020FFF7BDFF1020FFF7BAFFB020FFF72C
:101D2000B7FFC820FFF7B4FF0020FFF7B1FF102076
:101D3000FFF7AEFF4020FFF7ABFF8120FFF7A8FFC2
:101D4000DF20FFF7A5FFA120FFF7A2FFA620FFF7E6
:101D50009FFFA820FFF79CFF3F20FFF799FFA420DB
:101D6000FFF796FFD320FFF793FF0020FFF790FFC8
:101D7000D520FFF78DFFF020FFF78AFFD920FFF76E
:101D800087FF2220FFF784FFDA20FFF781FF122070
:101D9000FFF77EFFDB20FFF77BFF2020FFF778FFB8
:101DA0008D20FFF775FF1420FFF772FFFFF77AFF12
:101DB000FFF782FFAF20FFF76BFF08BD30B59DF83E
:101DC000104007282FD811F0800F2CD10CB1D2432E
:101DD000D2B29DF80C400134FF2505FA04F464B238
:101DE00052B244EA020CC3F1080E45FA0EF54CEA71
:101DF000050C5FFA8CFC0C4D85F800C00B4B03EB17
:101E0000C010435C0CEA030C00F801C022EA040392
:101E10006FF0FF0242FA0EF21340DBB22B704CEA75
:101E2000030C00F801C030BD68090020F40900204F
:101E30002DE9F04383B0064690461C469DF8289055
:101E4000CF0801F007052B44082B1EDDAA40CDF872
:101E50000490072300932B46D2B201463846FFF781
:101E6000ADFFC5F1080248FA02F22C44E4B2CDF805
:101E70000490093CE4B200940023D2B23146781CAD
:101E8000FFF79CFF03B0BDE8F083AA402C44E4B206
:101E9000CDF80490013CE4B200942B46D2B2014646
:101EA0003846FFF78BFFEDE72DE9F04182B006469B
:101EB00015469846CF0801F00704A2400193072376
:101EC00000932346D2B201463846FFF777FF14B994
:101ED00002B0BDE8F081C4F1080345FA03F2CDF881
:101EE0000480013CE4B200940023D2B23146781C55
:101EF000FFF764FFECE72DE9F04F85B08046894697
:101F000092461E469DF838309DF83CB0DF0803F03D
:101F1000070202920025039312E006FB045209EB2C
:101F2000C40105EB08005B461AF80220C9B2C0B232
:101F3000FFF7BAFF0134E4B2BC42EED30135EDB293
:101F4000B54201D20024F7E7039B029ABAB106FB1F
:101F500007F700241D4610E03B191AF8032025F06E
:101F60000701494404EB0800CDF800B0029BC9B258
:101F7000C0B2FFF75DFF0134E4B2B442ECD305B068
:101F8000BDE8F08F70B582B05D68203A1C7804F12E
:101F9000070C4FEAEC0C5B7803FB0CFC9DF8186017
:101FA000019600940CFB0252FFF7A5FF02B070BD32
:101FB000037890F90020002A0DDA03F0E002C02A2D
:101FC0000BD003F0F002E02A09D003F0F803F02B65
:101FD00007D000207047012070470220704703207F
:101FE0007047042070472DE9F04F87B003900491AB
:101FF00093461E469DF84030059333780733DB1037
:1020000096F8019003FB09F95FFA89F909F10409CF
:102010005FFA89F94FF0000A15E03378059A0192CA
:10202000009373782A1D0499039C2046FFF763FFF1
:1020300073782344DBB20393C2441FFA8AFA012364
:1020400000E00023E3B10BEB0A071BF80A30002B7A
:102050003ED03846FFF7ACFF8046002838D0002439
:10206000337AA342EDD9756809FB045542462946E7
:10207000384603F0C3F90028CFD00134E4B2EFE7CB
:10208000B8F1010F11D0059B0093F3682022049949
:10209000039C2046FFF776FFF3685B782344DBB2AE
:1020A0000393D0441FFA88FACDE71BF80A20059B5A
:1020B0000093F3680499039C2046FFF763FFF368DD
:1020C0005B782344DBB20393C2441FFA8AFABAE76F
:1020D00007B0BDE8F08F000082B00E4B9A6942F065
:1020E00001029A619A6902F001020092009ADA698B
:1020F00042F08052DA61DB6903F080530193019B67
:10210000054A536823F0E06343F00073536002B064
:10211000704700BF0010024000000140FEE7FEE7EC
:10212000FEE7FEE7FEE770477047704708B500F02E
:1021300081FA08BD08B5024800F0F8FB08BD00BFF1
:10214000CC0E002008B5024800F0F0FB08BD00BF2F
:10215000880E002008B5094B9B681B681A6912F0AD
:10216000010F07D0DB6813F0010F03D0034A138C73
:1021700001331384024802F03CF808BD0009002036
:10218000400E002008B5094B1B681A6912F0020FB7
:1021900003D0DB6813F0020F03D1044802F029F8E2
:1021A00008BD0348FEF7AEFFF7E700BF400E002072
:1021B0000009002008B5024802F01BF808BD00BF66
:1021C000F80D002008B5024802F09EFD08BD00BFD2
:1021D000100F00200120704708B503F0DFF9162327
:1021E00003604FF0FF3008BD08B54FF0FF31FFF737
:1021F000F3FFFEE770B50C461646002506E0AFF388
:102200000080214601F8010B01350C46B542F6DB92
:10221000304670BD70B50C461646002504E014F833
:10222000010BAFF300800135B542F8DB304670BDDD
:102230004FF0FF3070474FF400534B600020704761
:10224000012070470020704710B503460C4A0D4925
:102250000D48006840B10C4800680344521A93428C
:1022600006D8094A136010BD0748084C0460F2E71D
:1022700003F094F90C2303604FF0FF30F3E700BF45
:102280000050002000040000F40D00207012002017
:102290007047000000B58BB00023069307930893A6
:1022A00009930493059300930193029303932048A9
:1022B000204A02604722426083604FF6FF72C2608C
:1022C00003614361836102F085F808BB4FF48053DA
:1022D000069306A9164802F073F9E0B9144802F013
:1022E000A5F8D8B900230493059304A9104802F077
:1022F000ADFAB0B900220092012301930292039239
:1023000069460B4802F0EAF870B90BB05DF804FBBF
:10231000FFF7F4F8DAE7FFF7F1F8DFE7FFF7EEF899
:10232000E0E7FFF7EBF8E5E7FFF7E8F8EDE700BFD8
:10233000400E0020002C014000B587B0002302931E
:10234000039304930593009301931548154A026083
:1023500041F61F42426083606322C2600361836171
:1023600002F038F890B94FF48053029302A90C4858
:1023700002F026F968B900230093019369460848E2
:1023800002F064FA40B907B05DF804FBFFF7B6F855
:10239000E9E7FFF7B3F8EEE7FFF7B0F8F3E700BFC0
:1023A000F80D00200008004000B589B00023049318
:1023B0000593069307930368234A934205D0234A63
:1023C00093422DD009B05DF804FB214B9A6942F489
:1023D00000629A619A6902F400620192019A9A6914
:1023E00042F004029A619B6903F004030293029B8A
:1023F0004FF48073049304A9164800F039FB0022BF
:102400001146192000F06EF9192000F07BF9002226
:1024100011461B2000F066F91B2000F073F9D1E78C
:102420000B4BDA6942F00402DA61DB6903F0040362
:102430000393039B002211461E2000F053F91E2037
:1024400000F060F9BEE700BF002C0140000800402A
:10245000001002400008014008B50A480A4B03601A
:102460004FF41653436000238360C36003610C2262
:1024700042618361C36102F0D9FA00B908BDFFF778
:102480003DF8FBE7100F002000440040F0B587B096
:10249000002302930393049305930268304B9A42FE
:1024A00001D007B0F0BD044603F5E633DA6942F423
:1024B0000032DA61DA6902F400320092009A9A6915
:1024C00042F004029A619B6903F004030193019BAB
:1024D00004230293022303930323059302AF214EA7
:1024E0003946304600F0C4FA0823029300250395CC
:1024F00004953946304600F0BBFA1B481B4B03607D
:10250000456085608023C360056145618561C56163
:1025100000F030F9F0B9144BE3635C621448154BDA
:10252000036010234360002383608022C260036144
:1025300043618361C36100F01DF970B90C4BA36363
:102540005C6200221146262000F0CCF8262000F024
:10255000D9F8A6E7FEF7D2FFDDE7FEF7CFFFEDE7FC
:102560000044004000080140CC0E00206C000240F6
:10257000880E002080000240FFF78AFE0B480C49BD
:102580000C4A002302E0D458C4500433C4188C42CF
:10259000F9D3094A094C002301E013600432A24236
:1025A000FBD303F001F8FEF7DDFF704700000020C9
:1025B0009C070020A4DF0008A00700207012002064
:1025C000FEE7000010B504460E4B1A784FF47A73FC
:1025D000B3FBF2F30C4A1068B0FBF3F000F0A0F884
:1025E00068B90F2C01D901200AE0002221464FF0E2
:1025F000FF3000F077F8054B1C60002000E0012060
:1026000010BD00BFBC000020B8000020C0000020AA
:1026100008B5074A136843F010031360032000F065
:102620004FF80F20FFF7CEFFFFF756FD002008BD43
:1026300000200240034A1168034B1B780B441360CF
:10264000704700BF580F0020BC000020014B1868E5
:10265000704700BF580F0020002808DB0901C9B2ED
:1026600000F1604000F5614080F80013704700F011
:102670000F000901C9B2014B1954704714ED00E075
:1026800000B500F00700C0F1070CBCF1040F28BF33
:102690004FF0040C031D062B0FD9C31E4FF0FF3E55
:1026A0000EFA0CF021EA000199400EFA03FE22EA2C
:1026B0000E0241EA02005DF804FB0023EEE7000091
:1026C000074AD36823F4E0631B041B0C000200F4E8
:1026D000E060034343F0BF6343F40033D3607047CB
:1026E00000ED00E010B50446054BD868C0F30220A9
:1026F000FFF7C6FF01462046FFF7AEFF10BD00BF43
:1027000000ED00E0002807DB00F01F024009012374
:102710009340024A42F82030704700BF00E100E0D9
:102720000138B0F1807F0BD24FF0E0235861054AA9
:10273000F02182F823100020986107221A61704767
:102740000120704700ED00E030B40124056CAC407E
:10275000C56B6C60046863604368102B05D0036828
:1027600099600368DA6030BC704703689A60036858
:10277000D960F8E750B310B402460168144B0B441B
:102780001448A0FB03031B099B001364124BD36383
:10279000022382F8213008686FF30D1053689468A3
:1027A0002343D4682343146923435469234394691E
:1027B0002343D469234303430B6000209063012328
:1027C00082F8213082F8200010BC70470120704749
:1027D000F8FFFDBFCDCCCCCC0000024038B504469C
:1027E00090F82000012831D0012084F8200094F8CE
:1027F0002100012804D0002384F82030022038BDB5
:10280000022084F821000020A0632568286820F0B9
:10281000010028602046FFF797FFE36A5BB122685A
:10282000136843F00E0313602268136843F001033A
:1028300013600020E3E72268136823F004031360A9
:102840002268136843F00A031360EDE70220D6E71D
:10285000034690F82120022A06D004228263002237
:1028600080F820200120704701680A6822F00E02DB
:102870000A6001680A6822F001020A60026CC06BFB
:10288000012101FA02F2426083F82110002083F84E
:102890002000704708B590F82130022B03D00423A4
:1028A0008363012008BD0268136823F00E031360E0
:1028B0000268136823F0010313600368194A934206
:1028C00014D0143293421FD0143293421ED01432CB
:1028D00093421ED0143293421ED01432934202D03F
:1028E0004FF0807203E04FF4801200E001220E4BA3
:1028F0005A60012380F82130002380F82030436B98
:102900006BB198470020CDE71022F0E74FF48072BA
:10291000EDE74FF48052EAE74FF48032E7E700201A
:10292000C0E700BF080002400000024038B5C36B9A
:102930001A6804682568016C04238B40134235D063
:1029400015F0040F32D0236813F0200F03D1236851
:1029500023F0040323600368434A934214D01432E3
:10296000934218D01432934217D01432934217D0A6
:102970001432934217D01432934202D04FF0806247
:1029800003E04FF4800200E00422384B5A60C36A2F
:1029900003B1984738BD4022F7E74FF48062F4E76F
:1029A0004FF48042F1E74FF48022EEE702238B40A0
:1029B00013423CD015F0020F39D0236813F0200FDA
:1029C00006D1236823F00A032360012380F8213015
:1029D0000368254A934214D0143293421CD0143217
:1029E00093421BD0143293421BD0143293421BD01B
:1029F0001432934202D04FF0007203E04FF4001201
:102A000000E00222194B5A60002380F82030836ACC
:102A1000002BBFD09847BDE72022F3E74FF40072A8
:102A2000F0E74FF40052EDE74FF40032EAE70823F5
:102A30008B401342AED015F0080FABD0236823F0C3
:102A40000E032360026CC16B012303FA02F24A6099
:102A5000836380F82130002380F82030036B002B43
:102A600098D0984796E700BF080002400000024057
:102A700070B582B00024A4469EE07C4DAB4214D0D9
:102A80000CD8A5F58015AB420FD005F57025AB42EB
:102A90000BD0A5F58015AB421FD106E0744DAB42BB
:102AA00003D005F58035AB4217D18B68A3B1012B5C
:102AB0000DD04261082410E0CC680EE0CC680434EC
:102AC0000BE0CC68083408E0CC680C3405E0026107
:102AD000082402E0002400E00424BEF1FF0F37D8F0
:102AE00006464FEA8C0233680F25954023EA05031A
:102AF00004FA02F2134333604B6813F0805F59D03D
:102B00005C4B9A6942F001029A619B6903F00103F0
:102B10000193019B4FEA9C02951C574B53F825608B
:102B20000CF00305AD000F23AB4026EA0306534B20
:102B3000984214D003F58063984279D003F58063FE
:102B4000984277D003F58063984206D0042307E0CB
:102B5000061DACF108029200C5E7032300E0002344
:102B6000AB4033430232444D45F822304B6813F4F6
:102B7000801F61D0424A936843EA0E0393604B681A
:102B800013F4001F5ED03E4AD36843EA0E03D360BD
:102B90004B6813F4003F5BD0394A536843EA0E0395
:102BA00053604B6813F4803F58D0354A136843EAAA
:102BB0000E0313600CF1010C0B6833FA0CF253D0C6
:102BC000012202FA0CF203EA020E32EA0303F1D107
:102BD0004B68122B3FF651AF122B3FF67EAF01A58B
:102BE00055F823F0AB2A0008B92A0008C32A0008C8
:102BF000D52A0008DB2A0008DB2A0008DB2A0008A7
:102C0000DB2A0008DB2A0008DB2A0008DB2A000890
:102C1000DB2A0008DB2A0008DB2A0008DB2A000880
:102C2000DB2A0008DB2A0008BD2A0008C92A0008A0
:102C3000012395E7022393E7114A936823EA0E03E1
:102C400093609CE70E4AD36823EA0E03D3609FE7A4
:102C50000B4A536823EA0E035360A2E7084A13683D
:102C600023EA0E031360A5E702B070BD0000221036
:102C70000000311000100240000001400008014037
:102C8000000401400AB10161704709040161704705
:102C900003685A6912F4806F01D1002070476FF405
:102CA00080625A6100230363202280F83D2080F86F
:102CB0003E30026C42F00402026480F83C30012095
:102CC00070472DE9F04106460C46174698463BE012
:102CD000FFF7BCFC069BC01A404502D8B8F1000FB4
:102CE00032D1012D18D033689B6924EA03039BB2CB
:102CF000B3FA83F35B099F4226D10023336320227A
:102D000086F83D2086F83E30326C42F02002326474
:102D100086F83C30012027E033685B6924EA03032E
:102D20009BB2B3FA83F35B09E5E733685B6924EA96
:102D3000030C1FFA8CFCBCFA8CFC4FEA5C1C674548
:102D400011D1B8F1FF3FC3D1C4F30745012DECD039
:102D500033689B6924EA030C1FFA8CFCBCFA8CFCD8
:102D60004FEA5C1CEBE70020BDE8F0812DE9F84359
:102D700005460E469046994653E01A6842F40072A2
:102D80001A602B686FF480625A6100232B63202243
:102D900085F83D2085F83E302A6C42F004022A6412
:102DA00085F83C3001204AE0FFF750FCA0EB090019
:102DB000404502D8B8F1000F33D1012F17D02B684E
:102DC0009B6926EA03039BB2003B18BF012343B370
:102DD00000232B63202285F83D2085F83E302A6CA5
:102DE00042F020022A6485F83C30012027E02B685D
:102DF0005B6926EA03039BB2003B18BF0123E6E7A9
:102E00002B689C6926EA0404A4B2003C18BF012484
:102E1000A4B12B685A6912F4806FAED1B8F1FF3FAC
:102E2000C2D1C6F30747012FEAD12B685C6926EAB5
:102E30000404A4B2003C18BF0124E9E70020BDE867
:102E4000F8830000F0B583B004460D4616461F46D1
:102E5000C36A082B0DD0012B0BD013F5803F08D08F
:102E6000036B122B0AD10268136843F4807313605A
:102E700004E02268136843F48073136000973346BC
:102E800000224FF001112046FFF71BFF80B9236994
:102E9000B3F5804F16D1236805F0FE051D613B4652
:102EA000324613492046FFF761FFF8B903B0F0BD81
:102EB00023681B6813F4807F02D04FF400732364EF
:102EC0000320F3E7EB11226803F0060343F0F0035D
:102ED00013613B46324607492046FFF747FF18B9C2
:102EE0002368EDB21D61DAE70120DFE70120DDE7AD
:102EF000020001000800010070B504460D461646A8
:102F000023685B6913F0800F21D12046FFF7C0FED4
:102F1000F8B9B5F1FF3FF3D0FFF798FB801BA8424B
:102F200001D8002DECD123685B6913F0800FE7D145
:102F300000232363202284F83D2084F83E30226C55
:102F400042F02002226484F83C30012000E000209E
:102F500070BD0120FCE700002DE9F04385B0044678
:102F60000D4691461F46DDF830800D9E03681968B6
:102F700041F4807119600096434600224FF0011120
:102F8000FFF79FFE60B9236805F0FE051D6133461B
:102F9000424626492046FFF7E9FE68B1012008E0D5
:102FA00023681B6813F4807F02D04FF400732364FE
:102FB000032005B0BDE8F0830023039323685A691A
:102FC00003929B690393039B324641462046FFF7D9
:102FD00093FF30B9012F0FD123685FFA89F61E6184
:102FE000E7E7236C042B01D00120E2E72268136895
:102FF00043F400731360F7E723684FEA19221A615C
:10300000324641462046FFF777FF20B923685FFA32
:1030100089F61E61CDE7236C042B01D00120C8E79F
:103020002268136843F400731360F7E7020001009D
:103030002DE9F04784B004460D46164699460C9F8C
:10304000DDF834800268136843F48063136003681A
:10305000196841F480711960CDF800803B46002268
:103060004FF00111FFF72DFE70B95FFA85FA236862
:1030700005F0FE051D6143463A4641492046FFF7EB
:1030800075FE68B1012008E023681B6813F4807F97
:1030900002D04FF400732364032004B0BDE8F0872E
:1030A0000023039323685A6903929B690393039B4C
:1030B000424639462046FFF71FFF80B9B9F1010F9C
:1030C00018D12368F6B21E61424639462046FFF702
:1030D00013FF68B3236C042B24D00120DDE7236C9D
:1030E000042B01D00120D8E72268136843F4007351
:1030F0001360F7E72368320A1A61424639462046D0
:10310000FFF7FAFE18B92368F6B21E61DCE7236CFC
:10311000042B01D00120C0E72268136843F4007338
:103120001360F7E72268136843F400731360D4E771
:103130002268136843F480731360CDF800803B4627
:1031400000224FF001112046FFF7BBFD68B922684D
:103150004AF00103136143463A4609492046FFF706
:1031600005FE002899D0012097E723681B6813F417
:10317000807F02D04FF40073236403208DE700BFEB
:103180000200010070B504460D46164623685B69CF
:1031900013F0040F21D12046FFF77AFDF8B9B5F1FD
:1031A000FF3FF3D0FFF752FA801BA84201D8002D51
:1031B000ECD123685B6913F0040FE7D1002323638C
:1031C000202284F83D2084F83E30226C42F0200218
:1031D000226484F83C30012000E0002070BD012012
:1031E000FCE770B504460D46164614E06FF0100279
:1031F0005A6100232363202284F83D2084F83E3066
:10320000226C226484F83C30012025E023685B694D
:1032100013F0400F10D02368586910F0400F1AD1F6
:10322000586910F0100FE1D1FFF710FA801BA84287
:10323000ECD8002DEFD1E9E700232363202284F8A6
:103240003D2084F83E30226C42F02002226484F853
:103250003C30012000E0002070BD0000002800F09C
:10326000CC8070B5044690F83D30002B77D02423F5
:1032700084F83D302268136823F00103136022684C
:10328000136843F4004313602268136823F4004377
:10329000136000F0D9FE62685A4B9A4264D85A4BC8
:1032A00098428CBF00230123002B40F0A88057498F
:1032B000A1FB00318B0C25686A6822F03F0242EACC
:1032C00091426A6021680A6A22F03F0266684D4DA9
:1032D000AE424FD8013313430B622168CA6922F40E
:1032E0004F4222F0FF026568464B9D424CD8431E78
:1032F0006D00B3FBF5F3013340F6FC70034278D068
:10330000C3F30B031A43CA6121680B6823F0C0039F
:10331000E269206A024313430B6021688B6823F43F
:10332000034323F0FF032269E068024313438B60E9
:103330002168CB6823F0FF036269A069024313434D
:10334000CB602268136843F00103136000202064FF
:10335000202384F83D30206384F83E0070BD80F85F
:103360003C30FEF733F882E7294B98428CBF0023AC
:10337000012399E74FF4967505FB03F3254DA5FB53
:1033800003539B090133A6E7A668BEB9431E05EBAC
:10339000450CB3FBFCF30133C3F30B03B3FA83F324
:1033A0005B0943BBC6B9431E05EB4505B3FBF5F30B
:1033B0000133C3F30B0343F40043A3E7431E05EBC0
:1033C000850C0CEB8C0CB3FBFCF30133C3F30B0348
:1033D000B3FA83F35B09E4E7431E05EB850505EBD0
:1033E0008505B3FBF5F30133C3F30B0343F440430B
:1033F00088E7042386E7012384E701207047012042
:10340000ACE700BFA08601007F841E0083DE1B4363
:10341000FF083D00D34D62102DE9F04385B004460E
:103420000F46904699460C9EFFF710F994F83D1010
:10343000202904D00227384605B0BDE8F0830546B0
:103440000090192301224F492046FFF73AFC00283B
:1034500040F0928094F83C30012B00F08F800123E3
:1034600084F83C3023681A6812F0010F03D11A68FF
:1034700042F001021A602268136823F400631360AB
:10348000212384F83D30102384F83E300023236448
:10349000C4F82480A4F82A90638D23853A4BE36214
:1034A0002B46324639462046FFF7CCFC074600281B
:1034B00066D10023039323685A6903929B6903939F
:1034C000039B11E0236C042B01D00127B3E7226892
:1034D000136843F400731360F7E72A463146204629
:1034E000FFF750FE00282ED1238D002B36D02A4620
:1034F00031462046FFF700FD0028E3D1626A2368C9
:1035000012781A61606A431C6362618D89B2013965
:1035100089B26185238D013B9BB223852268516965
:1035200011F0040FD9D0002BD7D043781361636A10
:1035300001336362638D9BB2013B9BB26385238D34
:10354000013B2385C9E7236C042B01D0012772E7D7
:103550002268136843F400731360F7E72268136866
:1035600043F400731360202384F83D30002384F873
:103570003E3084F83C305EE702275CE702275AE7DA
:10358000012758E7020010000000FFFF2DE9F0437B
:1035900083B004460F46904699460C9EFFF756F8B6
:1035A00094F83D20202A03D0022003B0BDE8F08328
:1035B00005460090192301224A492046FFF781FB66
:1035C000002840F0898094F83C30012B00F0868080
:1035D000012384F83C3023681A6812F0010F03D1EC
:1035E0001A6842F001021A602268136823F400632B
:1035F0001360212384F83D30402384F83E300023BB
:1036000023640A9B6362BDF82C306385638D238538
:10361000354BE362019500964B46424639462046BB
:10362000FFF79AFC00285BD1238D002B35D02A466A
:1036300031462046FFF760FC20BB626A236812789F
:103640001A61626A531C6362218D013989B2218536
:10365000638D9BB2013B9BB263852368586910F070
:10366000040FE1D00029DFD052781A61636A013378
:103670006362238D013B2385638D9BB2013B9BB22B
:103680006385D1E7236C042B01D001208DE72268EC
:10369000136843F400731360F7E72A463146204667
:1036A000FFF770FD50B1236C042B01D001207CE7A3
:1036B0002268136843F400731360F7E72268136805
:1036C00043F400731360202384F83D30002384F812
:1036D0003E3084F83C3068E7022066E7022064E769
:1036E000012062E7020010000000FFFF2DE9F04317
:1036F00089B004460F4690469946129E00230793D0
:10370000FEF7A4FF94F83D30202B04D00227384662
:1037100009B0BDE8F08305460090192301229749BE
:103720002046FFF7CEFA002840F07E8194F83C3026
:10373000012B00F07B81012384F83C3023681A6858
:1037400012F0010F03D11A6842F001021A602268D8
:10375000136823F400631360222384F83D30402370
:1037600084F83E3000232364109B6362BDF844302C
:103770006385638D2385824BE362019500964B46FA
:10378000424639462046FFF753FC0746002840F0E2
:103790004F81238D5BB9039323685A6903929A6919
:1037A0000392039A1A6842F400721A6076E0012BC1
:1037B0000FD0022B21D02268136843F4806313607A
:1037C0000023069323685A6906929B690693069B19
:1037D00064E02268136823F48063136072B60023E8
:1037E000049323685A6904929A690492049A1A68A5
:1037F00042F400721A6062B650E02268136843F423
:103800000063136072B60023059323685A6905921A
:103810009A690592059A1A6822F480621A6062B663
:103820003CE02A4631462046FFF7DBFC002840F00A
:10383000018123681A69636A1A70636A01336362DB
:10384000238D013B2385638D9BB2013B9BB2638536
:1038500024E072B62268136843F40073136023688F
:103860001A69636A1A70636A01336362238D013BCC
:103870002385638D9BB2013B9BB2638562B623684F
:103880001A69636A1A70636A01336362238D013BAC
:103890002385638D9BB2013B9BB26385238D002BF7
:1038A00000F0B980032B00F28280012BB9D0022BEB
:1038B0000AD100953346002232492046FFF701FA2B
:1038C0000028C6D0012722E70095334600222D4963
:1038D0002046FFF7F6F9002840F0AE802268136812
:1038E00023F48063136072B623681A69636A1A70DE
:1038F000636A01336362238D013B2385638D9BB231
:10390000013B9BB26385204B1B68DB081F4AA2FB6F
:1039100003231B0A03EB8303C3EBC3030793079B38
:10392000013B0793079B002B32D023685A6912F0A2
:10393000040FF4D01A6842F400721A6023681A69FE
:10394000636A1A70636A01336362238D013B2385C6
:10395000638D9BB2013B9BB2638562B623681A6993
:10396000636A1A70636A01336362238D013B2385A6
:10397000638D9BB2013B9BB263858FE70200100011
:103980000000FFFF04000100B800002089B5F81412
:103990002363202284F83D2084F83E30226C42F0DC
:1039A0002002226462B684F83C300127AFE62A4642
:1039B00031462046FFF715FC00283FD123681A69DD
:1039C000636A1A70636A01336362228D013A92B2AC
:1039D0002285638D9BB2013B9BB263852368596945
:1039E00011F0040F3FF45AAF032A0FD023681A696D
:1039F000636A1A70636A01336362238D013B238516
:103A0000638D9BB2013B9BB2638547E71A6822F442
:103A100080621A60EAE7202384F83D30002384F8AE
:103A20003E3084F83C3072E6022770E602276EE6EC
:103A300001276CE601276AE6012768E6012766E6AA
:103A400082B0084B1B68084AA2FB03235B0A00FBF9
:103A500003F3019300BF019B5A1E0192002BF9D181
:103A600002B07047B8000020D34D6210002800F06B
:103A7000F18170B582B00446036813F0010F2CD0B9
:103A8000994B5B6803F00C03042B1DD0964B5B68CD
:103A900003F00C03082B12D06368B3F5803F41D0CC
:103AA000002B55D103F1804303F504331A6822F447
:103AB00080321A601A6822F480221A6037E08A4B3A
:103AC0005B6813F4803FE7D0874B1B6813F4003F1B
:103AD00003D06368002B00F0BF81236813F0020F4E
:103AE00075D0814B5B6813F00C0F5FD07E4B5B6829
:103AF00003F00C03082B54D02369002B00F08A80BC
:103B00007A4B01221A60FEF7A1FD0546764B1B6831
:103B100013F0020F75D1FEF799FD401B0228F5D96D
:103B200003209EE1704A136843F480331360636896
:103B300043B3FEF78BFD05466B4B1B6813F4003F48
:103B4000CBD1FEF783FD401B6428F5D9032088E123
:103B5000B3F5A02F09D0644B1A6822F480321A60A2
:103B60001A6822F480221A60E1E703F18043A3F58A
:103B70003C331A6842F480221A601A6842F4803298
:103B80001A60D4E7FEF762FD0546574B1B6813F435
:103B9000003FA2D0FEF75AFD401B6428F5D9032050
:103BA0005FE1514B5B6813F4803FA5D14E4B1B681E
:103BB00013F0020F03D02369012B40F04F814A4AD2
:103BC000136823F0F803616943EAC10313602368B3
:103BD00013F0080F33D0A369002B5CD0434B0122B4
:103BE000C3F88024FEF732FD05463F4B5B6A13F0B5
:103BF000020F21D1FEF72AFD401B0228F5D9032030
:103C00002FE1394A136823F0F803616943EAC103DD
:103C10001360DCE7354B00221A60FEF717FD0546FE
:103C2000314B1B6813F0020FD1D0FEF70FFD401B84
:103C30000228F5D9032014E10120FFF701FF2368D2
:103C400013F0040F00F09680274BDB6913F0805FC0
:103C500034D1254BDA6942F08052DA61DB6903F036
:103C600080530193019B0125214B1B6813F4807F36
:103C700026D0E368012B3DD0002B53D103F18043C4
:103C800003F504331A6A22F001021A621A6A22F05A
:103C900004021A6233E0154B0022C3F88024FEF7B9
:103CA000D5FC0546104B5B6A13F0020FC7D0FEF738
:103CB000CDFC401B0228F5D90320D2E00025D3E734
:103CC0000B4A136843F480731360FEF7BFFC06468B
:103CD000074B1B6813F4807FCBD1FEF7B7FC801B2A
:103CE0006428F5D90320BCE00010024000004242E5
:103CF000007000405F4A136A43F001031362E368F7
:103D000033B3FEF7A3FC06465A4B1B6A13F0020FAF
:103D10002FD1FEF79BFC801B41F288339842F3D9E8
:103D200003209EE0052B09D0524B1A6A22F00102B3
:103D30001A621A6A22F004021A62E0E74D4B1A6A0C
:103D400042F004021A621A6A42F001021A62D6E7CD
:103D5000FEF77CFC0646474B1B6A13F0020F08D0A7
:103D6000FEF774FC801B41F288339842F3D903209C
:103D700077E0E5B9E369002B72D03E4A526802F061
:103D80000C02082A56D0022B17D03B4B00221A6691
:103D9000FEF75CFC0446374B1B6813F0007F47D0EE
:103DA000FEF754FC001B0228F5D9032059E0314AE4
:103DB000D36923F08053D361DCE72F4B00221A66CE
:103DC000FEF744FC05462B4B1B6813F0007F06D022
:103DD000FEF73CFC401B0228F5D9032041E0236A92
:103DE000B3F5803F1AD023494B6823F47413226A39
:103DF000606A024313434B601F4B01221A66FEF7B1
:103E000025FC04461B4B1B6813F0007F0ED1FEF708
:103E10001DFC001B0228F5D9032022E0154A536837
:103E200023F40033A1680B435360DCE7002018E063
:103E3000002016E0012B16D00E4B5B6803F4803196
:103E4000226A914211D103F47013626A93420ED137
:103E5000002006E001207047012002E0012000E080
:103E6000002002B070BD0120FBE70120F9E701202E
:103E7000F7E700BF00100240000042420F4B5B68B2
:103E800003F00C02082A01D00D487047C3F38342A7
:103E90000C49885C13F4803F0BD0084B5B68C3F37C
:103EA0004043094AD35C064A02FB00F0B0FBF3F042
:103EB0007047064B03FB00F0704700BF0010024044
:103EC00000127A00B8DC0008B4DC000800093D00EC
:103ED000002800F0A08070B50D460446524B1B68C8
:103EE00003F007038B420BD24F4A136823F00703FA
:103EF0000B431360136803F007038B4240F08D807F
:103F0000236813F0020F17D013F0040F04D0474AB0
:103F1000536843F4E0635360236813F0080F04D040
:103F2000424A536843F460535360404A536823F055
:103F3000F003A1680B435360236813F0010F31D0E5
:103F40006368012B20D0022B25D0384A126812F06A
:103F5000020F64D035494A6822F0030213434B60D4
:103F6000FEF774FB0646314B5B6803F00C03626896
:103F7000B3EB820F16D0FEF769FB801B41F288334A
:103F80009842F0D9032045E0284A126812F4003F15
:103F9000E0D101203EE0254A126812F0007FD9D11D
:103FA000012037E0204B1B6803F00703AB420AD91E
:103FB0001D4A136823F007032B431360136803F0B3
:103FC0000703AB422DD1236813F0040F06D0174A24
:103FD000536823F4E063E1680B435360236813F0F4
:103FE000080F07D0114A536823F46053216943EA4C
:103FF000C1035360FFF742FF0C4B5B68C3F303132D
:104000000B4AD35CD8400B4B18600B4B1868FEF77B
:10401000D9FA002070BD012070470120FAE7012085
:10402000F8E70120F6E700BF002002400010024040
:10403000A4DC0008B8000020C0000020014B186874
:10404000704700BFB800002008B5FFF7F7FF044B2A
:104050005B68C3F30223034AD35CD84008BD00BFAA
:10406000001002409CDC000808B5FFF7E7FF044B96
:104070005B68C3F3C223034AD35CD84008BD00BFCA
:10408000001002409CDC000810B4036A046A24F0AB
:1040900001040462846924F0F00C4CEA021223F05B
:1040A0000A030B438261036210BC704730B4056A97
:1040B000046A24F010040462846924F4407C4CEA0D
:1040C000022C2CF4704C1B039BB243EA0C0325F02A
:1040D000A005090101F0A00129438361016230BC00
:1040E000704710B4036A046A24F0100404628469FF
:1040F00024F4704C4CEA023223F0A00343EA01138B
:104100008261036210BC704730B4056A046A24F40B
:1041100080740462C46924F0030C4CEA020C2CF095
:10412000F00C1B01DBB243EA0C0325F40075090215
:1041300001F400712943C361016230BC704730B49F
:10414000056A046A24F480540462C46924F4407C3F
:104150004CEA022C2CF4704C1B039BB243EA0C0378
:1041600025F40055090301F400512943C36101629C
:1041700030BC7047836823F070030B4343F00703A0
:104180008360704790F83D30012B27D1022380F8DF
:104190003D300268D36843F00103D3600368114ADD
:1041A000934210D0B3F1804F0DD0A2F594329342D8
:1041B00009D002F58062934205D01A6842F00102EC
:1041C0001A60002070479A6802F00702062A07D09A
:1041D0001A6842F001021A600020704701207047FF
:1041E00000207047002C01407047704770477047AF
:1041F000704770B504460368DE681D6915F0020F4C
:1042000010D016F0020F0DD06FF002021A610123D8
:10421000037703689B6913F0030F5ED0FFF7E6FF97
:104220000023237715F0040F12D016F0040F0FD0DF
:1042300023686FF004021A610223237723689B69C5
:1042400013F4407F4FD02046FFF7D0FF00232377A1
:1042500015F0080F12D016F0080F0FD023686FF07A
:1042600008021A61042323772368DB6913F0030F24
:1042700040D02046FFF7BAFF0023237715F0100F38
:1042800012D016F0100F0FD023686FF010021A61D1
:10429000082323772368DB6913F4407F31D020465D
:1042A000FFF7A4FF0023237715F0010F02D016F0CB
:1042B000010F2DD115F0800F02D016F0800F2FD1F5
:1042C00015F0400F02D016F0400F31D115F0200F3D
:1042D00002D016F0200F33D170BDFFF786FF2046C5
:1042E000FFF785FF9CE72046FFF77FFF2046FFF79B
:1042F0007EFFABE72046FFF778FF2046FFF777FF0A
:10430000BAE72046FFF771FF2046FFF770FFC9E7C5
:1043100023686FF001021A612046FDF7DFF8C9E754
:1043200023686FF080021A61204600F0C6FAC7E7E2
:1043300023686FF040021A612046FFF759FFC5E776
:1043400023686FF020021A61204600F0B5FAC3E737
:1043500003681F4A90420AD0B0F1804F07D0A2F5FF
:104360009432904203D002F58062904203D123F050
:1043700070034A681343164A90420AD0B0F1804F46
:1043800007D0A2F59432904203D002F580629042A9
:1043900003D123F44073CA68134323F080034A69AE
:1043A000134303608B68C3620B688362084B9842B7
:1043B0000AD001234361036913F0010F03D003699D
:1043C00023F00103036170470B690363F1E700BF4A
:1043D000002C014040B310B5044690F83D30F3B1D5
:1043E000022384F83D30214651F8040BFFF7B0FF5B
:1043F000012384F8463084F83E3084F83F3084F856
:10440000403084F8413084F8423084F8433084F8F6
:10441000443084F8453084F83D30002010BD80F8E9
:104420003C30FDF7C1FFDBE70120704740B310B51A
:10443000044690F83D30F3B1022384F83D30214624
:1044400051F8040BFFF784FF012384F8463084F809
:104450003E3084F83F3084F8403084F8413084F8AE
:10446000423084F8433084F8443084F8453084F88E
:104470003D30002010BD80F83C30FFF7B5FEDBE793
:104480000120704770B4056A046A24F001040462D4
:104490008469114EB0420DD0B0F1804F0AD0A6F51C
:1044A0009436B04206D006F58066B04202D044F0A1
:1044B000010202E024F00304224322F0F0021B0177
:1044C000DBB2134325F00A0201F00A0111438361B4
:1044D000016270BC704700BF002C014038B590F8F5
:1044E0003C30012B5ED004460D46012380F83C3061
:1044F0000C2A52D8DFE802F007515151195151519D
:104500002C5151513E00CB684A6809680068FFF79A
:10451000B9FF2268936923F00C03936122689369C1
:10452000A9680B439361002038E0CB684A680968AA
:104530000068FFF7BBFD2268936923F44063936131
:1045400022689369A96843EA01239361002025E06A
:10455000CB684A6809680068FFF7D6FD2268D3690E
:1045600023F00C03D3612268D369A9680B43D3619C
:10457000002013E0CB684A6809680068FFF7DFFD98
:104580002268D36923F44063D3612268D369A968A0
:1045900043EA0123D361002000E00120002384F8D6
:1045A0003C3038BD0220FCE710B4846824F47F4C12
:1045B00042EA03220A4342EA0C02826010BC7047BE
:1045C00090F83C30012B78D010B50446012380F8D8
:1045D0003C30022380F83D300268936823F47F4327
:1045E00023F0770393600B68602B4CD023D8402BCB
:1045F00054D011D8202B03D00AD80BB1102B05D1E1
:1046000019462068FFF7B6FD002028E0012026E0CB
:10461000302BF5D0012022E0502B0AD1CA6849681E
:104620000068FFF731FD50212068FFF7A3FD00204F
:1046300015E0012013E0B3F5805F3AD0B3F5005FD9
:1046400014D0702B37D1CB684A6889680068FFF7AF
:10465000ABFF2268936843F0770393600020012347
:1046600084F83D30002384F83C3010BDCB684A68A4
:1046700089680068FFF798FF2268936843F48043D5
:1046800093600020EBE7CA6849680068FFF729FDDE
:1046900060212068FFF76EFD0020E0E7CA684968E6
:1046A0000068FFF7F1FC40212068FFF763FD002060
:1046B000D5E70020D3E70120D1E70220704701F0C1
:1046C0001F014FF0010C0CFA01FC036A23EA0C03F2
:1046D0000362036A8A4013430362704710B50446BD
:1046E0000B46002931D190F83E00C0B294F8422028
:1046F000D2B2012840F0A180012A40F09F80002B17
:1047000042D1022284F83E2084F842202168CA68FF
:1047100042F00202CA60012219462068FFF7CFFF6B
:104720002368494A93427DD0B3F1804F7AD0A2F5F5
:104730009432934276D002F58062934272D01A6826
:1047400042F001021A60002078E004290CD0082908
:104750000ED090F84100C0B2042B0DD0082B0FD022
:1047600094F84520D2B2C4E790F83F00C0B2F3E716
:1047700090F84000C0B2EFE794F84320D2B2B8E717
:1047800094F84420D2B2B4E7042B2BD0082B2DD0C0
:10479000022184F84110042B2CD0082B33D00221A5
:1047A00084F845100C2B4AD801A151F823F000BF22
:1047B0000D4700083F4800083F4800083F480008F0
:1047C000FB4700083F4800083F4800083F480008F2
:1047D0000D4800083F4800083F4800083F480008CF
:1047E00019480008022184F83F10D4E7022184F818
:1047F0004010D0E7022284F843202168CA6842F0C2
:104800000402CA6087E7022284F844202168CA684B
:1048100042F00802CA607EE72168CA6842F01002CE
:10482000CA6078E79A6802F00702062A09D01A6877
:1048300042F001021A60002000E0012010BD104685
:10484000FCE70020FAE700BF002C014090F83C2074
:10485000012A2CD010B40346012280F83C20022209
:1048600080F83D2002685068946820F0700C086859
:1048700040EA0C0050601A680E4882420AD0B2F139
:10488000804F07D0A0F59430824203D000F58060BD
:10489000824204D124F080044968214391600122BE
:1048A00083F83D20002083F83C0010BC70470220B4
:1048B000704700BF002C014070477047026802F14A
:1048C0000C0353E8003F23F0C0030C3242E80031F0
:1048D0000029F3D1202380F841307047026802F1AB
:1048E0000C0353E8003F23F490730C3242E800318C
:1048F0000029F3D1026802F1140353E8003F23F0CA
:104900000103143242E800310029F3D1036B012B7B
:1049100005D0202380F842300023036370470268EB
:1049200002F10C0353E8003F23F010030C3242E87D
:1049300000310029F3D1ECE790F84130212B01D070
:10494000022070478368B3F5805F17D0036A5A1C52
:1049500002621A7803685A60C38C9BB2013B9BB217
:10496000C3844BB90268D36823F08003D360026824
:10497000D36843F04003D360002070470369002BE5
:10498000E4D1036A1B880268C3F308035360036A17
:1049900002330362E0E7000010B5044602681369C1
:1049A00023F44053C1680B431361836802691343C6
:1049B00042691A430168CB6823F4B05323F00C0317
:1049C0001343CB600268536923F4407381690B433E
:1049D00053610268134B9A4220D0FFF735FB024621
:1049E00002EB820202EB820263689B00B2FBF3F2ED
:1049F0000D48A0FB02314909642303FB11231B016D
:104A00003233A0FB03035B0903F0F00202EB011257
:104A100003F00F03216813448B6010BDFFF724FBE4
:104A20000246DDE7003801401F85EB5160B310B549
:104A3000044690F8413013B3242384F841302268AF
:104A4000D36823F40053D3602046FFF7A5FF226804
:104A5000136923F4904313612268536923F02A03F6
:104A600053612268D36843F40053D360002060642C
:104A7000202384F8413084F84230606310BD80F810
:104A80004030FDF703FDD7E70120704790F8413033
:104A9000202B10D189B192B101628284C28400239B
:104AA0004364212280F841200168CA6842F08002F4
:104AB000CA601846704702207047012070470120E5
:104AC0007047000038B590F84130202B30D10446B3
:104AD00000292FD00AB9012038BD01628284C28426
:104AE00000234364212084F84100A06B124D8562AD
:104AF000A06B124DC562A06B114D0563A06B4363A3
:104B000020681346021DA06BFDF768FE23686FF056
:104B100040021A60226802F1140353E8003F43F098
:104B20008003143242E800310029F3D10020D3E79A
:104B30000220D1E70120CFE7474B0008AF4B000828
:104B4000BF4B0008704708B50346406A1B681B68E6
:104B500013F0200F1AD10023C384026802F114035A
:104B600053E8003F23F08003143242E8003100296B
:104B7000F3D1026802F10C0353E8003F43F0400315
:104B80000C3242E800310029F3D108BDFFF7DAFF0B
:104B9000FBE708B50168CA6822F04002CA6020221B
:104BA00080F84120FFF7CEFF002008BD704708B510
:104BB000406AFFF7FBFF08BD70477047704710B5AC
:104BC000446A23685B6994F84120212A0FD0236846
:104BD0005B6903F0400394F84220222A11D0636CF1
:104BE00043F0100363642046FFF7E8FF10BD03F0B5
:104BF0008003002BEBD00023E3842046FFF75EFE0A
:104C0000E5E7002BEBD00023E3852046FFF766FEA7
:104C1000E5E708B5406A0023C385C384FFF7CEFFEC
:104C200008BD90F84230222B69D18368B3F5805FCC
:104C30004FD0826AB3F5805F04D0002B56D1036950
:104C4000002B53D103685B681370836A013383625E
:104C5000C38D9BB2013B9BB2C385002B51D100B5E4
:104C600083B00268D36823F02003D3600268D3685E
:104C700023F48073D3600268536923F00103536106
:104C8000202380F8423000234363036B012B33D190
:104C900000230363026802F10C0353E8003F23F092
:104CA00010030C3242E800310029F3D103681A687E
:104CB00012F0100F06D0002201921A6801925B6870
:104CC0000193019B818DFCF7E1FB002003B05DF8AF
:104CD00004FB0269002AACD1826A03685B68C3F3F3
:104CE00008031380836A02338362B1E703685B6859
:104CF00003F07F031370A8E7FFF75EFFE5E70220EC
:104D0000704700207047000010B582B0044602686A
:104D10001368D068516913F00F0F09D113F0200FF9
:104D20000CD010F0200F09D02046FFF77AFF16E0D4
:104D300011F0010115D110F4907F12D1216B0129DE
:104D400079D013F0800F03D010F0800F40F0138162
:104D500013F0400F03D010F0400F40F0108102B06C
:104D600010BD13F0010F06D010F4807F03D0626CE9
:104D700042F00102626413F0040F04D019B1626CB6
:104D800042F00202626413F0020F04D019B1626CA7
:104D900042F00402626413F0080F07D010F0200FF5
:104DA00000D119B1626C42F008026264626C002AA0
:104DB000D5D013F0200F02D010F0200F29D1236896
:104DC0005B6903F04003626C12F0080F00D163B31B
:104DD0002046FFF783FD23685B6913F0400F20D066
:104DE000226802F1140353E8003F23F04003143219
:104DF00042E800310029F3D1E36B73B1624A5A6390
:104E0000E06BFDF747FD0028A9D0E06B436B9847A6
:104E1000A5E72046FFF705FFD1E72046FFF7CEFEC6
:104E20009DE72046FFF7CAFE99E72046FFF7C6FE3A
:104E30000023636493E713F0100F82D010F0100F7B
:104E40003FF47FAF002301931368019353680193EC
:104E5000019B536913F0400F51D0E26B13685B68FC
:104E60009BB2002B3FF47BAFA18D99427FF677AFC9
:104E7000E3859369202B37D0226802F10C0353E8B5
:104E8000003F23F480730C3242E800310029F3D153
:104E9000226802F1140353E8003F23F001031432A7
:104EA00042E800310029F3D1226802F1140353E8EB
:104EB000003F23F04003143242E800310029F3D1CF
:104EC000202384F8423000232363226802F10C037C
:104ED00053E8003F23F010030C3242E80031002970
:104EE000F3D1E06BFDF7B4FC02236363A18DE38D86
:104EF0009BB2C91A89B22046FCF7C8FA2FE7A18DE8
:104F0000E38D9BB2C91A89B2E38D9BB2002B3FF4AB
:104F100026AF00293FF423AF226802F10C0353E8C7
:104F2000003F23F490730C3242E800300028F3D1A4
:104F3000226802F1140353E8003F23F00103143206
:104F400042E800300028F3D1202384F842300023C7
:104F50002363226802F10C0353E8003F23F010039F
:104F60000C3242E800300028F3D10223636320466C
:104F7000FCF78CFAF3E62046FFF7DEFCEFE620466E
:104F8000FFF707FEEBE600BF134C000808B5406AC8
:104F900001234363036B012B02D0FFF70EFE08BD14
:104FA000818D4908FCF772FAF9E708B50346406AB3
:104FB0001B681B6813F0200F2BD10023C3850268E8
:104FC00002F10C0353E8003F23F480730C3242E8F3
:104FD00000310029F3D1026802F1140353E8003FC5
:104FE00023F00103143242E800310029F3D10268B2
:104FF00002F1140353E8003F23F04003143242E867
:1050000000310029F3D1202380F84230036B012BBB
:1050100007D000234363036B012B0FD0FFF7CCFDB8
:1050200008BD026802F10C0353E8003F23F01003AF
:105030000C3242E800310029F3D1EAE7818DFCF718
:1050400025FAEDE730B583B00446134681628285C8
:1050500000254564222280F84220C26B1F489062DE
:10506000E26B1F48D062E26B1E481063E26B55632F
:1050700020680A46011DE06BFDF7B0FB019523682F
:105080001A6801925B680193019B23695BB12268F6
:1050900002F10C0353E8003F43F480730C3242E802
:1050A00000310029F3D1226802F1140353E8003FD4
:1050B00043F00103143242E800310029F3D12268A1
:1050C00002F1140353E8003F43F04003143242E876
:1050D00000310029F3D1002003B030BDAB4F0008F0
:1050E0008D4F0008BF4B000890F84230202B27D18D
:1050F00010B582B0044629B312B9012002B010BD28
:105100000123036300234363FFF79CFF236B012B01
:1051100001D00120F2E70023019323681A6801926D
:105120005B680193019B226802F10C0353E8003F86
:1051300043F010030C3242E800310029F3D1DDE7DF
:10514000022070470120D9E7024A0349034800F0D2
:10515000C9B800BFC400002061810008D800002049
:105160000C4B416810B59942044601D002F0F8FF9B
:10517000A168094B994202D0204602F0F1FFE16894
:10518000064B994204D02046BDE8104002F0E8BF2B
:1051900010BD00BF5C0F0020C40F00202C100020A9
:1051A0002DE9F84300250423304C314A3149DFF81A
:1051B000C890DFF8C880324F324E116004F15C00B5
:1051C00029460822C4E90335C4E90055C4E9055558
:1051D000A560656600F040F904F15800C4E907498C
:1051E000C4E90987E66200F007FA274B294608223E
:1051F00004F1C4006367C4E91A55C4E91E55256764
:10520000C4F8CC50C4F8805000F026F904F16803CB
:1052100004F1C000C4F88430C4E92298C4E92476BB
:1052200000F0EAF9194B294604F596700822C4F8F3
:10523000DC30C4E93455C4E93855C4F8D850C4F852
:105240003451C4F8E85000F007F904F1D003C4E980
:105250003D87C4F8F09004F59470C4F8FC60C4F87D
:10526000EC30BDE8F84300F0C7B900BF5C0F002088
:1052700094100020495100086D5300089153000814
:10528000D1530008F5530008090001001200020084
:1052900010B504460A4800F0B3F9636B23B9094B13
:1052A000094A1B68626323B1BDE81040044800F05E
:1052B000A9B9FFF775FFBDE81040014800F0A2B999
:1052C000A41000209410002061510008014800F053
:1052D00097B900BFA4100020014800F093B900BFA7
:1052E000A41000202DE9F8434FF0000980460F4636
:1052F0001646D6E90154013D10D4A389012B08D9E3
:10530000B4F90E30013304D021464046B84749EA8B
:105310000009013D6B1C04F16804EED13668002ED3
:10532000E7D14846BDE8F8830EB470B504466FF087
:10533000004600259DB00B4A21AB0B49106853F87D
:10534000042B059102A9CDE90134049607961B951B
:10535000069400F0B1FD029B1D701DB0BDE87040C9
:1053600003B07047D00000200802FFFF10B50C46C4
:10537000B1F90E1000F0E6F8002803DB236D0344BA
:10538000236510BDA38923F48053A38110BD00BF02
:105390002DE9F0410C46B1F90C101F46CB0505462E
:1053A00016460BD421F48051A1813B463246284653
:1053B000B4F90E10BDE8F04100F0DAB8B4F90E10FF
:1053C0000223002200F0A8F8B4F90C10EAE700BFAD
:1053D00010B50C46B1F90E1000F09EF8B4F90C307F
:1053E000421C0EBF23F4805343F480532065A381F5
:1053F00010BD00BFB1F90E1000F07CB8032A30B424
:1054000012D941EA0004A40784460B4621D119466B
:10541000604653F8044B5CF8045BA54219D1043A8A
:10542000032AF4D860461946541E7AB1431E013946
:10543000021901E09A4209D013F8010F11F801CFC7
:105440006045F7D0A0EB0C0030BC7047002030BCAA
:105450007047541EEAE700BF830730B546D0844644
:10546000841805E0634603F8011B9D0703D09C46A2
:10547000A445F7D130BD013A0244A2EB0C02032A45
:1054800029D9CCB204EB04240F2A04EB04442FD90D
:10549000A2F1100C2CF00F0C03F11005AC44C3E981
:1054A0000044C3E9024410336345F8D112F00C0FF5
:1054B00002F00F0E18D01A462EF0030C9C44AEF1E9
:1054C000040542F8044B6245FBD125F00304043384
:1054D0000EF003022344002ACCD0C9B21A4403F8C8
:1054E000011B9342FBD130BD7246F4E70346C6E789
:1054F0009646E0E7002238B5064D044608462A6085
:10550000FCF796FE431C00D038BD2B68002BFBD067
:10551000236038BD9810002038B50C461146002293
:105520008446074D20462A601A466446FCF78AFEE8
:10553000431C00D038BD2B68002BFBD0236038BD46
:105540009810002038B50C46114600228446074DBD
:1055500020462A601A466446FCF74CFE431C00D0E5
:1055600038BD2B68002BFBD0236038BD981000207D
:1055700038B50C46114600228446074D20462A6065
:105580001A466446FCF746FE431C00D038BD2B6823
:10559000002BFBD0236038BD98100020014B186809
:1055A000704700BFD000002070B50F4B0F4DAB42CD
:1055B000A3EB050607D00024B61055F8043B0134D0
:1055C0009847A642F9D807F021FF094D094B5E1B09
:1055D000AB424FEAA60606D0002455F8043B01343E
:1055E0009847A642F9D870BD98DF000898DF0008F8
:1055F00098DF0008A0DF0008704700BF704700BFB9
:10560000704700BF704700BF20F0030110F0030097
:10561000C0F1000051F8043B00F1040C4FEACC0C3F
:105620006FF000021CBF22FA0CF213434FF0010C82
:105630004CEA0C2C4CEA0C4CA3EB0C0222EA0302C1
:1056400012EACC1204BF51F8043B0430F4D0C2F18A
:10565000000102EA0102B2FA82F2C2F11F0200EB7B
:10566000D2007047024B13B1024800F005B87047F2
:10567000000000003D840008002301461A46184639
:1056800002F074BF2DE9F84306460820894602F06F
:10569000E9FE0546DFF89880304600F001FCD8F8B6
:1056A00008305F6827F00307A7F11104A4EB090491
:1056B0002C44B4FBF5F4013C05FB04F4A54208DCE2
:1056C0000021304602F0A8FED8F808303B4498424A
:1056D00005D0304600F0EAFB0020BDE8F8833046F4
:1056E000614202F099FE01300FD0124AD8F808301A
:1056F0003F1B47F001075F60136830461B1B1360B8
:1057000000F0D4FB0120BDE8F8830021304602F010
:1057100083FED8F80820831A0F2BDADD43F001034B
:105720005360054B03491B68C01A0860D1E700BFEE
:1057300028020020AC1000201C02002000295AD0B2
:10574000F8B50C46074600F0ABFB54F804CC724D9C
:10575000A4F108022CF00103D118A8684E68884211
:1057600026F003060CF0010E7CD04E6088194068CC
:1057700000F00100BEF1000F2ED154F8084C05F1E5
:10578000080C121B23449468644560D0D2F80CE0E6
:10579000C4F80CE0CEF8084000287DD043F00100AA
:1057A00050600B60B3F5007F2ED25809D908012351
:1057B00083406868013103436B6055F8310005EBA5
:1057C000C103083BC2E9020345F83120C2603846F4
:1057D000BDE8F84000F06ABB70B9334405F1080C2D
:1057E000886843F0010460456ED0C968C160886074
:1057F0005460D350D6E770474CF00101B3F5007FF9
:1058000044F8041CD350D0D3B3F5206F4FEA532192
:1058100044D2990901F1390001F13804C100681836
:1058200069580838884203D155E08968884204D015
:105830004C6824F003049C42F7D8C868C2E90210FF
:1058400082603846BDE8F840CA6000F02FBB80BBDC
:105850001E44D1E90213CB60996046F00103536006
:105860009651B4E71E44BEF1000F07D154F8083C2E
:10587000D21A1E44D2E90213CB60996046F00103AC
:105880005360264BAA601B68B342A0D8244B38460D
:105890001968FFF7F7FE9AE73344A1E714290DD9F9
:1058A00054291FD8190B01F16F0001F16E04C100DA
:1058B000B5E743F0010050600B6088E701F15C0040
:1058C00001F15B04C100AAE7C5E90422C2E902CCE8
:1058D0005460D3507BE70123A410A3406C6823439A
:1058E0006B60ABE7B1F5AA7F06D8D90B01F1780060
:1058F00001F17704C10092E740F25450814206D88A
:10590000990C01F17D0001F17C04C10087E74FF49F
:105910007E717E2483E700BF280200202002002041
:10592000DC1000202DE9F04F01F10B05162D064685
:1059300083B024D8102900F2AE8000F0B1FA10250F
:1059400018234FF0020CC04F3B445C68A3F10802DF
:10595000944200F05F8130466368E268A16823F0FA
:105960000303CA60234491605A68083442F001027C
:105970005A6000F09BFA204603B0BDE8F08F35F086
:10598000070500F18880A94200F2858000F088FABE
:10599000B5F5FC7FC0F0B1816B0A00F08380042B69
:1059A00000F26E81AB0903F1390C03F1380E4FEAB6
:1059B000CC00A54F384444680838A04207D10DE018
:1059C000002AE16880F22081884207D00C46636893
:1059D00023F003035A1B0F2AF2DDF446DFF86C8232
:1059E0003C69444500F0FD80636823F00309A9EB9E
:1059F00005030F2B00F38681002BC7E9048880F292
:105A00007081B9F5007FD7F804E080F00A810123A6
:105A10004FEAD9014FEA5919194403FA09F357F823
:105A200031204EEA030E07EBC103083BA260E3609E
:105A3000C7F804E047F83140D46001204FEAAC03D6
:105A40009840704535D810EA0E0F07D12CF0030CA2
:105A5000400010EA0E0F0CF1040CF9D007EBCC0A51
:105A6000D646E146DEF80C300BE059681C4621F0C2
:105A700003014A1B0F2ADB6800F30F81002A80F222
:105A800023819E45F1D109F1010919F0030F0EF1AF
:105A9000080EE7D160E10C2333600024204603B0F8
:105AA000BDE8F08F4FF400704FF0400C4FF03F0E08
:105AB0007FE7BC68636823F00309A94504D3A9EB19
:105AC00005030F2B00F39080614B08201B6803F146
:105AD000100804EB0903009302F0C4FC5D4A8346FE
