:020000040800F2
:1000000000500020191700083D1400083F14000894
:1000100041140008431400084514000800000000C3
:10002000000000000000000000000000471400086D
:1000300049140008000000004B1400084D1400088B
:1000400061170008611700086117000861170008B0
:1000500061170008611700086117000861170008A0
:100060006117000861170008611700086117000890
:100070006117000861170008611700086117000880
:100080006117000861170008611700086117000870
:100090006117000861170008611700086117000860
:1000A000611700086117000861170008551400085F
:1000B0006117000861170008611700086117000840
:1000C0006117000861170008611700086117000830
:1000D000611700086117000865140008611700081F
:1000E0006117000861170008611700080000000090
:1000F0000000000000000000000000000000000000
:0C01000000000000000000005FF808F1A3
:1001100081F0004102E000BF83F0004330B54FEAB8
:1001200041044FEA430594EA050F08BF90EA020F25
:100130001FBF54EA000C55EA020C7FEA645C7FEAB8
:10014000655C00F0E2804FEA5454D4EB5555B8BFDB
:100150006D420CDD2C4480EA020281EA030382EA4C
:10016000000083EA010180EA020281EA0303362DDE
:1001700088BF30BD11F0004F4FEA01314FF4801CB1
:100180004CEA113102D0404261EB410113F0004FC3
:100190004FEA03334CEA133302D0524263EB43037A
:1001A00094EA050F00F0A780A4F10104D5F1200E18
:1001B0000DDB02FA0EFC22FA05F2801841F1000173
:1001C00003FA0EF2801843FA05F359410EE0A5F147
:1001D00020050EF1200E012A03FA0EFC28BF4CF078
:1001E000020C43FA05F3C01851EBE37101F000452E
:1001F00007D54FF0000EDCF1000C7EEB00006EEB3B
:100200000101B1F5801F1BD3B1F5001F0CD34908C4
:100210005FEA30004FEA3C0C04F101044FEA44521B
:1002200012F5800F80F09A80BCF1004F08BF5FEAA2
:10023000500C50F1000041EB045141EA050130BD82
:100240005FEA4C0C404141EB0101013C28BFB1F594
:10025000801FE9D291F0000F04BF01460020B1FADF
:1002600081F308BF2033A3F10B03B3F120020CDAB2
:100270000C3208DD02F1140CC2F10C0201FA0CF090
:1002800021FA02F10CE002F11402D8BFC2F1200CF5
:1002900001FA02F120FA0CFCDCBF41EA0C019040AB
:1002A000E41AA2BF01EB0451294330BD6FEA0404F4
:1002B0001F3C1CDA0C340EDC04F11404C4F12002DF
:1002C00020FA04F001FA02F340EA030021FA04F3F1
:1002D00045EA030130BDC4F10C04C4F1200220FA48
:1002E00002F001FA04F340EA0300294630BD21FA86
:1002F00004F0294630BD94F0000F83F4801306BF4C
:1003000081F480110134013D4EE77FEA645C18BF3F
:100310007FEA655C29D094EA050F08BF90EA020FD6
:1003200005D054EA000C04BF1946104630BD91EACE
:10033000030F1EBF0021002030BD5FEA545C05D1D1
:100340004000494128BF41F0004130BD14F5800410
:100350003CBF01F5801130BD01F0004545F0FE4184
:1003600041F470014FF0000030BD7FEA645C1ABFB9
:10037000194610467FEA655C1CBF0B46024650EAF0
:10038000013406BF52EA033591EA030F41F400211C
:1003900030BD00BF90F0000F04BF0021704730B5A2
:1003A0004FF4806404F132044FF000054FF0000177
:1003B00050E700BF90F0000F04BF0021704730B538
:1003C0004FF4806404F1320410F0004548BF40420D
:1003D0004FF000013EE700BF42004FEAE2014FEA62
:1003E00031014FEA02701FBF12F07F4393F07F4F3D
:1003F00081F06051704732F07F4208BF704793F040
:100400007F4F04BF41F40021704730B54FF4607452
:1004100001F0004521F000411CE700BF50EA010255
:1004200008BF704730B54FF000050AE050EA0102FE
:1004300008BF704730B511F0004502D5404261EB6E
:1004400041014FF4806404F132045FEA915C3FF4AF
:10045000D8AE4FF003025FEADC0C18BF03325FEA4C
:10046000DC0C18BF033202EBDC02C2F1200300FAFD
:1004700003FC20FA02F001FA03FE40EA0E0021FA22
:1004800002F11444BDE600BF4FEA410212F500122A
:1004900015D211D56FF47873B3EB625212D94FEACB
:1004A000C12343F0004343EA505311F0004F23FAB5
:1004B00002F018BF404270474FF00000704750EA0A
:1004C000013005D111F0004008BF6FF000407047C7
:1004D0004FF00000704700BF4FEA4102B2F1E04325
:1004E00024BFB3F5001CDCF1FE5C0DD901F0004C1B
:1004F0004FEAC0024CEA5070B2F1004F40EB83006B
:1005000008BF20F00100704711F0804F21D113F196
:100510003872BCBF01F00040704741F480114FEACF
:100520005252C2F11802C2F1200C10FA0CF320FA58
:1005300002F018BF40F001004FEAC1234FEAD32375
:1005400003FA0CFC40EA0C0023FA02F34FEA4303DF
:10055000CCE77FEA625307D150EA01331EBF4FF068
:10056000FE4040F44000704701F0004040F0FE4083
:1005700040F40000704700BF844641EA000313F0D6
:10058000030349D1403A23D30B6803604B684360AF
:100590008B688360CB68C3600B6903614B694361FF
:1005A0008B698361CB69C3610B6A03624B6A4362E7
:1005B0008B6A8362CB6AC3620B6B03634B6B4363CF
:1005C0008B6B8363CB6BC36340304031403ADBD2EB
:1005D00030320BD30B6803604B6843608B688360D9
:1005E000CB68C36010301031103AF3D20C3205D30F
:1005F00051F8043B40F8043B043AF9D2043208D0E5
:10060000D2071CBF11F8013B00F8013B01D30B8856
:1006100003806046704700BF082A13D38B07B1D010
:1006200010F00303AED0C3F10403D21ADB071CBFE2
:1006300011F8013B00F8013BA4D331F8023B20F84C
:10064000023B9FE7043AD9D3013A11F8013B00F885
:10065000013BF9D20B7803704B7843708B78837031
:100660006046704770B54FF0FF0C4CF4E06C1CEA2C
:1006700011541DBF1CEA135594EA0C0F95EA0C0F98
:1006800000F0DEF82C4481EA030621EA4C5123EA0B
:100690004C5350EA013518BF52EA033541F480113A
:1006A00043F4801338D0A0FB02CE4FF00005E1FBED
:1006B00002E506F00042E0FB03E54FF00006E1FB37
:1006C00003569CF0000F18BF4EF0010EA4F1FF047A
:1006D000B6F5007F64F5407404D25FEA4E0E6D41BA
:1006E00046EB060642EAC62141EA55514FEAC520CB
:1006F00040EA5E504FEACE2EB4F1FD0C88BFBCF547
:10070000E06F1ED8BEF1004F08BF5FEA500E50F1F7
:10071000000041EB045170BD06F0004646EA0101BD
:1007200040EA020081EA0301B4EB5C04C2BFD4EBEF
:100730000C0541EA045170BD41F480114FF0000EE8
:10074000013C00F3AB8014F1360FDEBF002001F056
:10075000004170BDC4F10004203C35DA0C341BDCD0
:1007600004F11404C4F1200500FA05F320FA04F0A2
:1007700001FA05F240EA020001F0004221F00041D6
:1007800010EBD37021FA04F642EB06015EEA430E49
:1007900008BF20EAD37070BDC4F10C04C4F1200579
:1007A00000FA04F320FA05F001FA04F240EA02002C
:1007B00001F0004110EBD37041F100015EEA430EFD
:1007C00008BF20EAD37070BDC4F1200500FA05F21D
:1007D0004EEA020E20FA04F301FA05F243EA02039C
:1007E00021FA04F001F0004121FA04F220EA0200AB
:1007F00000EBD3705EEA430E08BF20EAD37070BDF1
:1008000094F0000F0FD101F00046400041EB0101D0
:1008100011F4801F08BF013CF7D041EA060195F0B2
:10082000000F18BF704703F00046520043EB03036C
:1008300013F4801F08BF013DF7D043EA0603704759
:1008400094EA0C0F0CEA135518BF95EA0C0F0CD064
:1008500050EA410618BF52EA4306D1D181EA0301AA
:1008600001F000414FF0000070BD50EA410606BFA4
:100870001046194652EA430619D094EA0C0F02D1E9
:1008800050EA013613D195EA0C0F05D152EA03362E
:100890001CBF104619460AD181EA030101F000414C
:1008A00041F0FE4141F470014FF0000070BD41F095
:1008B000FE4141F4780170BD70B54FF0FF0C4CF46F
:1008C000E06C1CEA11541DBF1CEA135594EA0C0F8E
:1008D00095EA0C0F00F0A7F8A4EB050481EA030EDB
:1008E00052EA03354FEA013100F088804FEA0333C2
:1008F0004FF0805545EA131343EA12634FEA022290
:1009000045EA111545EA10654FEA00260EF0004150
:100910009D4208BF964244F1FD0404F5407402D2A2
:100920005B084FEA3202B61A65EB03055B084FEA33
:1009300032024FF480104FF4002CB6EB020E75EB30
:10094000030E22BFB61A754640EA0C005B084FEA58
:100950003202B6EB020E75EB030E22BFB61A7546D5
:1009600040EA5C005B084FEA3202B6EB020E75EB20
:10097000030E22BFB61A754640EA9C005B084FEA98
:100980003202B6EB020E75EB030E22BFB61A7546A5
:1009900040EADC0055EA060E18D04FEA051545EA94
:1009A00016754FEA06164FEAC30343EA52734FEA3D
:1009B000C2025FEA1C1CC0D111F4801F0BD141EAB6
:1009C00000014FF000004FF0004CB6E711F4801F1B
:1009D00004BF01430020B4F1FD0C88BFBCF5E06FFB
:1009E0003FF6AFAEB5EB030C04BFB6EB020C5FEA0B
:1009F000500C50F1000041EB045170BD0EF0004E60
:100A00004EEA113114EB5C04C2BFD4EB0C0541EA91
:100A1000045170BD41F480114FF0000E013C90E68E
:100A200045EA060E8DE60CEA135594EA0C0F08BF52
:100A300095EA0C0F3FF43BAF94EA0C0F0AD150EA51
:100A400001347FF434AF95EA0C0F7FF425AF1046E4
:100A500019462CE795EA0C0F06D152EA03353FF40C
:100A6000FDAE1046194622E750EA410618BF52EA89
:100A700043067FF4C5AE50EA41047FF40DAF52EA5D
:100A800043057FF4EBAE12E74FF0FF3C06E000BFFA
:100A90004FF0010C02E000BF4FF0010C4DF804CD07
:100AA0004FEA410C7FEA6C5C4FEA430C18BF7FEAC7
:100AB0006C5C1BD001B050EA410C0CBF52EA430CF5
:100AC00091EA030F02BF90EA020F0020704710F175
:100AD000000F91EA030F58BF994208BF90422CBF04
:100AE000D8176FEAE37040F0010070474FEA410CFD
:100AF0007FEA6C5C02D150EA013C07D14FEA430C1B
:100B00007FEA6C5CD6D152EA033CD3D05DF8040B8B
:100B1000704700BF8446104662468C4619466346BD
:100B200000E000BF01B5FFF7B7FF002848BF10F194
:100B3000000F01BD4DF808EDFFF7F4FF0CBF0120D9
:100B400000205DF808FB00BF4DF808EDFFF7EAFF55
:100B500034BF012000205DF808FB00BF4DF808ED10
:100B6000FFF7E0FF94BF012000205DF808FB00BF05
:100B70004DF808EDFFF7CEFF94BF012000205DF88F
:100B800008FB00BF4DF808EDFFF7C4FF34BF01209C
:100B900000205DF808FB00BF4FEA410C7FEA6C5C67
:100BA00002D150EA013C0AD14FEA430C7FEA6C5C67
:100BB00002D152EA033C02D14FF0000070474FF0DF
:100BC000010070470348044B834202D0034B03B13A
:100BD0001847704714070020140700200000000089
:100BE0000548064B1B1AD90F01EBA301491002D08F
:100BF000034B03B118477047140700201407002067
:100C00000000000010B5064C237843B9FFF7DAFF67
:100C1000044B13B10448AFF300800123237010BDCF
:100C20001407002000000000CCA5000808B5054B03
:100C30001BB105490548AFF30080BDE80840FFF748
:100C4000CFBF00BF0000000018070020CCA500089F
:100C50002DE9F04389B004AD002404940594069472
:100C60000794224B9A6942F020029A619A6902F035
:100C700020020192019A9A6942F004029A619A69EB
:100C800002F004020292029A9A6942F008029A6102
:100C90009B6903F008030393039BDFF854902246FB
:100CA0004FF40061484600F0ABFF124E2246C021CF
:100CB000304600F0A5FF4FF4006304934FF00108A5
:100CC000CDF814800694022707972946484600F07D
:100CD0008DFEC0230493CDF814800694079729460F
:100CE000304600F083FE09B0BDE8F08300100240FA
:100CF00000080140000C014008B50B480B4B036095
:100D00000B4B436000238360C3604FF48042026159
:100D100043618361C361036201F00AF900B908BD50
:100D200000F098F8FBE700BF3007002000540040B7
:100D3000801A060010B586B0002302930393049333
:100D400005930268154B9A4201D006B010BD144CB1
:100D5000A36943F00803A361A36903F008030093A8
:100D6000009B4FF4407302931223039303230593D4
:100D700002A90C4800F03AFE0B4A536843F0E063C6
:100D800043F002035360E36943F40013E361E36952
:100D900003F400130193019BD7E700BF0054004008
:100DA00000100240000C01400000014038B50A4B21
:100DB000834200D038BD094D284602F091FF064C11
:100DC00082B22946204602F0F5FA32220449204632
:100DD00002F0F3FCEEE700BFAC0C002000000020A6
:100DE000A40700200000000038B5154B984200D041
:100DF00038BD037F082BFBD1114D0821284601F097
:100E000000FE104C20600C21284601F0FAFD0E4B2C
:100E100018602368C01AFFF7CDFA07A3D3E90023AF
:100E2000FFF720FC0022094BFFF71CFCFFF754FBE7
:100E3000074B1860DCE700BF9CC420B07268A13F7C
:100E4000640C00208C070020880700200000E03F91
:100E50008407002072B6FEE710B590B006AC2822D9
:100E60000021204602F064FE0023019302930393C5
:100E700004930593012206924FF4803307930A925C
:100E800002220D920E934FF4E0130F93204601F0CF
:100E9000FDF978B90F2301930221029100230393F6
:100EA0004FF480620492059301A801F021FC18B967
:100EB00010B010BDFFF7CEFFFFF7CCFF00B583B039
:100EC00000F076FCFFF7C8FFFFF7C2FE00F032FB30
:100ED000FFF712FF00F0C2FB00F0A6F83222234910
:100EE000234802F06AFC234C204601F05BFD0821F8
:100EF000204602F019F80C21204602F093F800F089
:100F000061F81D4E0024009433461C4A21462046B9
:100F100000F0F9F91A4B1868FFF75EFA02460B4623
:100F2000184D1949284602F06BFD009433462A46B5
:100F30001021204600F0E7F900F04EF8134D012291
:100F40004FF40061284600F05BFE012000F054FCE5
:100F500022464FF40061284600F052FE054B1B6804
:100F60005C62142000F048FCC9E700BFA407002021
:100F7000AC0C0020640C0020E8A5000844AF000879
:100F800084070020900700204CAF000800080140B3
:100F900000B583B002460B464FF0FF310091782137
:100FA000024801F0A3F803B05DF804FB300700200D
:100FB00008B5034B587002211846FFF7E9FF08BD3A
:100FC0005C08002008B54FF480620021014802F05F
:100FD000AFFD08BD6008002038B5104B40221A70E4
:100FE000002418E0A4F15000C0B2FFF7E1FF002098
:100FF000FFF7DEFF1020FFF7DBFF094D80220949D4
:1010000001EBC4112846FFF7B7FA8121681EFFF7EC
:10101000BFFF0134E4B2072CE4D938BDD807002063
:10102000D90700206008002008B5AE20FFF7C0FFF8
:101030002020FFF7BDFF1020FFF7BAFFB020FFF719
:10104000B7FFC820FFF7B4FF0020FFF7B1FF102063
:10105000FFF7AEFF4020FFF7ABFF8120FFF7A8FFAF
:10106000DF20FFF7A5FFA120FFF7A2FFA620FFF7D3
:101070009FFFA820FFF79CFF3F20FFF799FFA420C8
:10108000FFF796FFD320FFF793FF0020FFF790FFB5
:10109000D520FFF78DFFF020FFF78AFFD920FFF75B
:1010A00087FF2220FFF784FFDA20FFF781FF12205D
:1010B000FFF77EFFDB20FFF77BFF2020FFF778FFA5
:1010C0008D20FFF775FF1420FFF772FFFFF77AFFFF
:1010D000FFF782FFAF20FFF76BFF08BD30B59DF82B
:1010E000104007282FD811F0800F2CD10CB1D2431B
:1010F000D2B29DF80C400134FF2505FA04F464B225
:1011000052B244EA020CC3F1080E45FA0EF54CEA5D
:10111000050C5FFA8CFC0C4D85F800C00B4B03EB03
:10112000C010435C0CEA030C00F801C022EA04037F
:101130006FF0FF0242FA0EF21340DBB22B704CEA62
:10114000030C00F801C030BDD60700206008002065
:101150002DE9F04383B0064690461C469DF8289042
:10116000CF0801F007052B44082B1EDDAA40CDF85F
:101170000490072300932B46D2B201463846FFF76E
:10118000ADFFC5F1080248FA02F22C44E4B2CDF8F2
:101190000490093CE4B200940023D2B23146781C9A
:1011A000FFF79CFF03B0BDE8F083AA402C44E4B2F3
:1011B000CDF80490013CE4B200942B46D2B2014633
:1011C0003846FFF78BFFEDE72DE9F04182B0064688
:1011D00015469846CF0801F00704A2400193072363
:1011E00000932346D2B201463846FFF777FF14B981
:1011F00002B0BDE8F081C4F1080345FA03F2CDF86E
:101200000480013CE4B200940023D2B23146781C41
:10121000FFF764FFECE72DE9F04F85B08046894683
:1012200092461E469DF838309DF83CB0DF0803F02A
:10123000070202920025039312E006FB045209EB19
:10124000C40105EB08005B461AF80220C9B2C0B21F
:10125000FFF7BAFF0134E4B2BC42EED30135EDB280
:10126000B54201D20024F7E7039B029ABAB106FB0C
:1012700007F700241D4610E03B191AF8032025F05B
:101280000701494404EB0800CDF800B0029BC9B245
:10129000C0B2FFF75DFF0134E4B2B442ECD305B055
:1012A000BDE8F08F70B582B05D68203A1C7804F11B
:1012B000070C4FEAEC0C5B7803FB0CFC9DF8186004
:1012C000019600940CFB0252FFF7A5FF02B070BD1F
:1012D000037890F90020002A0DDA03F0E002C02A1A
:1012E0000BD003F0F002E02A09D003F0F803F02B52
:1012F00007D000207047012070470220704703206C
:101300007047042070472DE9F04F87B00390049197
:1013100093461E469DF84030059333780733DB1023
:1013200096F8019003FB09F95FFA89F909F10409BC
:101330005FFA89F94FF0000A15E03378059A0192B7
:10134000009373782A1D0499039C2046FFF763FFDE
:1013500073782344DBB20393C2441FFA8AFA012351
:1013600000E00023E3B10BEB0A071BF80A30002B67
:101370003ED03846FFF7ACFF8046002838D0002426
:10138000337AA342EDD9756809FB045542462946D4
:10139000384602F09FFB0028CFD00134E4B2EFE7DB
:1013A000B8F1010F11D0059B0093F3682022049936
:1013B000039C2046FFF776FFF3685B782344DBB29B
:1013C0000393D0441FFA88FACDE71BF80A20059B47
:1013D0000093F3680499039C2046FFF763FFF368CA
:1013E0005B782344DBB20393C2441FFA8AFABAE75C
:1013F00007B0BDE8F08F000082B00E4B9A6942F052
:1014000001029A619A6902F001020092009ADA6977
:1014100042F08052DA61DB6903F080530193019B53
:10142000054A536823F0E06343F00073536002B051
:10143000704700BF0010024000000140FEE7FEE7D9
:10144000FEE7FEE7FEE770477047704708B500F01B
:10145000C1F908BD08B5024801F0F0FA08BD00BFA7
:10146000640C002008B5024802F04AF808BD00BF2D
:10147000AC0C00200120704708B502F0FBFB1623DE
:1014800003604FF0FF3008BD08B54FF0FF31FFF7A4
:10149000F3FFFEE770B50C461646002506E0AFF3F5
:1014A0000080214601F8010B01350C46B542F6DB00
:1014B000304670BD70B50C461646002504E014F8A1
:1014C000010BAFF300800135B542F8DB304670BD4B
:1014D0004FF0FF3070474FF400534B6000207047CF
:1014E000012070470020704710B503460C4A0D4993
:1014F0000D48006840B10C4800680344521A9342FA
:1015000006D8094A136010BD0748084C0460F2E78A
:1015100002F0B0FB0C2303604FF0FF30F3E700BF95
:101520000050002000040000600C0020101000207B
:101530007047000000B58BB0002306930793089313
:101540000993049305930093019302930393264810
:10155000264A02604722426083604FF6FF72C260F3
:1015600003614361836101F05BFB58BB4FF480531F
:10157000069306A91C4801F049FC30BB1A4801F04B
:101580007BFB28BB00230493059304A9164801F0B4
:1015900001FE00BB002300930122019202930393FA
:1015A00008226946104801F0BFFBB8B90223009336
:1015B00001930C2269460C4801F0B6FB88B90BB0C8
:1015C0005DF804FBFFF746FCD0E7FFF743FCD5E7E7
:1015D000FFF740FCD6E7FFF73DFCDBE7FFF73AFCFF
:1015E000E4E7FFF737FCEAE7640C0020002C014039
:1015F00000B587B000230293039304930593026818
:10160000144B9A4202D007B05DF804FB03F5644323
:101610009A6942F400629A619A6902F40062009247
:10162000009A9A6942F004029A619B6903F00403EC
:101630000193019B4FF48063029302A9064800F0D6
:10164000D5F9002211461B2000F030F91B2000F0D4
:101650003DF9D8E7002C01400008014008B50A48D0
:101660000A4B03604FF41653436000238360C3604A
:1016700003610C2242618361C36101F06BFE00B91A
:1016800008BDFFF7E7FBFBE7AC0C0020004400407F
:1016900070B586B000230293039304930593026808
:1016A0001B4B9A4201D006B070BD03F5E633DA69F0
:1016B00042F40032DA61DA6902F400320092009AF0
:1016C0009A6942F004029A619B6903F00403019352
:1016D000019B04230293022303930323059302AE89
:1016E0000C4D3146284600F081F90823029300246E
:1016F000039404943146284600F078F922462146A6
:10170000262000F0D3F8262000F0E0F8CBE700BF59
:101710000044004000080140FFF70AFF0B480C4955
:101720000C4A002302E0D458C4500433C4188C423D
:10173000F9D3094A094C002301E013600432A242A4
:10174000FBD302F09DFAFFF7B9FB704700000020C1
:101750001407002088B30008140700200C10002094
:10176000FEE7000010B504460E4B1A784FF47A736A
:10177000B3FBF2F30C4A1068B0FBF3F000F0B4F8DE
:1017800068B90F2C01D901200AE0002221464FF050
:10179000FF3000F08BF8054B1C60002000E00120BA
:1017A00010BD00BF38000020340000203C000020A5
:1017B00008B5074A136843F010031360032000F0D4
:1017C00063F80F20FFF7CEFFFFF716FE002008BDDD
:1017D00000200240034A1168034B1B780B4413603E
:1017E000704700BFF40C002038000020014B18683F
:1017F000704700BFF40C002038B50446FFF7F6FF31
:101800000546B4F1FF3F02D0044B1B781C44FFF7A0
:10181000EDFF401BA042FAD338BD00BF38000020C6
:10182000002808DB0901C9B200F1604000F5614001
:1018300080F80013704700F00F000901C9B2014B96
:101840001954704714ED00E000B500F00700C0F136
:10185000070CBCF1040F28BF4FF0040C031D062B2E
:101860000FD9C31E4FF0FF3E0EFA0CF021EA000123
:1018700099400EFA03FE22EA0E0241EA02005DF8E8
:1018800004FB0023EEE70000074AD36823F4E0637B
:101890001B041B0C000200F4E060034343F0BF6331
:1018A00043F40033D360704700ED00E010B5044608
:1018B000054BD868C0F30220FFF7C6FF014620465B
:1018C000FFF7AEFF10BD00BF00ED00E0002807DB12
:1018D00000F01F02400901239340024A42F82030E1
:1018E000704700BF00E100E00138B0F1807F0BD20B
:1018F0004FF0E0235861054AF02182F823100020C0
:10190000986107221A6170470120704700ED00E0DE
:10191000034690F82120022A06D004228263002286
:1019200080F820200120704701680A6822F00E022A
:101930000A6001680A6822F001020A60026CC06B4A
:10194000012101FA02F2426083F82110002083F89D
:101950002000704708B590F82130022B03D00423F3
:101960008363012008BD0268136823F00E0313602F
:101970000268136823F0010313600368194A934255
:1019800014D0143293421FD0143293421ED014321A
:1019900093421ED0143293421ED01432934202D08E
:1019A0004FF0807203E04FF4801200E001220E4BF2
:1019B0005A60012380F82130002380F82030436BE7
:1019C0006BB198470020CDE71022F0E74FF480720A
:1019D000EDE74FF48052EAE74FF48032E7E700206A
:1019E000C0E700BF080002400000024070B582B0AE
:1019F0000024A4469EE07C4DAB4214D00CD8A5F543
:101A00008015AB420FD005F57025AB420BD0A5F584
:101A10008015AB421FD106E0744DAB4203D005F5F3
:101A20008035AB4217D18B68A3B1012B0DD0426139
:101A3000082410E0CC680EE0CC6804340BE0CC68DD
:101A4000083408E0CC680C3405E00261082402E0A8
:101A5000002400E00424BEF1FF0F37D806464FEA09
:101A60008C0233680F25954023EA050304FA02F23D
:101A7000134333604B6813F0805F59D05C4B9A6915
:101A800042F001029A619B6903F001030193019BFB
:101A90004FEA9C02951C574B53F825600CF0030548
:101AA000AD000F23AB4026EA0306534B984214D0F7
:101AB00003F58063984279D003F58063984277D02C
:101AC00003F58063984206D0042307E0061DACF1BD
:101AD00008029200C5E7032300E00023AB40334334
:101AE0000232444D45F822304B6813F4801F61D018
:101AF000424A936843EA0E0393604B6813F4001F55
:101B00005ED03E4AD36843EA0E03D3604B6813F4B9
:101B1000003F5BD0394A536843EA0E0353604B6879
:101B200013F4803F58D0354A136843EA0E0313601C
:101B30000CF1010C0B6833FA0CF253D0012202FABB
:101B40000CF203EA020E32EA0303F1D14B68122BC6
:101B50003FF651AF122B3FF67EAF01A555F823F0AB
:101B6000271A0008351A00083F1A0008511A000801
:101B7000571A0008571A0008571A0008571A000881
:101B8000571A0008571A0008571A0008571A000871
:101B9000571A0008571A0008571A0008571A000861
:101BA000571A0008391A0008451A0008012395E75A
:101BB000022393E7114A936823EA0E0393609CE79C
:101BC0000E4AD36823EA0E03D3609FE70B4A53689B
:101BD00023EA0E035360A2E7084A136823EA0E03C0
:101BE0001360A5E702B070BD0000221000003110A4
:101BF00000100240000001400008014000040140C4
:101C00000AB10161704709040161704703685A69AC
:101C100012F4806F01D1002070476FF480625A6126
:101C200000230363202280F83D2080F83E30026CC0
:101C300042F00402026480F83C30012070472DE934
:101C4000F04106460C46174698463BE0FFF7CEFDAE
:101C5000069BC01A404502D8B8F1000F32D1012DC1
:101C600018D033689B6924EA03039BB2B3FA83F369
:101C70005B099F4226D100233363202286F83D2052
:101C800086F83E30326C42F02002326486F83C30F6
:101C9000012027E033685B6924EA03039BB2B3FAAF
:101CA00083F35B09E5E733685B6924EA030C1FFAF9
:101CB0008CFCBCFA8CFC4FEA5C1C674511D1B8F176
:101CC000FF3FC3D1C4F30745012DECD033689B69B6
:101CD00024EA030C1FFA8CFCBCFA8CFC4FEA5C1C57
:101CE000EBE70020BDE8F0812DE9F84305460E46FC
:101CF0009046994653E01A6842F400721A602B68C5
:101D00006FF480625A6100232B63202285F83D2006
:101D100085F83E302A6C42F004022A6485F83C3093
:101D200001204AE0FFF762FDA0EB0900404502D820
:101D3000B8F1000F33D1012F17D02B689B6926EA29
:101D400003039BB2003B18BF012343B300232B6363
:101D5000202285F83D2085F83E302A6C42F0200292
:101D60002A6485F83C30012027E02B685B6926EA6D
:101D700003039BB2003B18BF0123E6E72B689C6975
:101D800026EA0404A4B2003C18BF0124A4B12B68C5
:101D90005A6912F4806FAED1B8F1FF3FC2D1C6F3D9
:101DA0000747012FEAD12B685C6926EA0404A4B234
:101DB000003C18BF0124E9E70020BDE8F8830000DB
:101DC000F0B583B004460D4616461F46C36A082B7D
:101DD0000DD0012B0BD013F5803F08D0036B122BD5
:101DE0000AD10268136843F48073136004E0226828
:101DF000136843F4807313600097334600224FF05A
:101E000001112046FFF71BFF80B92369B3F5804F0E
:101E100016D1236805F0FE051D613B463246134985
:101E20002046FFF761FFF8B903B0F0BD23681B68D7
:101E300013F4807F02D04FF4007323640320F3E790
:101E4000EB11226803F0060343F0F00313613B46F5
:101E5000324607492046FFF747FF18B92368EDB21D
:101E60001D61DAE70120DFE70120DDE70200010064
:101E70000800010070B504460D46164623685B69EC
:101E800013F0800F21D12046FFF7C0FEF8B9B5F15D
:101E9000FF3FF3D0FFF7AAFC801BA84201D8002D1A
:101EA000ECD123685B6913F0800FE7D10023236333
:101EB000202284F83D2084F83E30226C42F020023B
:101EC000226484F83C30012000E0002070BD012035
:101ED000FCE770B504460D46164623685B6913F0AF
:101EE000040F21D12046FFF791FEF8B9B5F1FF3F6D
:101EF000F3D0FFF77BFC801BA84201D8002DECD16A
:101F000023685B6913F0040FE7D1002323632022C9
:101F100084F83D2084F83E30226C42F02002226496
:101F200084F83C30012000E0002070BD0120FCE777
:101F3000002800F0CC8070B5044690F83D30002BAE
:101F400077D0242384F83D302268136823F00103FE
:101F500013602268136843F4004313602268136817
:101F600023F40043136000F07FFC62685A4B9A42EE
:101F700064D85A4B98428CBF00230123002B40F0B9
:101F8000A8805749A1FB00318B0C25686A6822F0B4
:101F90003F0242EA91426A6021680A6A22F03F02E7
:101FA00066684D4DAE424FD8013313430B62216832
:101FB000CA6922F44F4222F0FF026568464B9D42F7
:101FC0004CD8431E6D00B3FBF5F3013340F6FC70B3
:101FD000034278D0C3F30B031A43CA6121680B682C
:101FE00023F0C003E269206A024313430B602168B7
:101FF0008B6823F4034323F0FF032269E068024364
:1020000013438B602168CB6823F0FF036269A069EA
:1020100002431343CB602268136843F0010313604B
:1020200000202064202384F83D30206384F83E00A3
:1020300070BD80F83C30FEF77DFE82E7294B984268
:102040008CBF0023012399E74FF4967505FB03F33A
:10205000254DA5FB03539B090133A6E7A668BEB92E
:10206000431E05EB450CB3FBFCF30133C3F30B0339
:10207000B3FA83F35B0943BBC6B9431E05EB4505C1
:10208000B3FBF5F30133C3F30B0343F40043A3E7BE
:10209000431E05EB850C0CEB8C0CB3FBFCF30133FE
:1020A000C3F30B03B3FA83F35B09E4E7431E05EBC9
:1020B000850505EB8505B3FBF5F30133C3F30B038E
:1020C00043F4404388E7042386E7012384E70120A3
:1020D00070470120ACE700BFA08601007F841E008E
:1020E00083DE1B43FF083D00D34D62102DE9F04312
:1020F00085B004460F46904699460C9EFFF776FB46
:1021000094F83D10202904D00227384605B0BDE8D8
:10211000F08305460090192301224F492046FFF71E
:102120008EFD002840F0928094F83C30012B00F0A6
:102130008F80012384F83C3023681A6812F0010F65
:1021400003D11A6842F001021A602268136823F46E
:1021500000631360212384F83D30102384F83E305F
:1021600000232364C4F82480A4F82A90638D238577
:102170003A4BE3622B46324639462046FFF720FEB3
:102180000746002866D10023039323685A69039207
:102190009B690393039B11E0236C042B01D001275F
:1021A000B3E72268136843F400731360F7E72A4625
:1021B00031462046FFF78DFE00282ED1238D002BBF
:1021C00036D02A4631462046FFF754FE0028E3D198
:1021D000626A236812781A61606A431C6362618DC7
:1021E00089B2013989B26185238D013B9BB2238578
:1021F0002268516911F0040FD9D0002BD7D0437851
:102200001361636A01336362638D9BB2013B9BB2CE
:102210006385238D013B2385C9E7236C042B01D003
:10222000012772E72268136843F400731360F7E72D
:102230002268136843F400731360202384F83D3050
:10224000002384F83E3084F83C305EE702275CE7E8
:1022500002275AE7012758E7020010000000FFFF9D
:1022600082B0084B1B68084AA2FB03235B0A00FBF1
:1022700003F3019300BF019B5A1E0192002BF9D179
:1022800002B0704734000020D34D6210002800F0E7
:10229000F18170B582B00446036813F0010F2CD0B1
:1022A000994B5B6803F00C03042B1DD0964B5B68C5
:1022B00003F00C03082B12D06368B3F5803F41D0C4
:1022C000002B55D103F1804303F504331A6822F43F
:1022D00080321A601A6822F480221A6037E08A4B32
:1022E0005B6813F4803FE7D0874B1B6813F4003F13
:1022F00003D06368002B00F0BF81236813F0020F46
:1023000075D0814B5B6813F00C0F5FD07E4B5B6820
:1023100003F00C03082B54D02369002B00F08A80B3
:102320007A4B01221A60FFF761FA0546764B1B686B
:1023300013F0020F75D1FFF759FA401B0228F5D9A7
:1023400003209EE1704A136843F48033136063688E
:1023500043B3FFF74BFA05466B4B1B6813F4003F82
:10236000CBD1FFF743FA401B6428F5D9032088E15D
:10237000B3F5A02F09D0644B1A6822F480321A609A
:102380001A6822F480221A60E1E703F18043A3F582
:102390003C331A6842F480221A601A6842F4803290
:1023A0001A60D4E7FFF722FA0546574B1B6813F46F
:1023B000003FA2D0FFF71AFA401B6428F5D903208A
:1023C0005FE1514B5B6813F4803FA5D14E4B1B6816
:1023D00013F0020F03D02369012B40F04F814A4ACA
:1023E000136823F0F803616943EAC10313602368AB
:1023F00013F0080F33D0A369002B5CD0434B0122AC
:10240000C3F88024FFF7F2F905463F4B5B6A13F0EF
:10241000020F21D1FFF7EAF9401B0228F5D903206A
:102420002FE1394A136823F0F803616943EAC103D5
:102430001360DCE7354B00221A60FFF7D7F9054639
:10244000314B1B6813F0020FD1D0FFF7CFF9401BBF
:102450000228F5D9032014E10120FFF701FF2368CA
:1024600013F0040F00F09680274BDB6913F0805FB8
:1024700034D1254BDA6942F08052DA61DB6903F02E
:1024800080530193019B0125214B1B6813F4807F2E
:1024900026D0E368012B3DD0002B53D103F18043BC
:1024A00003F504331A6A22F001021A621A6A22F052
:1024B00004021A6233E0154B0022C3F88024FFF7B0
:1024C00095F90546104B5B6A13F0020FC7D0FFF772
:1024D0008DF9401B0228F5D90320D2E00025D3E76F
:1024E0000B4A136843F480731360FFF77FF90646C5
:1024F000074B1B6813F4807FCBD1FFF777F9801B64
:102500006428F5D90320BCE00010024000004242DC
:10251000007000405F4A136A43F001031362E368EE
:1025200033B3FFF763F906465A4B1B6A13F0020FE9
:102530002FD1FFF75BF9801B41F288339842F3D922
:1025400003209EE0052B09D0524B1A6A22F00102AB
:102550001A621A6A22F004021A62E0E74D4B1A6A04
:1025600042F004021A621A6A42F001021A62D6E7C5
:10257000FFF73CF90646474B1B6A13F0020F08D0E1
:10258000FFF734F9801B41F288339842F3D90320D6
:1025900077E0E5B9E369002B72D03E4A526802F059
:1025A0000C02082A56D0022B17D03B4B00221A6689
:1025B000FFF71CF90446374B1B6813F0007F47D028
:1025C000FFF714F9001B0228F5D9032059E0314A1E
:1025D000D36923F08053D361DCE72F4B00221A66C6
:1025E000FFF704F905462B4B1B6813F0007F06D05C
:1025F000FFF7FCF8401B0228F5D9032041E0236ACD
:10260000B3F5803F1AD023494B6823F47413226A30
:10261000606A024313434B601F4B01221A66FFF7A7
:10262000E5F804461B4B1B6813F0007F0ED1FFF743
:10263000DDF8001B0228F5D9032022E0154A536873
:1026400023F40033A1680B435360DCE7002018E05B
:10265000002016E0012B16D00E4B5B6803F480318E
:10266000226A914211D103F47013626A93420ED12F
:10267000002006E001207047012002E0012000E078
:10268000002002B070BD0120FBE70120F9E7012026
:10269000F7E700BF00100240000042420F4B5B68AA
:1026A00003F00C02082A01D00D487047C3F383429F
:1026B0000C49885C13F4803F0BD0084B5B68C3F374
:1026C0004043094AD35C064A02FB00F0B0FBF3F03A
:1026D0007047064B03FB00F0704700BF001002403C
:1026E00000127A0020B100081CB1000800093D006A
:1026F000002800F0A08070B50D460446524B1B68C0
:1027000003F007038B420BD24F4A136823F00703F1
:102710000B431360136803F007038B4240F08D8076
:10272000236813F0020F17D013F0040F04D0474AA8
:10273000536843F4E0635360236813F0080F04D038
:10274000424A536843F460535360404A536823F04D
:10275000F003A1680B435360236813F0010F31D0DD
:102760006368012B20D0022B25D0384A126812F062
:10277000020F64D035494A6822F0030213434B60CC
:10278000FFF734F80646314B5B6803F00C036268D0
:10279000B3EB820F16D0FFF729F8801B41F2883384
:1027A0009842F0D9032045E0284A126812F4003F0D
:1027B000E0D101203EE0254A126812F0007FD9D115
:1027C000012037E0204B1B6803F00703AB420AD916
:1027D0001D4A136823F007032B431360136803F0AB
:1027E0000703AB422DD1236813F0040F06D0174A1C
:1027F000536823F4E063E1680B435360236813F0EC
:10280000080F07D0114A536823F46053216943EA43
:10281000C1035360FFF742FF0C4B5B68C3F3031324
:102820000B4AD35CD8400B4B18600B4B1868FEF773
:1028300099FF002070BD012070470120FAE70120B8
:10284000F8E70120F6E700BF002002400010024038
:102850000CB10008340000203C000020014B186837
:10286000704700BF3400002008B5FFF7F7FF044BA6
:102870005B68C3F30223034AD35CD84008BD00BFA2
:102880000010024004B1000808B5FFF7E7FF044B51
:102890005B68C3F3C223034AD35CD84008BD00BFC2
:1028A0000010024004B1000810B4036A046A24F066
:1028B00001040462846924F0F00C4CEA021223F053
:1028C0000A030B438261036210BC704730B4056A8F
:1028D000046A24F010040462846924F4407C4CEA05
:1028E000022C2CF4704C1B039BB243EA0C0325F022
:1028F000A005090101F0A00129438361016230BCF8
:10290000704710B4036A046A24F0100404628469F6
:1029100024F4704C4CEA023223F0A00343EA011382
:102920008261036210BC704730B4056A046A24F403
:1029300080740462C46924F0030C4CEA020C2CF08D
:10294000F00C1B01DBB243EA0C0325F4007509020D
:1029500001F400712943C361016230BC704730B497
:10296000056A046A24F480540462C46924F4407C37
:102970004CEA022C2CF4704C1B039BB243EA0C0370
:1029800025F40055090301F400512943C361016294
:1029900030BC7047836823F070030B4343F0070398
:1029A0008360704790F83D30012B22D1022380F8DC
:1029B0003D300368114A934210D0B3F1804F0DD0DF
:1029C000A2F59432934209D002F58062934205D079
:1029D0001A6842F001021A60002070479A6802F0FB
:1029E0000702062A07D01A6842F001021A60002086
:1029F0007047012070470020704700BF002C014045
:102A000070470C2914D8DFE801F0071313130A13D9
:102A100013130D13131310000368586B70470368EA
:102A2000986B70470368D86B70470368186C7047E1
:102A300000207047704770477047704770B5044674
:102A40000368DE681D6915F0020F10D016F0020F42
:102A50000DD06FF002021A610123037703689B69AE
:102A600013F0030F5ED0FEF7BFF90023237715F0B4
:102A7000040F12D016F0040F0FD023686FF0040279
:102A80001A610223237723689B6913F4407F4FD098
:102A90002046FEF7A9F90023237715F0080F12D07E
:102AA00016F0080F0FD023686FF008021A61042394
:102AB00023772368DB6913F0030F40D02046FEF72D
:102AC00093F90023237715F0100F12D016F0100F92
:102AD0000FD023686FF010021A6108232377236850
:102AE000DB6913F4407F31D02046FEF77DF90023E7
:102AF000237715F0010F02D016F0010F2DD115F03C
:102B0000800F02D016F0800F2FD115F0400F02D0A9
:102B100016F0400F31D115F0200F02D016F0200F23
:102B200033D170BDFFF787FF2046FFF785FF9CE795
:102B30002046FFF780FF2046FFF77EFFABE72046E9
:102B4000FFF779FF2046FFF777FFBAE72046FFF748
:102B500072FF2046FFF770FFC9E723686FF001029C
:102B60001A612046FFF766FFC9E723686FF080020D
:102B70001A61204600F045FBC7E723686FF040026A
:102B80001A612046FFF759FFC5E723686FF020025E
:102B90001A61204600F034FBC3E7000003681F4AB7
:102BA00090420AD0B0F1804F07D0A2F59432904203
:102BB00003D002F58062904203D123F070034A688B
:102BC0001343164A90420AD0B0F1804F07D0A2F5C5
:102BD0009432904203D002F58062904203D123F4F4
:102BE0004073CA68134323F080034A6913430360A8
:102BF0008B68C3620B688362084B98420AD001233A
:102C00004361036913F0010F03D0036923F001034B
:102C1000036170470B690363F1E700BF002C0140BB
:102C200040B310B5044690F83D30F3B1022384F868
:102C30003D30214651F8040BFFF7B0FF012384F823
:102C4000463084F83E3084F83F3084F8403084F8D1
:102C5000413084F8423084F8433084F8443084F8BA
:102C6000453084F83D30002010BD80F83C30FEF740
:102C7000BFFCDBE70120704740B310B5044690F875
:102C80003D30F3B1022384F83D30214651F8040B66
:102C9000FFF784FF012384F8463084F83E3084F83F
:102CA0003F3084F8403084F8413084F8423084F872
:102CB000433084F8443084F8453084F83D300020B7
:102CC00010BD80F83C30FFF79BFEDBE7012070472A
:102CD00070B4056A046A24F0010404628469114E28
:102CE000B0420DD0B0F1804F0AD0A6F59436B04274
:102CF00006D006F58066B04202D044F0010202E040
:102D000024F00304224322F0F0021B01DBB2134340
:102D100025F00A0201F00A0111438361016270BCCF
:102D2000704700BF002C014038B590F83C30012BB3
:102D30005ED004460D46012380F83C300C2A52D860
:102D4000DFE802F007515151195151512C515151A5
:102D50003E00CB684A6809680068FFF7B9FF22683F
:102D6000936923F00C03936122689369A9680B436C
:102D70009361002038E0CB684A6809680068FFF773
:102D8000A5FD2268936923F44063936122689369E7
:102D9000A96843EA01239361002025E0CB684A68D3
:102DA00009680068FFF7C0FD2268D36923F00C03AF
:102DB000D3612268D369A9680B43D361002013E073
:102DC000CB684A6809680068FFF7C9FD2268D369C3
:102DD00023F44063D3612268D369A96843EA0123DD
:102DE000D361002000E00120002384F83C3038BD8E
:102DF0000220FCE710B4846824F47F4C42EA0322EA
:102E00000A4342EA0C02826010BC704790F83C30E2
:102E1000012B78D010B50446012380F83C30022302
:102E200080F83D300268936823F47F4323F07703F2
:102E300093600B68602B4CD023D8402B54D011D812
:102E4000202B03D00AD80BB1102B05D119462068CE
:102E5000FFF7A0FD002028E0012026E0302BF5D070
:102E6000012022E0502B0AD1CA6849680068FFF7A8
:102E70001BFD50212068FFF78DFD002015E001208B
:102E800013E0B3F5805F3AD0B3F5005F14D0702B38
:102E900037D1CB684A6889680068FFF7ABFF2268C2
:102EA000936843F0770393600020012384F83D305A
:102EB000002384F83C3010BDCB684A6889680068FC
:102EC000FFF798FF2268936843F4804393600020E3
:102ED000EBE7CA6849680068FFF713FD60212068C6
:102EE000FFF758FD0020E0E7CA6849680068FFF76F
:102EF000DBFC40212068FFF74DFD0020D5E70020D6
:102F0000D3E70120D1E70220704701F01F014FF005
:102F1000010C0CFA01FC036A23EA0C030362036A46
:102F20008A4013430362704710B504460B4651BBF9
:102F300090F83E00C0B294F84220D2B201286BD182
:102F4000012A6AD1002B3DD1022284F83E2084F868
:102F50004220012219462068FFF7D7FF2368304A34
:102F600093424ED0B3F1804F4BD0A2F594329342AE
:102F700047D002F58062934243D01A6842F00102C2
:102F80001A60002049E004290CD008290ED090F8DE
:102F90004100C0B2042B0DD0082B0FD094F845206F
:102FA000D2B2CBE790F83F00C0B2F3E790F8400010
:102FB000C0B2EFE794F84320D2B2BFE794F84420C0
:102FC000D2B2BBE7042B0CD0082B0ED0022284F81F
:102FD0004120042B0DD0082B0FD0022284F845206D
:102FE000B7E7022284F83F20F3E7022284F840206A
:102FF000EFE7022284F84320ABE7022284F8442062
:10300000A7E79A6802F00702062A07D01A6842F07A
:1030100001021A60002000E0012010BD0020FCE742
:10302000002C014010B504460B46002931D190F820
:103030003E00C0B294F84220D2B2012840F0A180F4
:10304000012A40F09F80002B42D1022284F83E20CA
:1030500084F842202168CA6842F00202CA60012254
:1030600019462068FFF751FF2368494A93427DD0F3
:10307000B3F1804F7AD0A2F59432934276D002F524
:103080008062934272D01A6842F001021A600020F6
:1030900078E004290CD008290ED090F84100C0B285
:1030A000042B0DD0082B0FD094F84520D2B2C4E7E2
:1030B00090F83F00C0B2F3E790F84000C0B2EFE7ED
:1030C00094F84320D2B2B8E794F84420D2B2B4E7DF
:1030D000042B2BD0082B2DD0022184F84110042B77
:1030E0002CD0082B33D0022184F845100C2B4AD861
:1030F00001A151F823F000BF5530000887310008C6
:103100008731000887310008433100088731000803
:1031100087310008873100085531000887310008E1
:10312000873100088731000861310008022184F8E6
:103130003F10D4E7022184F84010D0E7022284F83F
:1031400043202168CA6842F00402CA6087E702226D
:1031500084F844202168CA6842F00802CA607EE709
:103160002168CA6842F01002CA6078E79A6802F0E3
:103170000702062A09D01A6842F001021A600020EC
:1031800000E0012010BD1046FCE70020FAE700BF78
:10319000002C014090F83C20012A2CD010B40346AA
:1031A000012280F83C20022280F83D20026850680D
:1031B000946820F0700C086840EA0C0050601A68AF
:1031C0000E4882420AD0B2F1804F07D0A0F5943069
:1031D000824203D000F58060824204D124F0800452
:1031E000496821439160012283F83D20002083F843
:1031F0003C0010BC70470220704700BF002C01400B
:1032000070477047026802F10C0353E8003F23F453
:1032100090730C3242E800310029F3D1026802F1C8
:10322000140353E8003F23F00103143242E8003155
:103230000029F3D1036B012B05D0202380F8423005
:10324000002303637047026802F10C0353E8003F58
:1032500023F010030C3242E800310029F3D1ECE7EF
:1032600090F84130212B01D0022070478368B3F5DC
:10327000805F17D0036A5A1C02621A7803685A608A
:10328000C38C9BB2013B9BB2C3844BB90268D36829
:1032900023F08003D3600268D36843F04003D36017
:1032A000002070470369002BE4D1036A1B88026881
:1032B000C3F308035360036A02330362E0E70000CC
:1032C00010B504460268136923F44053C1680B43E8
:1032D000136183680269134342691A430168CB682A
:1032E00023F4B05323F00C031343CB6002685369FB
:1032F00023F4407381690B4353610268134B9A4274
:1033000020D0FFF7B1FA024602EB820202EB820202
:1033100063689B00B2FBF3F20D48A0FB0231490940
:10332000642303FB11231B013233A0FB03035B095E
:1033300003F0F00202EB011203F00F0321681344C3
:103340008B6010BDFFF7A0FA0246DDE700380140B0
:103350001F85EB5160B310B5044690F8413013B3AC
:10336000242384F841302268D36823F40053D360C7
:103370002046FFF7A5FF2268136923F490431361E9
:103380002268536923F02A0353612268D36843F407
:103390000053D36000206064202384F8413084F817
:1033A0004230606310BD80F84030FEF771F9D7E716
:1033B0000120704790F84130202B10D189B192B193
:1033C00001628284C28400234364212280F8412068
:1033D0000168CA6842F08002CA601846704702203D
:1033E00070470120704701207047704708B5016899
:1033F000CA6822F04002CA60202280F84120FFF70C
:10340000F4FF002008BD7047704708B5406A0023EC
:10341000C385C384FFF7F8FF08BD90F84230222B24
:1034200069D18368B3F5805F4FD0826AB3F5805F5E
:1034300004D0002B56D10369002B53D103685B687D
:103440001370836A01338362C38D9BB2013B9BB2CD
:10345000C385002B51D100B583B00268D36823F037
:103460002003D3600268D36823F48073D3600268BA
:10347000536923F001035361202380F84230002375
:103480004363036B012B33D100230363026802F112
:103490000C0353E8003F23F010030C3242E80031E4
:1034A0000029F3D103681A6812F0100F06D0002229
:1034B00001921A6801925B680193019B818DFDF76F
:1034C00075FC002003B05DF804FB0269002AACD152
:1034D000826A03685B68C3F308031380836A02335C
:1034E0008362B1E703685B6803F07F031370A8E7AA
:1034F000FFF789FFE5E702207047002070470000D2
:1035000010B582B0044602681368D068516913F0A0
:103510000F0F09D113F0200F0CD010F0200F09D09D
:103520002046FFF77AFF16E011F0010115D110F4E3
:10353000907F12D1216B012979D013F0800F03D035
:1035400010F0800F40F0138113F0400F03D010F003
:10355000400F40F0108102B010BD13F0010F06D0F3
:1035600010F4807F03D0626C42F00102626413F0B9
:10357000040F04D019B1626C42F00202626413F0CD
:10358000020F04D019B1626C42F00402626413F0BD
:10359000080F07D010F0200F00D119B1626C42F073
:1035A00008026264626C002AD5D013F0200F02D0AA
:1035B00010F0200F29D123685B6903F04003626C8F
:1035C00012F0080F00D163B32046FFF71BFE2368FB
:1035D0005B6913F0400F20D0226802F1140353E816
:1035E000003F23F04003143242E800310029F3D1B8
:1035F000E36B73B1624A5A63E06BFEF7ABF90028E4
:10360000A9D0E06B436B9847A5E72046FFF705FF7D
:10361000D1E72046FFF7F8FE9DE72046FFF7F4FECE
:1036200099E72046FFF7F0FE0023636493E713F069
:10363000100F82D010F0100F3FF47FAF00230193E2
:103640001368019353680193019B536913F0400F72
:1036500051D0E26B13685B689BB2002B3FF47BAFE9
:10366000A18D99427FF677AFE3859369202B37D000
:10367000226802F10C0353E8003F23F480730C32FC
:1036800042E800310029F3D1226802F1140353E823
:10369000003F23F00103143242E800310029F3D146
:1036A000226802F1140353E8003F23F04003143270
:1036B00042E800310029F3D1202384F8423000236E
:1036C0002363226802F10C0353E8003F23F0100348
:1036D0000C3242E800310029F3D1E06BFEF718F913
:1036E00002236363A18DE38D9BB2C91A89B2204680
:1036F000FDF75CFB2FE7A18DE38D9BB2C91A89B260
:10370000E38D9BB2002B3FF426AF00293FF423AF9B
:10371000226802F10C0353E8003F23F490730C324B
:1037200042E800300028F3D1226802F1140353E884
:10373000003F23F00103143242E800300028F3D1A7
:10374000202384F8423000232363226802F10C0313
:1037500053E8003F23F010030C3242E80030002809
:10376000F3D1022363632046FDF720FBF3E62046F6
:10377000FFF776FDEFE62046FFF738FEEBE600BFE9
:103780000B34000881628285C285002343642223B2
:1037900080F84230036923B10268D36843F4807330
:1037A000D3600268536943F0010353610268D36830
:1037B00043F02003D3600020704790F84230202B64
:1037C00029D110B582B0044639B312B9012002B034
:1037D00010BD0123036300234363FFF7D3FF0028D9
:1037E000F5D1236B012B01D00120F0E700230193D9
:1037F00023681A6801925B680193019B226802F1B9
:103800000C0353E8003F43F010030C3242E8003150
:103810000029F3D1DBE7022070470120D7E7000041
:10382000024A0349034800F0C9B800BF4000002025
:1038300039680008500000200C4B416810B59942CF
:10384000044601D002F0F8FFA168094B994202D06A
:10385000204602F0F1FFE168064B994204D0204671
:10386000BDE8104002F0E8BF10BD00BFF80C00201A
:10387000600D0020C80D00202DE9F8430025042329
:10388000304C314A3149DFF8C890DFF8C880324FF8
:10389000324E116004F15C0029460822C4E9033568
:1038A000C4E90055C4E90555A560656600F040F916
:1038B00004F15800C4E90749C4E90987E66200F049
:1038C00007FA274B2946082204F1C4006367C4E9BC
:1038D0001A55C4E91E552567C4F8CC50C4F8805069
:1038E00000F026F904F1680304F1C000C4F8843044
:1038F000C4E92298C4E9247600F0EAF9194B294674
:1039000004F596700822C4F8DC30C4E93455C4E9E3
:103910003855C4F8D850C4F83451C4F8E85000F011
:1039200007F904F1D003C4E93D87C4F8F09004F529
:103930009470C4F8FC60C4F8EC30BDE8F84300F0C3
:10394000C7B900BFF80C0020300E00202138000855
:10395000453A0008693A0008A93A0008CD3A00083B
:10396000090001001200020010B504460A4800F0E8
:10397000B3F9636B23B9094B094A1B68626323B12E
:10398000BDE81040044800F0A9B9FFF775FFBDE895
:103990001040014800F0A2B9400E0020300E002077
:1039A00039380008014800F097B900BF400E0020E8
:1039B000014800F093B900BF400E00202DE9F84304
:1039C0004FF0000980460F461646D6E90154013DE6
:1039D00010D4A389012B08D9B4F90E30013304D0D7
:1039E00021464046B84749EA0009013D6B1C04F1F5
:1039F0006804EED13668002EE7D14846BDE8F8836A
:103A00000EB470B504466FF0004600259DB00B4A19
:103A100021AB0B49106853F8042B059102A9CDE99D
:103A20000134049607961B95069400F0B1FD029BA5
:103A30001D701DB0BDE8704003B070474C00002001
:103A40000802FFFF10B50C46B1F90E1000F0E6F8C1
:103A5000002803DB236D0344236510BDA38923F4F1
:103A60008053A38110BD00BF2DE9F0410C46B1F990
:103A70000C101F46CB05054616460BD421F4805189
:103A8000A1813B4632462846B4F90E10BDE8F0410C
:103A900000F0DAB8B4F90E100223002200F0A8F802
:103AA000B4F90C10EAE700BF10B50C46B1F90E10DE
:103AB00000F09EF8B4F90C30421C0EBF23F4805382
:103AC00043F480532065A38110BD00BFB1F90E10EF
:103AD00000F07CB8032A30B412D941EA0004A407EC
:103AE00084460B4621D11946604653F8044B5CF8D6
:103AF000045BA54219D1043A032AF4D8604619465A
:103B0000541E7AB1431E0139021901E09A4209D0CC
:103B100013F8010F11F801CF6045F7D0A0EB0C00AE
:103B200030BC7047002030BC7047541EEAE700BF2D
:103B3000830730B546D08446841805E0634603F811
:103B4000011B9D0703D09C46A445F7D130BD013A27
:103B50000244A2EB0C02032A29D9CCB204EB0424C0
:103B60000F2A04EB04442FD9A2F1100C2CF00F0CF7
:103B700003F11005AC44C3E90044C3E90244103327
:103B80006345F8D112F00C0F02F00F0E18D01A4650
:103B90002EF0030C9C44AEF1040542F8044B624540
:103BA000FBD125F0030404330EF003022344002A62
:103BB000CCD0C9B21A4403F8011B9342FBD130BDEB
:103BC0007246F4E70346C6E79646E0E7002238B5BA
:103BD000064D044608462A60FDF77AFC431C00D0D7
:103BE00038BD2B68002BFBD0236038BD340E00207D
:103BF00038B50C46114600228446074D20462A60FF
:103C00001A466446FDF76EFC431C00D038BD2B6895
:103C1000002BFBD0236038BD340E002038B50C4695
:103C2000114600228446074D20462A601A46644603
:103C3000FDF730FC431C00D038BD2B68002BFBD0B7
:103C4000236038BD340E002038B50C4611460022E2
:103C50008446074D20462A601A466446FDF72AFC32
:103C6000431C00D038BD2B68002BFBD0236038BD2F
:103C7000340E0020014B1868704700BF4C00002034
:103C800070B50F4B0F4DAB42A3EB050607D00024D8
:103C9000B61055F8043B01349847A642F9D806F00F
:103CA00095FC094D094B5E1BAB424FEAA60606D0B8
:103CB000002455F8043B01349847A642F9D870BD5A
:103CC0007CB300087CB300087CB3000884B3000810
:103CD000704700BF704700BF704700BF704700BF0C
:103CE00020F0030110F00300C0F1000051F8043B84
:103CF00000F1040C4FEACC0C6FF000021CBF22FA5A
:103D00000CF213434FF0010C4CEA0C2C4CEA0C4C17
:103D1000A3EB0C0222EA030212EACC1204BF51F810
:103D2000043B0430F4D0C2F1000102EA0102B2FA0D
:103D300082F2C2F11F0200EBD2007047024B13B1B6
:103D4000024800F005B8704700000000156B00083D
:103D5000002301461A46184602F074BF2DE9F843C5
:103D600006460820894602F0E9FE0546DFF89880FD
:103D7000304600F001FCD8F808305F6827F00307F0
:103D8000A7F11104A4EB09042C44B4FBF5F4013CA5
:103D900005FB04F4A54208DC0021304602F0A8FE31
:103DA000D8F808303B44984205D0304600F0EAFB92
:103DB0000020BDE8F8833046614202F099FE0130F0
:103DC0000FD0124AD8F808303F1B47F001075F6058
:103DD000136830461B1B136000F0D4FB0120BDE8C4
:103DE000F8830021304602F083FED8F80820831AB9
:103DF0000F2BDADD43F001035360054B03491B68C9
:103E0000C01A0860D1E700BFA0010020480E0020C2
:103E10009401002000295AD0F8B50C46074600F05E
:103E2000ABFB54F804CC724DA4F108022CF0010352
:103E3000D118A8684E68884226F003060CF0010EDF
:103E40007CD04E608819406800F00100BEF1000F80
:103E50002ED154F8084C05F1080C121B2344946829
:103E6000644560D0D2F80CE0C4F80CE0CEF808400D
:103E700000287DD043F0010050600B60B3F5007F57
:103E80002ED25809D90801238340686801310343C1
:103E90006B6055F8310005EBC103083BC2E9020332
:103EA00045F83120C2603846BDE8F84000F06ABBF2
:103EB00070B9334405F1080C886843F0010460458B
:103EC0006ED0C968C16088605460D350D6E770472F
:103ED0004CF00101B3F5007F44F8041CD350D0D35B
:103EE000B3F5206F4FEA532144D2990901F139000B
:103EF00001F13804C100681869580838884203D1B4
:103F000055E08968884204D04C6824F003049C4240
:103F1000F7D8C868C2E9021082603846BDE8F840A8
:103F2000CA6000F02FBB80BB1E44D1E90213CB60F6
:103F3000996046F0010353609651B4E71E44BEF108
:103F4000000F07D154F8083CD21A1E44D2E90213DC
:103F5000CB60996046F001035360264BAA601B6852
:103F6000B342A0D8244B38461968FFF7F7FE9AE70A
:103F70003344A1E714290DD954291FD8190B01F195
:103F80006F0001F16E04C100B5E743F0010050601D
:103F90000B6088E701F15C0001F15B04C100AAE756
:103FA000C5E90422C2E902CC5460D3507BE7012367
:103FB000A410A3406C6823436B60ABE7B1F5AA7F04
:103FC00006D8D90B01F1780001F17704C10092E71E
:103FD00040F25450814206D8990C01F17D0001F164
:103FE0007C04C10087E74FF47E717E2483E700BF25
:103FF000A001002098010020780E00202DE9F04F4C
:1040000001F10B05162D064683B024D8102900F2C5
:10401000AE8000F0B1FA102518234FF0020CC04F0B
:104020003B445C68A3F10802944200F05F81304693
:104030006368E268A16823F00303CA6023449160C7
:104040005A68083442F001025A6000F09BFA204698
:1040500003B0BDE8F08F35F0070500F18880A94274
:1040600000F2858000F088FAB5F5FC7FC0F0B181E0
:104070006B0A00F08380042B00F26E81AB0903F120
:10408000390C03F1380E4FEACC00A54F3844446890
:104090000838A04207D10DE0002AE16880F22081B3
:1040A000884207D00C46636823F003035A1B0F2A8B
:1040B000F2DDF446DFF86C823C69444500F0FD8097
:1040C000636823F00309A9EB05030F2B00F3868136
:1040D000002BC7E9048880F27081B9F5007FD7F81A
:1040E00004E080F00A8101234FEAD9014FEA59190F
:1040F000194403FA09F357F831204EEA030E07EB8F
:10410000C103083BA260E360C7F804E047F8314010
:10411000D46001204FEAAC039840704535D810EACE
:104120000E0F07D12CF0030C400010EA0E0F0CF11B
:10413000040CF9D007EBCC0AD646E146DEF80C3089
:104140000BE059681C4621F003014A1B0F2ADB686B
:1041500000F30F81002A80F223819E45F1D109F1FD
:10416000010919F0030F0EF1080EE7D160E10C23ED
:1041700033600024204603B0BDE8F08F4FF4007098
:104180004FF0400C4FF03F0E7FE7BC68636823F0B0
:104190000309A94504D3A9EB05030F2B00F3908075
:1041A000614B08201B6803F1100804EB090300931E
:1041B00002F0C4FC5D4A83461368A844013305D06D
:1041C00008F1FF388044434203EA0808414630467C
:1041D00002F08EFCB0F1FF3F8246544A00F0198194
:1041E00004EB0903834200F21281514B0BF1FF3CB7
:1041F00018684044186000F068811168013100F0CF
:10420000708104EB0902AAEB020202441A601AF060
:104210000702CDE9002300F02A81C2F1080292448E
:10422000D04408EA0C015A44521A02EA0C0B5946CF
:10423000304602F05DFC421C019B00F06F81A0EB58
:104240000A0000EB0B08186848F001025844BC4211
:10425000C7F808A01860CAF8042017D0B9F10F0FEA
:1042600040F242814FF0050C6168A9F10C0222F086
:10427000070201F00101114361600F2A04EB020102
:10428000C1E901CC00F25281DAF804205446294BEE
:104290001968814238BF1860274B1968814238BFBE
:1042A000186022F00308A845A8EB050301D30F2BE3
:1042B00006DC304600F066F95BE7D7F804E028E753
:1042C000621943F0010345F0010565603046BA60AC
:1042D0000834536000F056F9204603B0BDE8F08F73
:1042E000A2683046D16023448A60A9E6DC68A34214
:1042F0007FF49DAE0CF1020CDCE6B9F5206F4FEABD
:1043000059227DD3142A00F2C58002F15C03DB0040
:104310005B32F918FB580839994212D19EE000BF70
:10432000A0010020A8010020780E002094010020A8
:10433000480E0020740E0020700E00209B689942E9
:1043400004D05A6822F003024A45F7D8D968C4E974
:1043500002318C60DC60DCE6142B5DD9542B00F25A
:10436000A2802B0B03F16F0C03F16E0E4FEACC0011
:104370008BE6D4F808C03046661945F00105656043
:10438000CCF80C30C3F808C042F00103C7E904665A
:10439000C6E902887360625000F0F4F80834E9E678
:1043A00021444A68304642F001024A6054F8082F1E
:1043B000D3609A6000F0E6F8DCE6A144D9F8043056
:1043C000304643F00103C9F8043000F0DBF808344C
:1043D000D0E64FEAD50C05F1080320E6621943F058
:1043E000010145F0010565603046C7E90422C2E9D4
:1043F0000288516044F8093000F0C4F80834B9E686
:104400004FEA991202F13903DB00383281E7BC42EE
:1044100054D0BC68626844E703F15C0C03F15B0EA6
:104420004FEACC0031E65AF80839534540F09F80F6
:104430001CF0030F0CF1FF3CF5D17B6823EA00036D
:104440007B60400098423FF6A0AE18B99DE6400060
:1044500009F104091842FAD0CC466BE6012092100B
:1044600000FA02F24EEA020EC7F804E06FE70AEB28
:10447000080202EA0C02ABEB020202EA0C0B5946FC
:10448000304602F035FB431C019B7FF4D8AEDDF8CB
:1044900000B0D8E6542A2BD84FEA193202F16F0344
:1044A000DB006E3235E7B3F5AA7F2BD8EB0B03F1B7
:1044B000780C03F1770E4FEACC00E6E52D4B0BF1BB
:1044C000FF3C18684044186097E61AEA0C0F7FF426
:1044D00094AED7F808A0C84448F00102CAF80420F6
:1044E000D4E6C2F800A092E60123CAF80430E0E660
:1044F000B2F5AA7F25D84FEAD93202F17803DB0062
:10450000773206E740F25452934225D8AB0C03F1C0
:104510007D0C03F17C0E4FEACC00B6E5009A4FF01B
:10452000000B083A9044A8EB0A088CE6304604F1E8
:1045300008010093FFF76EFC009BD7F808A01868ED
:10454000A2E640F254539A420DD84FEA994202F142
:104550007D03DB007C32DCE64FF47E704FF07F0C95
:104560004FF07E0E91E54FF47E737E22D1E67B689C
:1045700067E700BF480E00200148FFF7ADBB00BF52
:10458000380E00200148FFF7A9BB00BF380E0020FD
:104590002DE9F04FDBB00C4615460A910E93834689
:1045A00002F0A2FA036818461793FFF799FB082256
:1045B000169000212AA8FFF7BBFAA3891B0603D592
:1045C0002369002B01F0A980002300249E46CDE939
:1045D0002F33002331AACDE912342F461446CDE9FA
:1045E0001AEE2E92CDF860E0CDF864E0CDF820E030
:1045F000CDF844E03D466E4BD3F8E46002F06EFA2D
:104600000DF1A80C03462A46584626A9CDF800C04D
:10461000B047002800F09F80C0F29580269B252B94
:1046200001D00544E7E7B5EB0708064640F0978060
:1046300000224FF0FF339246079301352B788DF817
:104640008F20099299460135A9F120035A2B00F2D7
:10465000B180DFE813F03A02AF00AF003602AF00DE
:10466000AF00AF001902AF00AF006A00F301AF0066
:10467000EF01FC01AF00F8015B005B005B005B0039
:104680005B005B005B005B005B00AF00AF00AF0056
:10469000AF00AF00AF00AF002301AF007901F70218
:1046A000230123012301AF00AF00AF00AF00F302ED
:1046B000AF00AF004402AF00AF00AF00B601AF00E3
:1046C0009902AF00AF00B707AF00AF00AF00AF0077
:1046D000AF00AF00AF00AF002301AF00790164016C
:1046E000230123012301180364017400AF00310387
:1046F000AF00220366033B037400AF00B6017200F3
:10470000D202AF00AF002908AF0072000022A9F169
:10471000300315F8019B02EB820203EB4202A9F180
:104720003003092BF5D909928EE70E9B53F8042B21
:10473000002A09920E93C0F27A812B7882E72B78B7
:104740004AF0200A7EE7082200212AA8FFF7F0F9A4
:10475000012005444FE7B5EB0708064610D02F9A15
:10476000309B01324344072AC4E9007830932F92EA
:1047700015DC0834089B43440893002E7FF458AF9F
:10478000309B002B41F058830A9B9B8903F0400328
:10479000002B41F0F08708985BB0BDE8F08F5846D9
:1047A0000A992EAA02F01CF80028EDD131ACE1E7FD
:1047B000A8050020B9F1000FE2D0002301228DF8F6
:1047C00004910C9241AF8DF88F300B93CDE9062305
:1047D000CDE90F331493309E1AF08403314600F074
:1047E000E2809DF88F20FAB14FF000082F98012247
:1047F00001300136626007280DF18F02CDE92F06E6
:10480000226000F3FB830834B8F1000F0CD02F981E
:104810000222013002366260072824AACDE92F0661
:10482000226000F3DF830834802B00F0E482079BD2
:104830000C9AA3EB0208B8F1000F00F324831AF4DA
:10484000807F40F081820C9B27601E4463602F9B19
:1048500030960133072B2F9300F36D8308341AF041
:10486000040F05D0099B069A9F1A002F00F3D483EA
:10487000DDE9083206998A42ACBF9B185B180893A1
:10488000002E40F0388300232F930B9B1BB158461A
:104890000B99FFF7BFFA2F4631ACABE60E9B0733FF
:1048A00023F00701F1E80223CDE91223139B1E92A6
:1048B00023F000431F930E914FF0FF32DDE91E01FC
:1048C000AE4BFCF769F9002840F02186DDE91E01B6
:1048D0004FF0FF32A94BFCF741F90646002840F0A3
:1048E0001686DDE91201002200232AF0800AFCF777
:1048F0002BF9002841F04B819DF88F30B9F1470F1B
:10490000CCBF9F4F9F4F002B41F021860322CDE962
:104910000F330B930C920793149306925BE71AF0F4
:10492000200F40F0A5850E9A1AF0100F52F8046B74
:1049300041F026871AF0400F0E9201F01C8146F3D9
:10494000C038434636B28EE10E9BB9F1430F03F1F6
:10495000040603D01AF0100F00F0B88608220021D8
:104960002CA8FFF7E5F80E9A41AF2CAB3946584614
:10497000126803F04FFE034601330C9001F0F686F7
:104980000C9B23EAE373069300230E96309ECDE939
:104990000F338DF88F300B93079314931AF0840321
:1049A00031467FF41EAF099A0698A2EB0008B8F1D1
:1049B000000F00F32B849DF88F20002A3FF437AFBF
:1049C00012E70023DDF838808DF88F3058F8047B2B
:1049D000002F00F09186B9F1530F01F012801AF008
:1049E00010030F9341F00D80079B002BC1F236821C
:1049F0001A4638460F9902F0AFF89DF88F300B90A9
:104A0000002801F08F850B9ACDF83880D21B0C92CC
:104A100022EAE272069213B11346013306930F9B0A
:104A20004FF073090793149310930B93D3E6099BEC
:104A30005B4209932B784AF0040A03E62B238DF896
:104A40008F302B78FEE52B784AF0800AFAE529466C
:104A500011F8019BB9F12A0F01F07586A9F1300315
:104A6000092B98BF002201F22C8411F8019B02EB64
:104A7000820203EB4202A9F13003092BF5D942EA85
:104A8000E2730D460793DFE5584602F02DF84368C0
:104A900018461993FFF724F91B900646584602F072
:104AA00023F881682B781A91002E3FF4CBAD0029B2
:104AB0003FF4C8AD0A78002A3FF4C4AD4AF4806AD6
:104AC000C0E52B784AF0010ABCE59DF88F202B78D1
:104AD000002A7FF4B7AD20228DF88F20B2E51AF0BE
:104AE000200F4AF0100000F0BB840E9B073323F028
:104AF00007031A46596852F8083B0E9200228DF8B7
:104B00008F20079A002A18DB53EA010220F4906AEA
:104B100015D1079A9AB910F001031A46069300F0CE
:104B20004B8730238DF86731079B0C92CDE90F330B
:104B300014930B930DF267174DE620F4806A5AAF79
:104B400003F00702DB0843EA4173C908303253EA35
:104B50000106384607F8012DF2D11AF001010F9134
:104B600040F02383079A5AABDB1B9A42B8BF1A4620
:104B70000C930692149110910B912CE6FFFFEF7F9E
:104B800060AF00085CAF00081AF0200F4AF0100177
:104B900038D10E9B1A1D4FF000080E9B07981B681A
:104BA00040451E468DF88F80C0F2808521F0800A36
:104BB000002B00F089840E920A2E78F1000380F019
:104BC000B78306F13003DBB28DF86731079B0DF236
:104BD0006717012BB8BF0123069301230C939DF89F
:104BE0008F30002B01F0A985069B0133069300232B
:104BF000CDE90F330B931493EDE51AF0200F00F07D
:104C00004C8451460E9B073323F007031A46D3F812
:104C1000048000238DF88F30079B52F8086B002B1F
:104C20000E92C0F2448556EA080321F0800AC3D1EF
:104C3000079B002B00F04D840026C2E72B784AF03A
:104C4000080AFFE41AF0200F4AF0100100F01A845D
:104C50000E9B8A46073323F007031A465B6852F817
:104C6000086B98460E92002BC0F25183079A002AD7
:104C7000A2DB56EA08032AF0800A9DD1002A01F03F
:104C800059803023A0E72B78682B03BF6B784AF458
:104C9000007A01354AF0400AD4E40E9A1AF0200F47
:104CA00002F1040300F01E84126808991160C9170C
:104CB00051602F460E939DE42B786C2B03BF6B78CD
:104CC0004AF0200A01354AF0100ABBE4002647F6F4
:104CD00030030E9A079F52F8041BB742ADF890308C
:104CE0008DF88F600B46C0F2E5842AF0800040F01A
:104CF000020A002940F0D586002F01F022803023DF
:104D00008DF86731012306974FF078098C46CDE97D
:104D10000B1310910E9214910F910DF2671700F082
:104D2000A6BC1AF0200F40F0EF830E9A1AF0100183
:104D300052F8043B41F02A851AF0400000F00B873E
:104D400050460E929BB2D9E6B9F1650F40F3FD8053
:104D5000DDE9120100220023FBF7ECFE002800F041
:104D6000A081012363602F9BB24A01330136072BD8
:104D700030962F93226000F338860834259B119AD1
:104D8000934280F26483169B179A1E44C4E9002361
:104D90002F9B30960133072B2F9300F3A184083407
:104DA000119B5F1E002F7FF75AAD102F2F9B41F3F1
:104DB0005384A14932464FF010080E46DDF8289082
:104DC000159104E00834103F102F40F3A9800133FF
:104DD0001032072BC4E90068CDE92F32F2DD4946D5
:104DE00058462EAA01F0FCFC002840F08C80DDE93A
:104DF0002F3231ACE7E7099B069AA3EB0208B8F122
:104E0000000F7FF714ADB8F1100F2F9A41F32C83E8
:104E1000DFF824C22146304610232E4664460A9D00
:104E2000CDF854C006E0A8F11008B8F1100F01F158
:104E3000080118DD01321030072AC1E90043CDE92D
:104E40002F20F0DD294658462EAA01F0C9FC002883
:104E500059D1DDE92F20A8F11008B8F1100F4FF05B
:104E6000100331A9E6DC35460C4606460132159B97
:104E70004644072ACDE92F262360C4F8048000F3B6
:104E8000FE850834D3E46C4BB8F1100F2F9A1593BC
:104E900024DD214610230A9C06E0A8F11008B8F191
:104EA000100F01F1080118DD013263481036072A9E
:104EB000C1E90003CDE92F26EFDD214658462EAA91
:104EC00001F08EFCF8B9DDE92F26A8F11008B8F141
:104ED000100F4FF0100331A9E6DC0C460132159B90
:104EE0004644072ACDE92F262360C4F8048000F346
:104EF00002820834A3E458460A992EAA01F070FCF5
:104F000000283FF4C0AC0B9B002B3FF43DAC58464F
:104F10000B99FEF77FFF0A9B9B8903F0400337E460
:104F20001646159A01333E44072B22606760CDE98F
:104F30002F367FF793AC58460A992EAA01F050FC01
:104F40000028E0D1309E31AC89E42F9B013603F17B
:104F50000108119B04F10809012B40F33D81012355
:104F6000B8F1070FCDE92F862760636000F36282F6
:104F7000169B08F10108179A1E44B8F1070FC9E9FA
:104F80000023CDE92F8600F3488209F10809119B1F
:104F90000022DDE912015C1E0023FBF7CBFD002897
:104FA00040F07E8108F1010801372644B8F1070F6F
:104FB000CDE92F86C9F80070C9F8044000F31981C3
:104FC00009F10809189A08F101031644C9F80420E8
:104FD000072B28AACDE92F36C9F80020ABDC09F150
:104FE00008043CE458460A992EAA159301F0F8FBF0
:104FF000002888D1309E159B31AC15E458460A999B
:105000002EAA159301F0ECFB00287FF47CAF309EB4
:10501000159B31ACFFF7F8BB102F2F9B41F3948108
:10502000064AAA464FF010081546DDF8289015925A
:105030000BE000BF9CAF000830B1000840B1000891
:10504000103F102F04F1080415DD01331036072B33
:10505000C4E90058CDE92F36F2DD494658462EAA5C
:1050600001F0BEFB00287FF44EAFDDE92F36103F84
:10507000102F31ACE9DC55460133159A3E44072B1D
:10508000C4E90027CDE92F367FF7F2AB58460A99DD
:105090002EAA01F0A5FB00287FF435AF309EFFF764
:1050A000E7BB2599002940F34C84DDF83C90119B27
:1050B0009945A8BF9946B9F1000F0ADD2F9B4E44D0
:1050C0000133072BC4E9007930962F9300F38C87C6
:1050D0000834DDF83C80B9F1000FA8BFA8EB09083F
:1050E000B8F1000F00F328830F9B1AF4806F3B4444
:1050F00040F04B83259A11998A4203DB1AF0010F85
:1051000000F03286169917980E44C4E900012F99D1
:105110003096013107292F9101F3828008341199CB
:1051200007EB0108A8EB03088F1AB845A8BFB846DB
:10513000B8F1000F0BDD23602F9B46440133072B92
:10514000C4F8048030962F9301F3EF800834B8F14F
:10515000000FA8BFA7EB0807002F7FF780AB102F29
:105160002F9B41F37982C44932464FF010080E4616
:10517000DDF82890159104E00834103F102F7FF7D8
:10518000CFAE01331032072BC4E90068CDE92F32CE
:10519000F2DD494658462EAA01F022FB00287FF492
:1051A000B2AEDDE92F3231ACE7E7302A00F05384AC
:1051B00030230238002207F8013C07465AAB1B1A7D
:1051C0000B920C930799CDE90F229942B8BF19466B
:1051D00014920691FFF7FFBA1AF0010F7FF4BFAEE9
:1051E0000123B8F1070FCDE92F86276063607FF7B1
:1051F000E9AE58460A992EAA01F0F2FA00287FF487
:1052000082AEDDE92F860DF1C409DBE62F9AB8F1F5
:10521000100F41F35280DFF864C22046209510261B
:1052200065460A9CCDF854C0219306E0A8F1100809
:10523000B8F1100F00F1080017DD01321031072A14
:10524000C0E90056CDE92F21F0DD214658462EAAAF
:1052500001F0C6FA00287FF456AEDDE92F21A8F14F
:105260001008B8F1100F31A8E7DC0446209D219BFF
:10527000159808EB01062060501C0728CDE92F0681
:10528000C4F8048000F382839DF88F200834002A3C
:1052900040F0E280002B3FF4CAAA1346FFF7B8BAE9
:1052A000119B012B7FF78EAE112B41F35B8272496C
:1052B0003246434610270E46DDF82880159105E05A
:1052C00009F10809103C102C40F31D840133103201
:1052D000072BC9E90067CDE92F32F1DD4146584679
:1052E0002EAA01F07DFA00287FF40DAEDDE92F3201
:1052F0000DF1C409E6E758460A992EAA01F070FAA2
:1053000000287FF400AE309E31ACFFF798BA2D2311
:105310008DF88F30079B764268EB4808002BFFF62C
:105320004BAC0A2E78F100032AF0800AFFF449AC56
:105330000AF48063CDE90B494FF0000C1C46DDF800
:1053400068905AA9069526E016EB08034C4843F1ED
:105350000003A0FB032020F0030202EB90029B1A43
:105360004FF0CC32B6464546F31A02FB03F24448EE
:1053700068F1000800FB0822A3FB0063BEF10A0FDE
:1053800013444FEA560675F10005394646EAC376DE
:105390004FEA53082DD33A4D16EB080343F10003AF
:1053A000A5FB032020F0030202EB90029B1AF31AE4
:1053B000A3FB053268F1000005FB00225B0843EA0D
:1053C000C27303EB8303A6EB430330330CF1010CF0
:1053D0004F1E01F8013C002CB6D099F8003063450F
:1053E000B2D1BCF1FF0FAFD00A2E78F1000380F0EC
:1053F000EF83079A5AABDB1B9A42B8BF1A46069D49
:10540000CDF868900B9CDDF83090CDF844C00C933B
:1054100006929DF88F30FFF7E4BB58460A992EAAF2
:1054200001F0DEF900287FF46EADDDE92F860DF185
:10543000C409ACE558460A992EAA01F0D1F9002812
:105440007FF461ADDDE92F860DF1C40990E51AF016
:10545000010F3FF404AA96E498460023FFF7C7B96A
:105460000E9B1A1D0E9B00211B680E92FFF746BB78
:105470005146FFF7EDBB00BF30B1000840B1000856
:10548000CDCCCCCC0E9B1A1D0E9B8A461E680E926C
:105490004FEAE6784346FFF7E6BB0E9A1AF010088B
:1054A00052F8043B41F06F811AF0400100F03D8357
:1054B0009EB2079B8DF88F80002BFFF67CAB2AF005
:1054C000800A002E7FF477AB079B0E92002B7FF4AF
:1054D000B3ABCDE90F330C93149306930B935AAFF0
:1054E000FFF779B91AF0100F40F0D5821AF0400F8B
:1054F00040F09C841AF4007F00F0CD820E9A089947
:1055000012681170FFF7D5BB5046FFF7EEBADDE920
:10551000120102460B46FBF73FFB0646002841F00E
:105520001D80B9F1610F00F09985B9F1410F00F0CC
:10553000CD86079B013300F0C484B9F1670F139B3C
:105540004AF4807800F09C87B9F1470F00F0988703
:105550000B90DDE91212002A1346C0F2898700235E
:105560001593DDE91223CDE91C23A9F14103252B75
:1055700000F21584DFE813F03F071304130413044B
:10558000B0041C05130413041304130413041304BC
:105590001304130413041304130413041304130453
:1055A0001304130413041304130413041304130443
:1055B00013041304130413043F0713041304130404
:1055C000B0041C05B8481AF0200600F075810E9B47
:1055D000073323F007031A465E6852F8083B0E9221
:1055E0001AF0010200F0778153EA060200F0ED8123
:1055F00030228DF8902000228DF88F20079A8DF8A8
:105600009190002AC0F293812AF4906242F0020A3B
:1056100003F00F02825C0AF002011B0943EA0673E1
:105620008DF86721320953EA16160DF267170BD071
:1056300003F00F06865D1B0943EA0273120907F89F
:10564000016D53EA0206F3D1079A5AAB4FF0000CF2
:10565000DB1B9A42B8BF1A46CDE90FCC0C930692D9
:10566000CDF82CC0CDF850C000293FF4B4A8DDE936
:105670002F06069B3146023306931AF08403024636
:1056800008D1DDF824E0DDF81880AEEB0808B8F1A9
:10569000000F07DCBCF1000F3FF4BAA84FF002087E
:1056A000FFF7A5B80223B2E580488CE70E928A4640
:1056B000FFF782BA0E927D4A03F00F0710460221CF
:1056C0004FF07809D25D4AF0020AA6E70E9B41AF7F
:1056D0001B688DF80431012306930C93FFF754B92E
:1056E00058460A992EAA01F07BF800287FF40BACEB
:1056F000309E31ACFFF754BB079B3A46062B28BFC0
:10570000062307970B97CDE90F22694F0693CDF833
:1057100038800C931492FFF75EB840215846FEF78C
:105720006DFC0A9B18601861002801F0518040232D
:105730000A9A5361FEF748BFB8F1100F2F9B41F34F
:105740000D805C48224631464FF0100906460A9CFF
:10575000159006E00832A8F11008B8F1100F40F3D8
:10576000BD8201331031072BC2E90069CDE92F3129
:10577000F0DD214658462EAA01F032F800287FF4C9
:10578000C2ABDDE92F3131AAE5E7119A3146BA18EB
:10579000079222461C46109BDDF85080002BCDF866
:1057A00054A0DDF868901B9EDDF828A00F95149793
:1057B00031DDB8F1000F40F3128108F1FF382F9866
:1057C000199B013031440728C2E9003630912F90EF
:1057D00000F3A2800832079B99F800001F1B874244
:1057E000A8BF0746002F0CDD2F9839440130072849
:1057F000C2E9004730912F9000F3348199F80000FE
:105800000832002FB4BF0546C51B002D15DC04442B
:10581000109B002BCDDCB8F1000FCEDC2346149F8B
:105820001446119A0E46BA18934228BF13460F9D8C
:10583000DDF854A0CDF868905CE4102D2F981D4B36
:1058400023DD0C9410272C461D4604E0103C102C40
:1058500002F1080216DD0130164B10310728C2E9AB
:105860000037CDE92F01F1DD514658462EAA00F050
:10587000B7FF00287FF447ABDDE92F01103C102C67
:1058800031AAE8DC2B4625460C9C01302944072828
:10589000CDE92F011360556000F3988399F800005B
:1058A00008320444B4E700BF80AF00086CAF0008C2
:1058B00094AF000830B100080E9A52F8043B0E92E3
:1058C0001AF010027FF48CAE1AF0400100F04D8106
:1058D00016469BB284E68DF88F20079A002A28DBB3
:1058E00053EA06022AF4906A7FF492AE079A002ADD
:1058F00000F0E080012AB8BF0122037806928DF8FB
:105900006731012200230C92CDE90F330B930DF286
:1059100067171493FEF75FBF514658462EAA00F052
:105920005FFF00287FF4EFAA309931AA53E74AF0CD
:10593000020A03F00F020AF00201825C2AF4806A74
:105940006BE6012363602F9B9E4A01330136072BD0
:1059500030962F93226000F3E1810834002940F053
:10596000AB80119A0AF0010313433EF478AF169B03
:10597000179A1E44C4E900232F9B30960133072B4E
:105980002F9300F3918204F10802A6E058460A9989
:105990002EAA159300F024FF00287FF4B4AA9DF8E6
:1059A0008F20309E159B002A00F0A580984631ACD0
:1059B00003462F98FEF71BBF079B5AAFCDE90F3365
:1059C0000C9314930B93FEF706BF0021079B8DF8F1
:1059D0008F108B42C0F2EE802AF4906A86E7109B0B
:1059E00009F1FF39013B1093E9E658460A992EAABE
:1059F00000F0F6FE00287FF486AA309E31ACFFF757
:105A0000BDB9082200212CA82797FEF791F8079B23
:105A1000002BC0F2288100260695CDF82C80354653
:105A200098460FE02CAB584641A902F0F3FD431C09
:105A300006F10406284400F04285404506DC00F0EB
:105A4000A8850546279B9A59002AEBD10C95DDF8CD
:105A50002C80069D15E100225AABDB1B0B920C93A8
:105A6000FFF7B0BB514658462EAA00F0B9FE0028F9
:105A70007FF449AA99F80000309931AAC1E6584646
:105A80000A992EAA00F0ACFE00287FF43CAA309EB2
:105A900031ACFEF7CCBE0E9A089912681160FFF780
:105AA00008B949480E9201F00F024FF0780902211F
:105AB000825CB2E5079B0CE5169B179A1E44C4E96D
:105AC00000232F9B30960133072B2F9300F3EC819B
:105AD00004F108020029C0F23B84119901330E44FD
